:020000040800F2
:10000000684A0020AD01000815470008613D00085E
:10001000ED460008B50900082D7400080000000036
:100020000000000000000000000000003956000839
:10003000850B0008000000000F4A00084756000822
:10004000C7010008C7010008C7010008C701000870
:10005000C7010008C7010008C7010008C701000860
:10006000C7010008C7010008C7010008C701000850
:10007000C7010008C7010008C70100088D0A000871
:10008000C7010008C7010008C70100080000000000
:10009000000000000000000000000000C701000890
:1000A000C7010008C7010008C7010008C701000810
:1000B000ED560008F9560008C7010008C7010008FE
:1000C000C7010008C7010008C7010008C7010008F0
:1000D000C7010008C7010008C701000800000000B0
:1000E000C7010008C7010008C701000800000000A0
:1000F000000000000000000000000000C701000830
:1001000000000000AD4A0008C7010008C701000850
:1001100000000000000000000000000000000000DF
:10012000990A0008C7010008A50A0008B10A0008DA
:10013000C7010008000000000000000000000000EF
:1001400000000000000000000000000095480008CA
:10015000BD0A0008C90A0008D50A0008C70100083E
:10016000C7010008C70100080000000000000000EF
:10017000000000000000000000000000000000007F
:1001800000000000C701000800000000000000009F
:10019000C7010008DFF810D000F0FCFA0048004763
:1001A000E98F0008AFF30080684A002006488047C6
:1001B00006480047FEE7FEE7FEE7FEE7FEE7FEE74C
:1001C000FEE7FEE7FEE7FEE7DD56000895010008C2
:1001D0002DE9F05F0546002092469B46884606467C
:1001E000814640241BE0284641464746224600F00F
:1001F0007CF953465A46C01A914110D3114618460D
:10020000224600F063F92D1A67EB01084F4622469B
:100210000120002100F05AF917EB00094E41201E81
:10022000A4F10104DFDC484631462A464346BDE8D6
:10023000F09F40EA01039B0703D009E008C9121FA1
:1002400008C0042AFAD203E011F8013B00F8013B90
:10025000521EF9D27047D2B201E000F8012B491EBC
:10026000FBD270470022F6E710B513460A46044653
:100270001946FFF7F0FF204610BD2DE9FE4F81EA39
:10028000030404F0004421F0004100944FF0000BFF
:1002900023F0004350EA01045ED052EA03045BD02D
:1002A000C3F30A54C1F30A552C44A4F2F334019465
:1002B000A0FB0254C1F3130141F48011C3F31303F3
:1002C00043F4801301FB024400FB034E840A970AA7
:1002D00044EA815447EA8357A4FB076802958D0AD4
:1002E00005FB07854FEA932C04FB0C542705029D60
:1002F0004FEA065847EA1637B5EB08056EEB070CD0
:10030000870E920E47EA811742EA8312A7FB020189
:10031000B6EB0B0164EB00042B0D43EA0C335E18C3
:1003200044EB1C50DA465146E7FB0201C5F31304C7
:100330004FEA0B3343EA14534FEA0432019C43EA79
:100340000603A4F10C040294009CCDE900B400F073
:10035000EBF803B0BDE8F08F00200146F9E72DE986
:10036000F04D81EA030404F0004B21F000451446EF
:100370004FF0000A23F0004150EA050220D054EA71
:1003800001021DD0C5F30A570246C5F31303C1F39A
:100390001300C1F30A5640F4801543F48013A7EB11
:1003A0000608101BD64608F2FD3873EB050002D391
:1003B00008F1010801E092185B41B8F1000F03DA7F
:1003C00000200146BDE8F08D00204FF48011064664
:1003D00084460EE0171B73EB050705D3121B63EB76
:1003E000050306434CEA010C49084FEA3000921815
:1003F0005B4150EA0107EDD152EA030012D082EAD4
:10040000040083EA0501084305D0101BAB4106D266
:100410000122002306E000224FF0004302E06FF0CB
:10042000010253101AEB06004CEB085110EB0A00C6
:1004300041EB0B01BDE8F04D00F067B870B5C1F3BA
:100440000A5201F000450024C1F3130140F2FF33CA
:1004500041F480119A4201DA002070BD40F233432A
:100460009A42A2F2334203DC524200F03EF800E02E
:1004700090402C43F1D0404270BD00F0004230F07B
:1004800000400AD0C10D01F56071C0F3160042EAC8
:100490000151C208400711437047002001467047D0
:1004A00030B50B46014600202022012409E021FA44
:1004B00002F59D4205D303FA02F5491B04FA02F541
:1004C0002844151EA2F10102F1DC30BD202A04DB14
:1004D000203A00FA02F1002070479140C2F1200357
:1004E00020FA03F3194390407047202A04DB203A96
:1004F00021FA02F00021704721FA02F3D040C2F144
:100500002002914008431946704710B5141E73F13C
:10051000000408DA401C41F1000192185B411A43C3
:1005200001D120F0010010BD2DE9F04D92469B460F
:1005300011B1B1FA81F202E0B0FA80F220329046B5
:10054000FFF7C4FF04460F4640EA0A0041EA0B01E8
:1005500053465A46084313D0114653EA010019D0B6
:10056000C8F140025046FFF7C0FF05460E46504610
:1005700059464246FFF7AAFF084305D0012004E090
:1005800020463946BDE8F08D0020054346EAE07676
:100590002C4337430A986305E40AA0EB08000022C5
:1005A000FD0A44EA47540A3002D500200146E9E733
:1005B000010510196941DDE9084500196941BDE8E7
:1005C000F04DA2E72DE9FE4F804681EA0300C00FFF
:1005D0000C46009021F0004123F00045B8EB0200EA
:1005E000A94105D24046214690461C460B4602468C
:1005F00023F00040104347D0270DC7F30A00C3F390
:100600000A510290401A019040286BDAC3F313009C
:1006100040F4801B0098924620B10023D2EB030ADD
:1006200063EB0B0B01985946C0F140025046FFF7AF
:100630004DFF06460D4650465946019A00F0BCF85B
:1006400010EB08006141002487EA115284EAE77345
:100650001A4340D0009A62B3019A012A4FEA075226
:1006600015DC001B61EB02014FF0004202EA075269
:10067000CDE90042001C41F5801132462B46FFF7C0
:1006800053FF03B0BDE8F08F40462146F9E7001B59
:1006900061EB0201001C41F5801300185B4120183A
:1006A000A2F5001747EB030140EAD570B6196D417A
:1006B00011E06D084FEA360645EAC0754FEA075269
:1006C000001B61EB0201001C41F5801149084FEA53
:1006D00030000019514132462B4603B0BDE8F04FBF
:1006E000FFF713BF0098012240000023D0EB020265
:1006F00063EBE073009821464FEAE074B8EB00002A
:1007000061EB0401E9E783F000435BE781F000411E
:1007100058E70EB5C10F80EAE0700844CA0700210F
:1007200040F233438DE80E000A460B46FFF7FCFE0D
:1007300003B000BDC1F30A52C1F3130140F2FF330D
:1007400041F480119A4202DA00200146704740F2DB
:1007500033439A42A2F2334202DC5242FFF7C5BE53
:10076000FFF7B4BE30B5041E71F1000404DB4FF096
:100770000044404264EB0101141E73F1000405DBE8
:100780001C464FF00043524263EB0403994208BFFA
:10079000904230BD064C074D06E0E06840F0010392
:1007A00094E8070098471034AC42F6D3FFF7F6FC04
:1007B000A0930008C0930008202A06DBCB17203A3C
:1007C00041FA02F043EAE07306E041FA02F3D04056
:1007D000C2F1200291400843194670470EB540F21D
:1007E000334102910021CDE900110A460B46FFF783
:1007F0009BFE03B000BD70B58C1810F8015B15F0BE
:10080000070301D110F8013B2A1106D110F8012B82
:1008100003E010F8016B01F8016B5B1EF9D12B07A7
:1008200005D40023521E0DD401F8013BFAE710F85D
:10083000013BCB1A921C03E013F8015B01F8015B4A
:10084000521EF9D5A142D8D3002070BD464910B53B
:100850004A6822F440324A604A6843681A434A6050
:1008600001684A6822F480724A6001684A68036934
:1008700042EA03224A6001684A6822F040724A60F4
:1008800001684A6883681A434A6001688A6822F4EA
:1008900000628A6001688A68C3681A438A60816A54
:1008A0006FF07062D14201688A6822F070628A60DB
:1008B00001688A680CD0836A1A438A6001688A6872
:1008C00022F040528A6001688A68C36A1A4301E0D4
:1008D00022F040528A6001688A6822F002028A602F
:1008E00001688A68037E42EA43028A6090F8201019
:1008F000002901684A680FD042F400624A6001682A
:100900004A6822F460424A6001684A68174C436AA8
:1009100004EB43331A4301E022F400624A600168A9
:10092000CA6A22F47002CA620168CA6A838B104CD8
:1009300004EB03531A43CA6201688A6822F4007206
:100940008A6001688A6890F8303042EA43228A60FF
:1009500001688A6822F480628A6001688A68406956
:1009600042EA8020886010BD0023014000E0FFFFC4
:100970000000F0FF10B5007800F00F0000EB401110
:10098000074800EB810404F110008021FFF76AFCA6
:10099000002084F89100BDE8104002A008F04CBC93
:1009A000182200206E6F7465206F666620616C6C83
:1009B000200A0000FEE7000030B40022084C437813
:1009C00003E0521CD2B2302A08D214F83250AB42A3
:1009D000F7D104EBC202526830BC104730BC7047FC
:1009E000D0010020002070470020704710B5002281
:1009F0000449054805F074F90449034805F063F912
:100A0000002010BD1413002038080020140F00200F
:100A100070B50D4604460146084805F054F90748EC
:100A200005F02AF92A68064D214606486A70FFF744
:100A300000FC01202870002070BD00003808002054
:100A400074000020140D002000207047094A10B5E2
:100A5000D2F8BC22D2F814220AB1012010BD0A46F5
:100A60000146044805F03CF9BDE81040014805F096
:100A7000B1B90000380800200178034A01F00F01E5
:100A8000807850547047000018220020014800F080
:100A900001BB0000E4030020014800F0FBBA0000A5
:100AA000E0050020014800F0F5BA000078070020BA
:100AB000014800F0EFBA0000C8040020014800F02F
:100AC000E9BA000040060020014800F0E3BA000047
:100AD00028050020014800F0DDBA0000D8070020FA
:100AE00001681823CAB2103AB2FBF3F2054B6FF358
:100AF0000901032A9B5CC36500D9091D816508466D
:100B0000704700005C92000810B5014600208B6918
:100B10008A6A4FF0C07453B1B3F5005F15D072B15B
:100B2000012A0CD0022A0AD0032A09D104E01AB102
:100B3000012A06D0022A03D1C96AC90100D50120C1
:100B400010BDC96AA142FAD010BD002AF7D0012A0F
:100B5000F2D0022AF3D0032AF3D010BD30B50468D6
:100B6000256825F480252560046863608368402B30
:100B7000036803D099600068C26030BD9A60006865
:100B8000C16030BD70472DE9F84F9A4644F20828FD
:100B9000074693460E460B46CDF8008000F0CAF893
:100BA000751C48F210497C1CABB2A9B2A0B25A46DF
:100BB000CDF8009000F0BEF83A4653463146104654
:100BC000CDF8008000F0B6F8A2B2A9B2A0B25346A8
:100BD000CDF8009000F0AEF84FF6FF7453465A4639
:100BE00019463846009400F0A5F85A465346314657
:100BF0001046009400F09EF8BDE8F88F2DE9F84308
:100C00001C464FF6FF78074615460E460B46CDF8B4
:100C1000008000F08FF83A46234631461046CDF862
:100C2000008000F087F8601E83B281B248F210485D
:100C3000781C80B22A46CDF8008000F07BF844F2A0
:100C4000082923462A4619463846CDF8009000F078
:100C500071F8681E82B2711C89B280B22346CDF849
:100C6000008000F067F82A46234631461046CDF84A
:100C7000009000F05FF8BDE8F8832DE9F041160020
:100C8000054610D12944090BA1EB153087B2002489
:100C900007E03146284607F0EDFF641CA4B205F6D4
:100CA000FF75BC42F5D9BDE8F08172B6FEE70000E1
:100CB00070B51F4D00242DED088BB0EE00BA9FEDEE
:100CC000168B9FED179B9FED18AB00BF00EE104AEF
:100CD000B8EEC00A20EE0B0A10EE100AFFF7CDFBAB
:100CE00053EC182BFFF7C9FA53EC192BFFF7C5FA91
:100CF00041EC100B06F01CFC53EC1A2B51EC100BC2
:100D0000FFF7BBFAFFF79AFB25F81400641CFF2CD1
:100D1000DCDDBDEC088B70BD182D4454FB2109406F
:100D2000000000000000703F00000000C0FFDF4036
:100D3000181E00202DE9F84F1C4615460E46804629
:100D400003F0BFF9B5EB0805A4EB06044FF0FF3044
:100D500002D44FF0010B01E083466D42002C02DB10
:100D60004FF0010901E08146644268004FEA440AFD
:100D70000090A54219DDAAEB0504002711E03146D9
:100D800040460A9A00F02BF8002C04DB0098241A45
:100D900006EB090086B208EB0B0054441FFA80F8FA
:100DA0007F1CAF42EBDDBDE8F88F0098051B0027E4
:100DB00012E0314640460A9A00F011F8002D05DB9A
:100DC00008EB0B00A5EB0A051FFA80F800987F1CC2
:100DD000054406EB090086B2A742EADDE3E710B559
:100DE00014464A1C93B2421C92B203F041F92046C9
:100DF000BDE8104003F0D6B82DE9F84F1C464EF67A
:100E00007D7B87180D468046BAB20B46CDF800B000
:100E1000FFF790FF2C44601C7E1E42F6651A83B2D9
:100E200005F10109B2B21FFA89F1B0B2CDF800A004
:100E3000FFF780FFA3B2BAB2A1B24046CDF800A03E
:100E4000FFF778FF4246A3B229461046CDF800B01E
:100E5000FFF770FF0A980090641E08F10100A3B22A
:100E6000B2B21FFA89F180B2FFF764FFBDE8F88FD4
:100E700078B50024009490F83C20012A19D0012272
:100E800080F83C200A6807230568092A13D9EE6810
:100E90000A3A02EB420293409E43EE600B788A6866
:100EA0000A3B03EB43039A400368DD682A43DA6098
:100EB00010E0022078BD2E6902EB420293409E436F
:100EC0002E610B788A6803EB43039A4003681D691F
:100ED0002A431A614A681F23072A13D205686E6BDA
:100EE000521E02EB820293409E436E630B790A8886
:100EF0005B1E92B203EB83039A4003685D6B2A4347
:100F00005A6327E005680D2A12D22E6BD21F02EB1E
:100F1000820293409E432E630B790A88DB1F92B2B4
:100F200003EB83039A4003681D6B2A431A6311E0A5
:100F3000EE6A0D3A02EB820293409E43EE620B7919
:100F40000A880D3B92B203EB83039A400368DD6A83
:100F50002A43DA62164B0568144A9D4206D10D6891
:100F6000122D03D1556845F48005556005689D42F2
:100F700018D10B68102B01D0112B13D1536843F4F7
:100F800000035360096810290CD10A490A4A09680C
:100F9000B1FBF2F101EB8101490000E0491E009133
:100FA0000029FBD180F83C40002078BD002301409F
:100FB000002001400C00002040420F0070B50400EA
:100FC0004FF0000503D0206C002610B107E001208F
:100FD00070BD204600F01CF8666484F83C60206C0C
:100FE000C00610D4206C20F4885040F00200206429
:100FF0002046FFF72BFC6664206C20F0020040F0D6
:101000000100206400E0012584F83C60284670BDA2
:1010100010B586B0044614216846FFF723F911493C
:10102000206888421CD110480021026842F4807276
:101030000260006800F4807005900B481438026864
:1010400042F001020260006800F0010005901E20DD
:1010500000900320CDE901016946044800F09EF9A3
:1010600006B010BD0020014044380240000002409C
:1010700090F83510022903D0802141650120704786
:10108000052180F835100068016821F00101016038
:10109000002070472DE9F84304464FF00009CDF8D1
:1010A000009063484FF41651A56D0068B0FBF1F74E
:1010B0002E6894F85C10082000FA01F131420FD03C
:1010C00021680A6852070BD50A6822F004020A60F8
:1010D00094F85C108840A860606D40F00100606585
:1010E00094F85C104FF0010808FA01F0304208D083
:1010F00021684969090604D5A860606D40F00200C6
:10110000606594F85C1004208840304208D0216863
:101110000968890704D5A860606D40F00400606527
:1011200094F85C1010208840304218D0216809687B
:10113000090714D5A86020680168490304D5006830
:10114000000308D5A16C07E00168C90503D4016854
:1011500021F008010160216C09B12046884794F80C
:101160005C1020208840304231D021680968C906CF
:101170002DD5A86094F8350005282068016806D0B0
:10118000490347D5006800031DD4616C1CE021F0C1
:10119000160101602068416921F080014161206CE5
:1011A00008B9A06C20B12068016821F00801016035
:1011B00094F85C103F208840A86084F8358084F85B
:1011C0003490216D1FE0E16B09B120468847606DC6
:1011D00000282BD0606DC00714D0052084F835009E
:1011E0002068016821F0010101600098401C009016
:1011F000B84203D820680068C007F6D184F835806B
:1012000084F83490E16C002910D001B02046BDE88C
:10121000F04308470168C905D5D4016821F01001E1
:10122000016084F8358084F83490CCE7BDE8F88319
:101230000C0000202DE9F041044600F0A5F9064617
:101240005CB1022084F83500002584F83450206811
:10125000016821F0010101600DE00120BDE8F0818D
:1012600000F092F9801B052805D920206065032035
:1012700084F83500F2E720680068C007F0D12268E2
:10128000116820480140D4E901031843D4E903362A
:101290003343184363691843A3691843E369184348
:1012A000236A18430843616A042903D1D4E90B1364
:1012B00019430843106020684069666A20F00701FE
:1012C00030460E43012704280CD1A06A0643E06A89
:1012D00040B12046FFF718FC20B14020606584F83B
:1012E0003570BAE7206846612046FFF7F9FB94F8AD
:1012F0005C203F2191408160656584F83570002055
:10130000ACE700003F8010F02DE9F0410446866D07
:1013100090F83400002501280DD0012084F8340015
:1013200094F835700020012F07D084F8340002258E
:101330002846BDE8F0810220FBE7022784F83570DB
:1013400060652046FFF70AFC94F85C103F20884057
:10135000B0602068016841F016010160206C20B186
:101360002068016841F0080101602068016841F0CF
:1013700001010160DCE7000070B5044600F004F9EB
:101380000546601C02D004480078044400F0FCF8D4
:10139000401BA042FAD370BD000000202DE9F84F99
:1013A000DFF8B8A10022012403254FF00F090AF14C
:1013B000040BAAF1040E00BF0B6804FA02F63340D6
:1013C000B34273D10F7907F00307012F01D0022F29
:1013D00016D187684FEA420805FA08FC27EA0C078D
:1013E000D1F80CC00CFA08FC4CEA070CC0F808C095
:1013F0004768B7430E79C6F3001696403E434660F1
:101400000E79F643B6070DD0C768560005FA06FCFC
:1014100027EA0C07D1F808C00CFA06FC4CEA070CC6
:10142000C0F80CC00E7906F00306022E10D1D608C3
:1014300000EB8608D8F8206057074FEAD76C09FA06
:101440000CF7BE430F6907FA0CF73743C8F8207052
:1014500006684FEA420C05FA0CF7BE430F7907F015
:10146000030707FA0CF7374307604E6816F4403F4E
:101470006DD03B4E376847F480473760366822F0BE
:10148000030706F480460096364E07EB060CDCF8A0
:10149000086897073F0F09FA07F826EA0806DFF8F9
:1014A000C880404503D14FF000081EE04FE0DFF850
:1014B000BC80404502D14FF0010816E0DFF8B08053
:1014C000404502D14FF002080FE0DFF8A880404508
:1014D00002D14FF0030808E0DFF89C80404502D1BC
:1014E0004FF0040801E04FF0070808FA07F848EA4F
:1014F0000608CCF80888DAF800605746D1F804C02E
:101500009E435FEACC2C00D51E433E60DBF80060B2
:101510005F46D1F804C09E435FEA8C2C00D51E4381
:101520003E60DEF800607746D1F804C09E435FEA73
:101530008C3C00D51E433E60084F083F3E68D1F802
:1015400004C09E435FEACC3C00D51E433E60521C63
:10155000102AFFF431AFBDE8F88F0000083C0140CD
:1015600044380240003001400000024000040240C4
:1015700000080240000C0240001002400AB18161E4
:1015800070470904FBE700000148806870470000CD
:10159000000000202DE9FF410446006881680091A9
:1015A0007749784E4FF04027884201D1324600E01B
:1015B0003A469268019240688846029001D13046CE
:1015C00000E038464068039060684FF00105B0F5D0
:1015D000007F1CD0D8B1900705D50398000602D52E
:1015E000204602F0EFFB0098C0070FD0029840069B
:1015F0007FD521682046CA68E16A8B1CE3620A80B5
:10160000618E491E6186618E002967D071E0009865
:10161000800719D50298000616D5616A20468A1CF3
:10162000626222680988D160618D491E6185618D81
:1016300051B901684A6822F0A0024A60418E19B986
:1016400080F8415000F0A0F80198C00705D0039839
:10165000400602D5204602F085FB0198400622D5BF
:10166000039880061FD52168414501D1304600E02E
:101670003846406820F0600101D1304600E038462D
:1016800041602068416821F0A00141602068C16884
:101690008068019084F84150606C40F00200606402
:1016A000204600F072F80098000767D5029880067F
:1016B00064D52068416821F0A0014160216841455E
:1016C00001D1304600E03846406820F0600000D08C
:1016D0003E46706020688068009043E001684A6878
:1016E00022F060024A60418D19B980F8415000F043
:1016F0004BF8009840061ED5029880061BD520683E
:10170000416821F0600141602168414501D13046C6
:1017100000E03846406820F0A00101D1304600E0EA
:101720003846416084F84150606C40F002006064CB
:10173000204600F02AF8019800071FD5039880067C
:101740001CD52168414501D1304600E0384640684B
:1017500020F0A00000D03E4670602068416821F073
:101760006001416084F84150606C40F004006064A6
:1017700004B02046BDE8F04100F007B8BDE8FF81A5
:1017800000380040003400407047704790F8410036
:10179000704700002DE9F047040005D094F841009F
:1017A0004FF0000818B109E00120BDE8F08784F887
:1017B000408051486063204600F0A6F8022684F875
:1017C00041602068C16940F6BF77B943C1612068B4
:1017D000066260694FF4007902282FD0E06870B18A
:1017E0002025A068202800D86D00012000F0FEFE12
:1017F000216949451FD1E16819B1A90002E010250E
:10180000EFE7E900B0FBF1F000EB80006169400018
:10181000B0FBF1F0401D0A21B0FBF1F000F0010136
:10182000401A40080902821EFE2A09D3606C40F06B
:1018300010006064B8E7B0FBF5F0E5E70220002196
:1018400022690843024320680262D4E90101084387
:10185000A269E168114308432168CA69BA43104389
:1018600040F40060C861206A01283AD123486063CF
:1018700023482168234A4FF04023814201D1114679
:1018800000E01946C96921EA070101D1154600E0C7
:101890001D46E9612168814201D1114600E01946E7
:1018A0000E622568854201D1114600E01946C969DA
:1018B0008EB2616849451BD0D1B100212789B4F8A7
:1018C0000CC047EA0C07B4F818C04CEA010C47EA10
:1018D0000C07B9B2314341F40061854200D01A4689
:1018E000D161C4F84480012084F8410000205CE705
:1018F0004FF48071E2E700007B3E00089515000878
:10190000003800400034004070B58CB00646142109
:101910006846FEF7A7FC142105A8FEF7A3FC23499F
:101920003068884240D10120059032200224CDE960
:10193000060405A800F08AFE08B1FFF7B6F91C48B6
:101940000025016841F480410160006800F4804096
:101950000A9017481038016841F0020101600068E0
:10196000694600F002000A904FF430408DE83100E3
:101970000520CDE903500F48FFF710FD0F4C0E482E
:10198000C4E900054020C4E902050001C4E90405DA
:10199000A561E561256220466562FFF74BFC08B151
:1019A000FFF783F9B463A6630CB070BD0038004044
:1019B000403802400004024070600240E40300200E
:1019C0007047000070B5044629B122B194F8410077
:1019D000012833D101E0012070BD94F840000128B6
:1019E0002CD0012684F84060032084F841000025B3
:1019F000656461622068C06900F0070003281FD099
:101A000005281DD022856285A16B1B480864A16B47
:101A10001A48C863A16B1A48C864238D2268616A9A
:101A20000C32A06BFFF770FC88B154F8440F40F003
:101A3000080044F8040966702570CCE7022070BDE8
:101A40004FF6FF7000EA420020856085DCE784F8ED
:101A5000405020684168890703D4416841F0020181
:101A600041602068C169490503D4C16941F48061BE
:101A7000C161002070BD0000713E00084D3E0008AD
:101A8000253E00087047704702488168027811447B
:101A900081607047000000200B4810B5016841F4D8
:101AA00000710160016841F480610160016841F4E6
:101AB00080710160032000F06FF80F2000F006F83D
:101AC00000F024F8002010BD003C024070B50D4D20
:101AD00004464FF47A712878B1FBF0F00A4909689E
:101AE000B1FBF0F001F0A6FE48B9102C07D200229D
:101AF0002146501E00F030F800206C6070BD0120BF
:101B000070BD0000000000200C0000200A4808B54D
:101B1000016841F480410160006800F48040009059
:101B20000548001F016841F080510160006800F025
:101B30008050009008BD000044380240002809DBB6
:101B400000F01F02012191404009800000F1E020D7
:101B5000C0F8001170470000F0B40E4B1B680C4633
:101B6000C3F30223C3F10705042D00D90425191D71
:101B7000072901D2002300E0DB1E012606FA05F149
:101B8000491E214099409E40761E16403143F0BCCC
:101B900005F0BCBC0CED00E0064900F00702086847
:101BA0004FF6FF03184040EA0220034A1043086042
:101BB000704700000CED00E00000FA057047006877
:101BC000416200207047F0B50368586A39B19C6AD9
:101BD0004FF4827600EB144400204D1E0AE040EAE8
:101BE000024098620FE006EB8007DF59401C04EBCF
:101BF0001744C0B2A842F6D344EA02404FF48072C0
:101C000002EB810158500020F0BDD0F8E00404F050
:101C10006EBB01EBC10200EB8202D0F8E004126A55
:101C200004F0C3BA01EBC10200EB8202D0F8E00479
:101C3000D2F8602204F014BBD0F8E00404F059BBE1
:101C40000A0601F00F0101EBC10100EB810101D592
:101C5000143101E001F51571006805F035BA70B571
:101C600004460B0601F00F0000EBC00104EB8101FC
:101C70004FF001024FF0000502D54A75143103E020
:101C800081F8555201F51571087094F894040128F3
:101C900008D084F89424206804F030FF84F8945429
:101CA000002070BD022070BD70B5044601F00F0029
:101CB0002279904201D9012070BD0B0601F00F017D
:101CC00001EBC10104EB81014FF001024FF000056F
:101CD00002D54A75143103E081F8555201F51571AA
:101CE0008D70087094F89404012808D084F8942426
:101CF000206805F075F884F89454002070BD022027
:101D000070BD01F00F0101EBC10100EB8100D0F8C3
:101D1000680270472DE9F04104460F0601F00F00FC
:101D200000EBC00104EB81014FF001064FF000050C
:101D300002D54E75143103E081F8555201F5157145
:101D4000C2F30A0208708A600B714A7802B14883B4
:101D5000022B00D14D7194F89404012809D084F825
:101D60009464206804F01CFE284684F89454BDE86E
:101D7000F0810220FBE710B501F00F0404EBC40171
:101D800000EB8101C1E998230023C1F8683281F892
:101D9000553281F85442837901F51571012B00D138
:101DA000CA618279006805F073F8002010BD70B533
:101DB00004460D4601F00F002179884201D9012027
:101DC00070BD29064FF000064FF0010206D500EB6A
:101DD000C00104EB81014A75143107E005EBC50130
:101DE00004EB810181F8556201F515718A70087064
:101DF00094F89404012807D084F89424206805F00E
:101E00001BF8280702D007E0022070BDA17904F278
:101E10009C42206804F0B8FF84F89464002070BDF0
:101E200010B501F00F0404EBC40100EB8101C1E91E
:101E3000082300238B6201234B7501F8144F83792B
:101E4000012B00D1CA618279006805F021F80020D9
:101E500010BD00002DE9FC5F05680446284605F02A
:101E6000CFF900287DD1206805F0F6F9002878D058
:101E7000D5F80808C0F30D20C4F8D404206805F094
:101E8000EBF9800704D52068416901F00201416146
:101E9000206805F0E1F9C10604F29C40009034D5B9
:101EA0002068816921F0100181612F6A07F00F001D
:101EB00000EBC00004EB8006C7F3434006F515763F
:101EC000022802D0062811D01AE047F6F070074227
:101ED00016D0C7F30A1217462846F16805F0C0F974
:101EE000F0683844F0607069384408E008222846F9
:101EF000009905F0B5F97069C7F30A1108447061DB
:101F00002068816941F010018161206805F0A4F921
:101F100000034FF0080B4FF0000A4FF001097CD589
:101F20000026206805F077F9074674E0F80770D0BE
:101F3000F1B2206805F088F98046C00707D005EBAC
:101F40004611C1F8089B3146204602F0A9FC5FEA21
:101F5000087024D505EB4611C1F808BB2068016C58
:101F600000E023E200EB46100191D0F8082BFB4B78
:101F7000994205D9110403D54FF40041C0F8081B5C
:101F8000204600F0F3FAF5490198884207D9A07974
:101F9000012804D120680121009A04F0F5FE5FEACF
:101FA000C86004D505EB46111020C1F8080B5FEAA4
:101FB00088701DD56869000605D5D5F8040840F479
:101FC0008061C5F8041806EBC60004EB800090F8A9
:101FD000571200F51570012905D180F803A0F1B260
:101FE000204600F0E9F905EB46110220C1F8080B84
:101FF0005FEA886004D505EB46102021C0F8081B75
:102000005FEA884005D505EB46104FF40051C0F853
:10201000081B7F08761C002F88D1206805F01CF96A
:1020200040036ED5206805F0EFF80746002666E00D
:10203000F80762D0F1B2206805F0F4F88046C007D6
:1020400023D006F00F01D5F8342809FA01F18A43AC
:10205000C5F8342805EB4611C1F80899A079012884
:102060000FD106EBC60004EB8000D0E90721114434
:10207000016236B9606A20B920680121009A04F033
:1020800083FEF1B22046FFF7C4FD5FEA087003D576
:1020900005EB4611C1F808B95FEAC86004D505EB45
:1020A00046111020C1F808095FEA486004D505EB25
:1020B00046104021C0F808195FEA887016D53146ED
:1020C000284605F072F806EBC60004EB8000C17DDF
:1020D0001430012905D180F803A0F1B2204600F0A8
:1020E00067F905EB46110220C1F808095FEA0860AC
:1020F00003D53146204602F039FC7F08761C002FBC
:1021000096D1206805F0A8F8002811DAD5F804085F
:1021100020F00101C5F8041894F8CC0401282BD054
:10212000204600F008FA2068416901F00041416151
:10213000206805F091F800050BD5D5F80808C00710
:1021400002D0204600F03AFA2068416901F40061AB
:102150004161206805F080F8C00467D5D5F804080F
:1021600020F00100C5F804081021206805F01DF8D2
:1021700000214FF67F3220E084F8CCA400212046D5
:10218000FFF71CFDCFE700BF05EB4110C0F80829A1
:10219000D0F8003923F40013C0F80039C0F8082B38
:1021A000D0F8003B23F40013C0F8003BD0F8003B0C
:1021B00043F00063C0F8003B491C20798842E3D813
:1021C000D5F81C0840F00111C5F81C18E07B002868
:1021D00028460DD0D0F8840840F00B01C5F88418CB
:1021E000D5F8440840F00B012846C5F844180DE026
:1021F000D0F8140842F22B010843C5F81408D5F8AA
:10220000100840F00B012846C5F81018D0F8000857
:1022100020F4FE61C5F80018A1792068009A04F046
:10222000B3FD2068416901F480514161206805F0E7
:1022300013F8800415D5206804F0F2FB206804F040
:10224000D2FFE07100F044FB0146E279206805F01E
:1022500065F8204600F05CF92068416901F40051FE
:102260004161206804F0F8FF000707D5204600F020
:1022700066F92068416901F008014161206804F0B5
:10228000EBFF000616D5A86920F08001A9610126A0
:102290000DE000BF06EBC60004EB800090F857028B
:1022A000012803D1F1B22046FFF7CAFC761C207941
:1022B000B042EFD8206804F0CFFFC0021FD501263E
:1022C0004F4614E005EB4610D0F8001906EBC600A7
:1022D00004EB8002107E012808D1002906DAF0B252
:1022E00040F08001D7752046FFF7AAFC761C2079C4
:1022F000B042E7D82068416901F48011416120684B
:1023000004F0AAFF800234D501204A4629E000BF2C
:1023100005EB4011D1F8001B00EBC00304EB830375
:1023200093F85862012E1BD1002919DA94F8D4646D
:1023300001F4803106F00106B14211D183F8572231
:10234000A96941F08003AB616969090608D4D5F831
:10235000040840F40070C5F8040805E00A30544F42
:10236000401C21798142D3D82068416901F40011D1
:102370004161206804F070FF400007D52046FFF758
:1023800044FC2068416901F080414161206804F00B
:1023900063FF40070AD520684568680702D52046D4
:1023A000FFF74AFC2068416829434160BDE8FC9F73
:1023B000D0F8E00403F0EFBFD0F8E00403F0FFBF73
:1023C000F8B5040005D094F895042668002510B1EE
:1023D00006E00120F8BD84F89454204600F056F839
:1023E000032084F89504B6F1A04F00D1A5712068B0
:1023F00004F0C4FC207C8DF8000094E80F0004F089
:102400001DFB0226B8BB0021206804F048FF90BBEA
:10241000002001270DE000BF00EBC00104EB8101AB
:102420004F750875C8850D76CD610D62401CC0B230
:102430004D6221798142EFD8002011E000EBC0010C
:1024400004EB810181F8555281F8540281F8585209
:10245000C1F85C52C1F86052401CC0B2C1F864526D
:1024600021798142EAD8207C8DF8000094E80F00A1
:1024700004F0C6FB10B184F89564AAE7657484F88B
:102480009574206804F0AEFB0020F8BD10B586B04E
:10249000044614216846FDF7E5FE2068B0F1A04F20
:1024A0002FD119480021026842F001020260006841
:1024B00000F0010005904FF4C05000900220CDE9DB
:1024C0000101032003900A20049069460F48FEF79B
:1024D00065FF0D48001D016841F0800101600A4858
:1024E0001430016841F4804101600068002200F46A
:1024F0008040059011464320FFF72EFB4320FFF755
:102500001DFB06B010BD0000303802400000024044
:1025100070B50446C0790125022801D0FEF7C5FB3D
:102520002946D4F8E00403F0B8FFD4F8E004BDE88D
:10253000704003F06DBFD0F8E00403F097BFD0F80F
:10254000E00403F09DBF10B5044690F89404012800
:102550000AD0012084F894046174206804F0CDFE50
:10256000002084F8940410BD022010BDD0F8E024AF
:1025700000F29C41104603F09CBF10B50446006871
:1025800094F89414012909D0012184F89414C168A5
:10259000490609D5617B012902D005E0022010BD62
:1025A000816B41F480318163206804F0DCFD206898
:1025B00004F00AFB002084F8940410BD10B5044612
:1025C000D0F8E00403F0B7FF2068D0F8001E41F017
:1025D0000101C0F8001EE07A002804D0024801681A
:1025E00041F00601016010BD10ED00E00146002041
:1025F000012908D11149096811F4000104D0B1F58D
:10260000000F00D10E4870470C48001F0168006899
:10261000490200F03F0001D50A4900E00A49074A93
:10262000B1FBF0F07C321168C1F3881141431068AE
:10263000C0F30270B1FBF0F07047000008380240B0
:102640000080BB0000127A000024F4002DE9F8435A
:10265000044600684FF00109C1074FF0000601D1A0
:10266000400727D5DFF81C81C8F86860FEF78CFFAB
:102670000746454D05E000BFFEF786FFC01B022858
:1026800057D828680001F7D460688101207A41EAB0
:1026900000703D4984310860C8F86890FEF774FF07
:1026A000074604E0FEF770FFC01B022841D82868E7
:1026B0000001F7D52078800752D5334840300168B3
:1026C00041F0805101600068304D00F08050009072
:1026D000286840F480702860FEF756FF074604E043
:1026E000FEF752FFC01B022823D82868C005F7D583
:1026F000254D7035286810F4407020D0A18901F470
:10270000407181421BD0286820F440712048C0F8F5
:102710000090066029602868C00710D0FEF734FFDB
:10272000064641F2883707E0FEF72EFF801BB842CD
:1027300002D90320BDE8F88328688007F4D5E16852
:102740001148C1F301220830032A12D0016821F494
:10275000F81101602868A189C1F30B0108432860C2
:102760002078000703D50B49207CC1F8E001002048
:10277000E0E70268084B22F4F81219400A430260AD
:10278000E8E70000000047420038024000700040C7
:10279000400E474200104742FFFCFF0F2DE9F04773
:1027A0000E46050065D0DFF81481D8F80000F7B2B6
:1027B00000F00700B04207D288F80070D8F8000097
:1027C00000F00700B04254D128683D4C810712D573
:1027D000400703D5206840F4E050206028780007C7
:1027E00003D5206840F4604020602068A96820F08C
:1027F000F000084320602878C0072DD03049686871
:102800000839012812D0022813D0032811D00968F2
:10281000890700292DDA216821F003010143216095
:10282000FEF7B2FE814641F2883A0EE0096889035C
:10283000EFE709688901ECE7FEF7A6FEA0EB0901C6
:10284000514502D90320BDE8F0872068696800F08F
:102850000C00B0EB810FEFD1D8F80010404601F02A
:102860000701B14207D90770006800F00700B042C5
:1028700001D00120E7E72878400705D52068E968FE
:1028800020F4E050084320602878000706D520682F
:10289000296920F4604040EAC100206000F03EF861
:1028A0002168084AC1F30311515CC8400649086019
:1028B00006480068FFF70AF90020C4E7003C024020
:1028C00008380240649200080C0000200400002038
:1028D00001480068704700000C00002004480549CA
:1028E00000680968044AC1F38221515CC8407047FE
:1028F0000C00002008380240749200080448054982
:1029000000680968044AC1F34231515CC84070470D
:102910000C0000200838024074920008154810B5D9
:10292000006810F00C02144813D04110042A0FD094
:10293000082A0ED10F4C241F2268236802F03F02A0
:102940005B0207D52068C0F38810A0FB010106E0F8
:10295000084610BD2168C1F38811A1FB00010023C6
:10296000FDF736FC2168C1F30141491C4900B0FB69
:10297000F1F010BD083802400024F4002DE9F84FB2
:1029800004006ED02078DFF84C93C007A9F104054D
:102990004AD009F104000168C1F38101012908D07E
:1029A0000068C0F3810002280AD1D9F80000400273
:1029B00006D52868800337D560680028E1D033E069
:1029C0006068B0F5803F10D0B0F5A02F286810D017
:1029D00020F480302860286820F480202860606817
:1029E000A8B1FEF7D1FD06460DE0286840F480301E
:1029F000F4E740F480202860F7E700BFFEF7C4FD4D
:102A0000801B642873D828688003F7D50CE0FEF794
:102A1000BBFD064605E000BFFEF7B6FD801B64283F
:102A2000F0D828688003F7D42078DFF8AC828007DC
:102A30004FF0000A3ED5A748001D016811F00C0FA9
:102A400008D00068C0F3810002280BD1D9F800003B
:102A5000400207D42868800716D5E068012800D115
:102A600012E033E1E068B8B10120C8F80000FEF7D9
:102A70008BFD064605E000BFFEF786FD801B0228A1
:102A8000C0D828688007F7D52868216920F0F800A9
:102A900040EAC10028600DE0C8F800A0FEF774FD10
:102AA000064604E0FEF770FD801B02281FD8286848
:102AB0008007F7D42078000722D5864F87486169C0
:102AC000703771B101210160FEF75EFD064604E03A
:102AD000FEF75AFD801B022809D838688007F7D511
:102AE0000EE0C0F800A0FEF74FFD064605E082E0CC
:102AF000FEF74AFD801B02287DD838688007F7D48E
:102B00002078400768D5DFF8CCB100270BF13C0BEB
:102B1000DBF80000C0000BD4DBF8001041F080515E
:102B2000CBF80010DBF80000012700F08050009087
:102B30006B4E3068C00510D4306840F4807030604F
:102B4000FEF722FD009005E0FEF71EFD0099401AF9
:102B5000022850D83068C005F6D55E4EA0686C36A5
:102B600001280FD00528306810D020F00100306017
:102B7000306820F004003060A068B8B1FEF704FDB2
:102B800000900FE0306840F00100F4E740F00400EE
:102B90003060F7E7FEF7F8FC0099411A41F28830FF
:102BA000814266D830688007F4D50EE0FEF7ECFC71
:102BB000009007E0FEF7E8FC0099411A41F28830E6
:102BC000814256D830688007F4D42FB1DBF800106A
:102BD00021F08051CBF80010A069C8B33D49091D10
:102BE0000968C1F3810102294AD00228504607D062
:102BF000C8F8600000E03CE0FEF7C6FC04463BE09D
:102C00004746C8F86000FEF7BFFC064605E000BF77
:102C1000FEF7BAFC801B02282BD828688001F7D465
:102C2000D4E907010843A16A2E4A490802EB014191
:102C3000626A41EA8211084394F82C1040EA01616B
:102C4000C9F8001001203866FEF79EFC044606E035
:102C50003EE000BFFEF798FC001B022809D8286858
:102C60008001F7D534E000BFFEF78EFC001B022880
:102C700002D90320BDE8F88F28688001F4D427E04A
:102C80000128F7D0D9F80000E26900F480019142F0
:102C90001CD1226A00F03F01914217D147F6C07162
:102CA000626A0140B1EB821F10D1A26A4FF0FF337C
:102CB00000F4403103EB5202B1EB024F06D194F81D
:102CC0002C1000F07060B0EB016F01D00120D1E753
:102CD0000020CFE70438024000004742800E474200
:102CE000007000400000FFFF704700002DE9FE4328
:102CF0000446002603200D4684F83400606C032847
:102D00005ED0B5F5805F5BD04FF4006700204FF0D8
:102D10008068BD421FD1814600900190002120684B
:102D200001F0C0FE800113D46946204602F0CEF9BE
:102D300007000DD10198400334D5B4F850000104C8
:102D4000206801F0E7FE070002D10221206823E09D
:102D5000A06B384328E01DB1A06B40F0006023E079
:102D60008146009001900021206801F09BFE8001C7
:102D7000EED46946204602F0A9F90700E8D101988F
:102D8000C0030FD5B4F850000104206801F0C2FE62
:102D90000700DDD10021206801F009FF0700D7D12D
:102DA0004F46D5E74746D3E7A063A06B144F4FF0DB
:102DB000010848B12068876384F8348001260EE05A
:102DC000A06B40F08050EFE7211DD4E9050C0EC93F
:102DD000CDE90050CDF808C0206801F06DFE4FF439
:102DE0000071206801F0CAFE28B121688F63A16BD1
:102DF0000143A163012684F834803046BDE8FE8398
:102E0000FF05400070470000F0B5426E920F0A7057
:102E1000426EC2F383624A70426EC2F301628A70EC
:102E2000426E120CCA70B0F86420120A0A7190F84F
:102E300064204A71826E120DCA80826EC2F3034210
:102E40000A72B0F86820C2F3C0324A72B0F8682043
:102E5000C2F380328A72B0F86820C2F34032CA727C
:102E6000B0F86820C2F300320A7300264E73426C39
:102E70004FF40075012462B1012A3AD00268474933
:102E80009163816B41F08051816380F8344001206F
:102E9000F0BDB0F86820C36E9205120D42EA93723D
:102EA0000A61C26EC2F3C2620A75C26EC2F30262E6
:102EB0004A75C26EC2F342528A75C26EC2F3824232
:102EC000CA75C26EC2F3C2320A760A69521C4265E2
:102ED0000B7E03F007039B1C9A4042650B7A03F0BC
:102EE0000F0704FA07F383655B0A5A43C0E9172505
:102EF0000EE090F86820C36E9206920A42EA1342EE
:102F00000A610A69521C92024265C0E916520566BE
:102F100030F86C2FC2F3803201F8192F0288C2F307
:102F2000C6124A70027802F07F028A704268D20F9D
:102F3000CA704268C2F341720A714268C2F3826287
:102F40004A714268C2F383528A714268C2F34052A6
:102F5000CA710E724268C2F300424A728288C2F39A
:102F6000C0328A728288C2F38032CA728288C2F307
:102F700040320A738288C2F300324A738288C2F3F5
:102F800081228A738288C2F30122CA730079C0F356
:102F9000460008744C740020F0BD0000FF0540009E
:102FA00070B50446B0F8500000250104206801F017
:102FB000B4FE18B1A16B0143A16304E000212068B5
:102FC00001F070FD0546C5F3432070BDF8B5056BF3
:102FD00004460068416B09041BD5290719D5D4E9BB
:102FE0000A56002E14D00027206801F07BFD05F85A
:102FF000010B010A05F8011B010C05F8021B000E6C
:10300000361F7F1C05F8010C082FEDD3C4E90A56C2
:10301000F8BD416B4FF00006C9054FF0010744D5DC
:10302000390281632068C16B4CF23A329143C1632B
:103030002068C16A21F00101C16228071DD515F081
:10304000220F09D0206801F099FE28B1A16B01433D
:10305000A1632046FFF7D6FE216840F23A5088630C
:1030600084F834702663A80703D0204600F0AEF938
:10307000F8BD204600F0ABF9F8BD2806FCD5A8063F
:1030800009D5206801F07AFE28B1A16B0143A16344
:103090002046FFF7B7FEA807EED12068C16A21F0ED
:1030A0000801C16284F83470E3E7416B490424D518
:1030B000290722D5D4E90856002EDDD05FF000079D
:1030C00015F8010B009015F8011B361F40EA01208E
:1030D000009015F8021B40EA0140009015F8011C11
:1030E00040EA016000906946206801F00EFD7F1CF7
:1030F000082FE5D3C4E90856F8BD416B40F23A22E7
:103100001142F9D0416B890703D5A16B41F002014F
:10311000A163416B090703D5A16B41F00801A163CD
:10312000416B890603D5A16B41F02001A163416B7E
:10313000C90603D5A16B41F01001A163416B89055C
:1031400003D5A16B41F00801A16340F23A7181639C
:103150002068C16B40F23A329143C163206801F0AC
:103160000DFEA16B0843A063280706D584F83470D0
:1031700026632046FFF746FEF8BD2806FCD515F06D
:10318000300F0CD0E16B11480865E06BFDF770FF64
:103190000028F1D0E06BBDE8F84001F075BFA8074A
:1031A0000CD0216C0A480865206CFDF761FF0028EF
:1031B000E2D0206CBDE8F84001F044BFA66384F87B
:1031C000347026632046FFF78FFDF8BD8950000854
:1031D0004550000870B504000ED094F83400002566
:1031E00018B92577204600F04FF8032084F8340002
:1031F000204600F00BF808B1012070BDA5632563DF
:10320000012084F83400002070BD0000FEB50025C8
:10321000044676200095CDE9015029460B460A4622
:10322000206801F049FC48BB154E46F8A05F2068B5
:1032300001F054FC012535600220FEF79DF8204680
:1032400002F02CF830B100BF84F83450A16B014378
:10325000A16313E0204601F0A9FF0028F4D14FF448
:103260000071206801F08AFC002808D02268054916
:103270009163A16B0143A16384F834500120FEBD2A
:1032800000802542FF0540002DE9F04F87B005463C
:1032900014216846FCF7E6FF4649286888427DD13C
:1032A00045480068444940F400600860086800F43C
:1032B000006005904048143800683F4940F0040021
:1032C00014390860086800F004000590086840F0B0
:1032D000080008600868022400F0080005904FF418
:1032E000F850CDE9000402AA002003264FF00C0894
:1032F00082E8410169463148FEF750F802AA0020F1
:1033000082E841010427CDE9007469462C48FEF7A4
:1033100045F82D4C2B484FF00068C4E90008002008
:103320004FF48069A060C4E90309B8024FF4804BF0
:10333000C4E9050BC4E909764FF0200A0020C4E96E
:1033400007A07E05B7102046C4E90B67FDF772FFA2
:1033500008B1FDF7AAFC2C64A5631B4C1948603426
:103360004830C4E900084020A0600020C4E90309F7
:10337000C4E907A00420606204F12802032082E867
:10338000C1004FF48051C4E9051B2046FDF752FFF0
:1033900008B1FDF78AFCEC63002200E007E002219F
:1033A0003120A563FEF7D8FB3120FEF7C7FB07B03D
:1033B000BDE8F08F002C0140443802400008024074
:1033C000000C024058640240C80400207047704757
:1033D000704770B5040009D0606A002540B12561CE
:1033E0006561A56294F8510040B10CE0012070BD08
:1033F0006068B0F5827FF4D0E561F2E784F8505060
:10340000204600F045F8022084F851002068016849
:1034100021F040010160A088218900F4827001F44C
:1034200004410843A18901F400610843217C01F0B3
:1034300002010843217D01F001010843218B01F4C1
:1034400000710843217F01F03801084394F82010EF
:1034500001F080010843218D01F4005108432168E7
:103460000860A069042101EA104094F8241001F0DA
:1034700010010843216848602068C16921F4006197
:10348000C1616565012084F85100002070BD000015
:103490002DE9F04186B0064614216846FCF7E2FEAD
:1034A0002C493068884251D12B480024016841F4EE
:1034B00080510160006800F480500590264814385F
:1034C000016841F0010101600068694600F00100F7
:1034D0000590E0200090022001900120029003203E
:1034E0000390052004901D48FDF758FF1D4D1C4812
:1034F0004FF0C0672860C5E901744FF48068C5E9E2
:1035000003486C61AC61EC612C6228466C62FDF78B
:1035100091FE08B1FDF7C9FBF564AE63114D10488B
:1035200060357830E5E802074020A5E811010D4834
:1035300045F814496030AC61EC612C626C62FDF7B7
:1035400079FE08B1FDF7B1FBB564AE6306B0BDE826
:10355000F081000000300140443802400000024089
:1035600010640240E005002070B5044690F8510058
:10357000012829D1A068042318B96568B5F5827FB0
:1035800017D0F9B1F2B194F85050012D1CD001259B
:1035900084F8505084F8513000256565A163A287F6
:1035A000E28725646564A586E586B0F5004F0DD0F9
:1035B00016E084F851302046BDE8704013460A46B4
:1035C00000F046B8012070BD022070BD206801687F
:1035D00021F0400101602068016821F48041016010
:1035E000E16C17480864E16C1648C863E16C164842
:1035F000C864E06C0565E38F2168A26B0C31E06C58
:10360000FDF782FE30B1606D40F01000606584F817
:103610005050D7E720680168490603D4016841F09B
:103620004001016084F850502068416841F0200159
:1036300041602068416841F001014160002070BD97
:1036400073530008915300085153000870477047A6
:1036500070B5044690F851006568012806D0B5F5AC
:10366000827F3AD1A568A5BB042836D191B38AB32D
:1036700083B394F8500001282FD0012084F8500023
:1036800094F85100042802D0052084F85100002548
:1036900065652163A386E386A263A387E387256428
:1036A000656494F85100042819D0E16C2748086437
:1036B0002748E16CC863E16C2648C864E06C056586
:1036C000E38F2168A26B0C31E06CFDF71DFE00BB9F
:1036D0000AE002E0FFE7012070BD022070BDE16C4E
:1036E0001D4808641D48E4E72068416841F0010175
:1036F0004160A06C0564A06CC563A06CC564A06C3F
:103700000565E38E2268216B0C32A06CFDF7FCFD91
:1037100030B1606D40F01000606584F85050DAE719
:1037200020680168490603D4016841F04001016046
:1037300084F850502068416841F0200141602068C1
:10374000416841F002014160002070BD87530008CC
:103750005F54000851530008735300089153000848
:1037600070B5044690F8510001281CD1C9B1C2B10E
:1037700094F85000012816D0012084F8500003204E
:1037800084F85100002565652163A286E286A56361
:1037900065642564A587E587A068B0F5004F04D06F
:1037A0000DE0012070BD022070BD2068016821F08D
:1037B000400101602068016841F480410160A16C12
:1037C00017480864A16C1748C863A16C1648C86400
:1037D000A06C0565E38E2268216B0C32A06CFDF7AE
:1037E00093FD30B1606D40F01000606584F850507A
:1037F000D7E720680168490603D4016841F0400119
:10380000016084F850502068416841F02001416017
:103810002068416841F002014160002070BD000055
:103820007D530008FB530008515300087047704750
:103830007047704710B5401EB0F1807F01D3012062
:1038400010BD4FF0E02460610F21601703F05EFEB1
:103850000020A06107202061002010BD7047704744
:1038600070B590F83C20012A2CD0012480F83C400F
:10387000022280F83D2003685A689D6822F0700695
:103880000A6832435A60104B02689A420ED0B2F175
:10389000804F0BD00D4B9A4208D00D4B9A4205D069
:1038A0000C4B9A4202D00C4B9A4204D1496825F045
:1038B00080031943916080F83D40002180F83C105E
:1038C000084670BD022070BD0000014000040040A9
:1038D00000080040000C00400040014010B504000A
:1038E00003D094F83D0010B107E0012010BD002086
:1038F00084F83C00204600F01FF8022084F83D00C8
:10390000211D206801F0FEFE012084F8460084F8A5
:103910003E0084F83F0084F8400084F8410084F8B9
:10392000420084F8430084F8440084F8450084F899
:103930003D00002010BD000008B501681448B1F139
:10394000804F14D0134A914220D1016841F0020106
:1039500001600068002200F00200009001211D209B
:10396000FEF7FAF81D20BDE80840FEF7E7B8016849
:1039700041F0010101600068012200F001000090A7
:1039800000211C20FEF7E8F81C20ECE708BD000031
:10399000403802400004004090F83D10012901D059
:1039A00001207047022180F83D100168CA6842F08A
:1039B0000102CA6000680E4988420ED0B0F1804F03
:1039C0000BD00C49884208D00B49884205D00B49DE
:1039D000884202D00A49884204D1816801F0070177
:1039E000062903D0016841F0010101600020704701
:1039F000000001400004004000080040000C0040AE
:103A00000040014070B5044690F83C0000250128B4
:103A100017D0012684F83C60022084F83D0020681D
:103A2000826822F0770222F47F4282600868502880
:103A300038D00DDC20284FD005DC90B3102811D1F0
:103A40004AE0022070BD302846D040280AD13BE031
:103A500060282FD070280DD0B0F5805F03D0B0F56E
:103A6000005F12D0012584F83D60002084F83C00FE
:103A7000284670BDCB68D1E90121206801F094FE91
:103A80002068816841F0770109E0CB68D1E9012124
:103A9000206801F089FE2068816841F480418160DE
:103AA000E1E719E0CA684968206801F08FFE5021FB
:103AB000206806E0CA684968206801F098FE602125
:103AC000206801F07BFECEE7CA684968206801F0F3
:103AD0007DFE40212068F4E7226801461046F0E7A9
:103AE00070472DE9F04104460068C66805694FF04B
:103AF0000007A90713D5B10711D5F91E01610120EF
:103B00002077206880698007204602D0FFF7E8FF11
:103B100004E000F07EF8204600F07CF82777680784
:103B200016D5700714D521686FF0040008610220D3
:103B300020772068806910F4407F204602D0FFF78C
:103B4000CFFF04E000F065F8204600F063F8277727
:103B5000280715D5300713D521686FF008000861D4
:103B6000042020772068C0698007204602D0FFF734
:103B7000B7FF04E000F04DF8204600F04BF827773F
:103B8000E80616D5F00614D521686FF0100008611C
:103B9000082020772068C06910F4407F204602D0BA
:103BA000FFF79EFF04E000F034F8204600F032F802
:103BB0002777E80708D0F00706D021686FF00100EA
:103BC0000861204600F027F8280608D5300606D5FB
:103BD00021686FF0800008612046FFF73FFE68060D
:103BE00008D5700606D521686FF0400008612046B0
:103BF00000F012F8A8060AD5B00608D521686FF0C3
:103C0000200008612046BDE8F041FFF728BEBDE86E
:103C1000F081704770477047704770B5040004D05A
:103C200094F84100002510B106E0012070BD84F831
:103C30004050204600F024F8242084F841002068F9
:103C4000C16821F40051C160204601F0E3FD206805
:103C5000016921F4904101612068416921F02A0144
:103C600041612068C16841F40051C1606564202051
:103C700084F8410084F842006563002070BD0000B4
:103C80002DE9F04387B0064614216846FCF7EAFAAE
:103C90002E493068884256D12D480024016841F0F1
:103CA00010010160006800F01000059028481438E9
:103CB000016841F001010160006801A900F0010004
:103CC00005904FF4C060009002204FF0030981E896
:103CD00011020720049069461E48FDF75FFB1F4D47
:103CE0001D484FF000672860C5E901744FF48068F3
:103CF000C5E903486C61AC61EC612C6228466C62DA
:103D0000FDF798FA08B1FCF7D0FFF563AE63134DE9
:103D1000114860357830E5E802074020A5E8110138
:103D2000042045F81449AC61EC61C5E90840C5E9D7
:103D30000A940A482C636030FDF77CFA08B1FCF75E
:103D4000B4FFB563AE6307B0BDE8F0830010014077
:103D500044380240000002404064024078070020DE
:103D6000FEE7000070B515490268154B4FF040247E
:103D70008A4201D11A4600E02246D568C26A961CE2
:103D8000C6621580428E521E4286428E002A14D18F
:103D900002688A4201D1194600E02146496821F0B3
:103DA000600100D023465960418D002905D14FF0B4
:103DB000010180F84110FDF7E7FC70BD00380040BC
:103DC0000034004070B5416A144B8A1C4262056899
:103DD0000988134A4FF040249D4201D1154600E066
:103DE0002546E960418D491E4185418D002914D148
:103DF0000168994201D1114600E02146496821F04D
:103E0000A00100D022465160418E002905D14FF01B
:103E1000010180F84110FDF7B7FC70BD003800408B
:103E20000034004010B5806B01684A6822F003023C
:103E30004A60002141854186012180F84110416C92
:103E400041F008014164FDF7A0FC10BD10B501462A
:103E5000806BC96949B901684A6822F002024A6068
:103E600000214185012180F84110FDF70BFE10BDB6
:103E700010B5806BFDF707FE10BD7CB501680446E8
:103E80008868009094F841000125042834D10098F6
:103E9000C00718D04868C043400614D4C9682046FB
:103EA000E26A1180E16A891CE162618E491E6186C5
:103EB000618E41B901684A6822F060024A6080F868
:103EC0004150FDF77DFD0098400615D520684168FA
:103ED000C943890610D4416821F06001416020681F
:103EE000C1688068019084F84150606C40F0020025
:103EF00060642046FDF749FC94F84100032834D162
:103F00000098800719D521684868C043000614D47A
:103F1000626A20461288CA60616A891C6162618D8A
:103F2000491E6185618D41B901684A6822F0A0028D
:103F30004A6080F84150FDF7A5FD0098000714D5B0
:103F400020684168C94389060FD4416821F0A00167
:103F5000416020688068009084F84150606C40F0B7
:103F6000040060642046FDF710FC7CBDF0B5002322
:103F70000A24302537261F4611E000BFB4EB107F1E
:103F800002D905EB107C01E006EB107C01F813C0B0
:103F900001EB430C00015B1C8CF80170DBB2934217
:103FA000ECD3F0BD38B50E4D044600221021284652
:103FB000FDF7E4FA012211462846FDF7DFFA200A50
:103FC0008DF800008DF80140022269460548FFF790
:103FD000C7FB012210212846FDF7D0FA38BD0000AA
:103FE000000802408805002070B50446EF23002138
:103FF000F8B01A46084600F03BF82C2000F080F894
:104000004FF4F075F92229466846FCF724F900239D
:104010006846210A5FFA84F200F8131000EB4304AB
:104020005B1C6270F02BF7D32E460F4D002400224C
:1040300010212846FDF7A2FA012211462846FDF775
:104040009DFA324669460948FFF78AFB782004F05A
:1040500043FC012210212846FDF790FA641CF02C45
:10406000E5D378B070BD000000080240880500204C
:104070002DE9F04107461C4615460E462A2000F061
:104080003FF8380A00F022F8F8B200F01FF8280ACA
:1040900000F01CF8E8B200F019F82B2000F030F81E
:1040A000300A00F013F8F0B200F010F8200A00F027
:1040B0000DF8E0B200F00AF8BDE8F0412C2000F065
:1040C0001FB80B460246FFF7D3BF000070B50B4C7C
:1040D0000546002210212046FDF750FA0122114624
:1040E0002046FDF74BFA284604F034FF2046BDE891
:1040F000704001221021FDF741BA00000008024083
:1041000070B50B4C0546002210212046FDF736FA0B
:10411000002201212046FDF731FA284604F01AFF5B
:104120002046BDE8704001221021FDF727BA0000AB
:10413000000802402DE9F04FADF6045D4FF44461F4
:104140006846FCF78FF860210DF54460FCF78AF8AB
:104150000027DFF830B1B9463D46EA4605EB451188
:104160000BEB810696F89120002A5BD0294646A0E9
:1041700005F062F85FF0000406EB040898F8100000
:10418000F0B3494896F892303022D0F800C021466A
:104190000DF54A60E04778B998F810302246294674
:1041A00042A005F049F8002188F8101096F8910017
:1041B00010B1401E86F8910007EB071101EB471282
:1041C0000AEB4201DFED3F0A98F8102000200DF5C0
:1041D0004A6C00BF00EE102A3CF91030B8EE400ADD
:1041E00080EE201A00EE103AB8EEC00A21EE000A66
:1041F000BDEEC00A10EE103A21F81030401C00E06D
:104200000CE0C0B23028E5D30120A1F860007F1C8B
:1042100096F89100FFB208B14FF00109641CE4B2B6
:10422000802CA9D36D1CEDB2102D97D300215446DC
:104230000DF5446219E000BF01EB011000EB4110E5
:1042400004EB4003B3F9600000280CDD5FF00000D0
:1042500033F8105032F81060354422F81050401CEA
:10426000C0B23028F4D3491CC9B2B942E4D3B9F181
:10427000000F03D014480169104688470DF6045D0D
:10428000BDE8F08F182200206368616E6E656C20B7
:10429000256420706C617920636F756E742069737A
:1042A0002025640A00000000740100202073746F50
:1042B000702025642025642076656C206973202594
:1042C000640A00000000FE425C0100204FF404611B
:1042D0000148FBF7C7BF0000282200202DE9F0416C
:1042E000074600780609042910D2094D002400BFB2
:1042F00015F83400B04205D105EBC4000421426832
:1043000038469047641CE4B2052CF1D3BDE8F08137
:10431000A80100207FB5002123480091019102915E
:10432000204A0391C0E900210124046181600176E3
:1043300080F820101D4AC0E90A210425C561C1602A
:1043400080F830104461FCF739FE08B1FCF7ADFC91
:1043500005200094CDE9014069461348FCF788FD2B
:1043600008B1FCF7A2FC02200090019069460E48BB
:10437000FCF77EFD08B1FCF798FC0320009001904B
:1043800069460948FCF774FD08B1FCF78EFC0095FE
:10439000694605480195FCF76BFD002801D0FCF744
:1043A00084FC7FBD00200140540300200100000F69
:1043B000254808B5016841F480010160016801F4F5
:1043C00080010091016841F4001101600068002241
:1043D00000F40010009011460F20FDF7BDFB0F20E8
:1043E000FDF7ACFB002202213820FDF7B5FB382099
:1043F000FDF7A4FB002202213A20FDF7ADFB3A2095
:10440000FDF79CFB002202213B20FDF7A5FB3B2092
:10441000FDF794FB002211464420FDF79DFB44204C
:10442000FDF78CFB002211464520FDF795FB45204A
:10443000FDF784FB002211464620FDF78DFBBDE809
:1044400008404620FDF77ABB303802402DE9F043A2
:1044500087B014216846FBF705FF33480024016844
:1044600041F004010160016801F004010591016857
:1044700041F080010160016801F08001059101684F
:1044800041F001010160016801F00101059101683D
:1044900041F002010160016801F00201059101682B
:1044A00041F0080101600068DFF8808000F008003A
:1044B0000590012242F20E014046FDF75FF800220E
:1044C00011214046FDF75AF80122DFF864901702E7
:1044D00039464846FDF752F842F2020000900125A5
:1044E000CDE90154694640460394FCF757FF1D206F
:1044F0000326CDE90005CDE9024669464046FCF7B2
:104500004DFFA803CDE9000469460A480294FCF770
:1045100045FF00970396CDE9015469464846FCF7EC
:104520003DFF07B0BDE8F08330380240000802408C
:1045300000000240000402400D4810B50B49016024
:1045400049154160002181604BF68032C160C0E9AD
:1045500004120822C0E906210162FDF71BF90028B8
:1045600003D0BDE81040FCF7A0BB10BD00380040F0
:104570009C0300200E4810B50C49016000214160E9
:104580008160C160016141618161FEF723FE08B174
:10459000FCF78BFB4FF400610548FEF7A7FB0028F2
:1045A00003D0BDE81040FCF780BB10BD002C0140DB
:1045B000440400200F4810B50D4901604FF482718A
:1045C000416000218160C1604FF400720161C0E967
:1045D0000512C1610162416281620A21C162FEF776
:1045E000F8FE002803D0BDE81040FCF75EBB10BD0C
:1045F000003001408805002010B586B0002417481F
:104600000094019402940394049413490594016066
:104610002321C0E9011440F2E731C0E903148461A9
:10462000FFF75CF908B1FCF740FB4FF480500090B5
:1046300069460A48FFF7E6F908B1FCF736FB04942F
:1046400004A906480594FFF70BF9002801D0FCF7F0
:104650002CFB06B010BD000000040040E80600205E
:104660000C4810B50A4901604FF4E1314160002166
:1046700081600C22C160C0E904128161C161FFF751
:10468000CCFA002803D0BDE81040FCF70EBB10BDEB
:10469000001001403007002010B500220F491048DB
:1046A00001F05EFD08B1FCF700FB0E490C4801F07B
:1046B0006EFF08B1FCF7F9FA0B49094801F0F8FA66
:1046C00008B1FCF7F2FA064801F0E4FF002803D035
:1046D000BDE81040FCF7E9BA10BD00001000002052
:1046E00038080020CC00002060000020FEE7000019
:1046F00010B5027802F00F04FCF73CF9044A04EB11
:10470000441102EB8101012081F8930010BD0000EB
:1047100018220020FEE70000F0B50178102401F017
:104720000F0101EB41120B4901EB820393F8915009
:1047300045B1467804EB82070E44F65D16B16D1E56
:1047400083F8915040780023084404EB82014354DD
:10475000F0BD0000182200202DE9F05F0646007829
:10476000DFF8189100F00F004FF0000A00EB40173F
:1047700055464FF0100B09EB87044CE094F893304A
:10478000012B09D194F890C00BEB8701CC44002396
:104790000CF8013084F8913094F89210012301EB69
:1047A000410202EBC10C282101EB8C0196F801803B
:1047B000425805EB450103EB810E12F80E304345DC
:1047C00027D1042303EB810396F80280D35C98453C
:1047D0000BD3082303EB81014FF0010A5258242127
:1047E00001EB8C01405840F82520254894F89210A0
:1047F000006A01EB410303EBC1032421826A01EB50
:104800008301405812F80E2050F825101DA004F026
:1048100013FD6D1CEDB21A4A94F892C049460CEB98
:104820004C0303EBCC03106A4FF0160C0CEB830324
:10483000C35AAB42A2D8084694F89110FF290FD270
:10484000727813180BEB87029A5C4AB9BAF1010F20
:1048500006D194F89320012A0DD0491C84F89110B8
:104860007278B17802440BEB87001154707884F8A9
:104870009000BDE8F09F0121F0E700001822002021
:10488000740100207265706C6179202564202564B4
:104890000A0000000148FDF7DDBA000034190020CD
:1048A0002DE9F04103680D4604461E6C03EB4511EB
:1048B000D1F8080B94F806E04FF400474FF0200CB5
:1048C00004F29C42BEF1010F09D0DFF898E0764572
:1048D00039D1020432D500BFC1F8087B3FE0224B3A
:1048E0005FEA007E04D59E4239D90004F4D436E054
:1048F0005FEA806E02D5C1F808CB30E010F0280FD7
:104900002DD19E4201D90004E6D405EBC50004EB8D
:104910008000D1F8101BD0F87432C1F31201591A7B
:10492000C0F8681200F51570ADB903691BB1C26813
:104930001144C1600FE0012120680AE080060AD519
:10494000C1F808CB07E035B9D4F8640218B90021E2
:10495000184602F019FAE9B22046FDF763F9002083
:10496000BDE8F0810A31544F0A30544F2DE9F84F19
:104970000E4601EBC60100EB810481460568D4E9CF
:1049800009101434884202D90120BDE8F88F081AB2
:10499000A168814200D20846C01C870805EB461872
:1049A0001BE000BFA0EB010AA068504500D2824680
:1049B0000AF10300870899F8060000901FFA8AF3AD
:1049C000F2B22846E16802F01DFDE16801EB0A0041
:1049D000E060616901EB0A006061D8F8180980B2F3
:1049E000B84205D3D4E90401814201D20028D9D1CB
:1049F000D4E90401884208D806F00F01012088405C
:104A0000D5F834188143C5F834180020BDE7704745
:104A100010B504460648FCF7B9FE012806D1214628
:104A2000BDE8104004220248FCF7CCBF10BD0000D6
:104A30009C0300200078054A00F00F0000EB4010B6
:104A400002EB8000002180F89310704718220020AC
:104A500070B50446007800F00F052046FBF78AFF8A
:104A6000044A05EB451102EB8101607881F8920060
:104A700070BD0000182200200A6842624A68826203
:104A8000D1E902231A43D1E904310B43C16A1A4325
:104A900021F0F7011143C16200207047006800F067
:104AA0000300704708444069704700000148FEF762
:104AB0008DBA00004404002070B50DF1100C1143B4
:104AC0009CE870002343194329434268314347F669
:104AD000FF639A430A434260002070BD03210160D6
:104AE00000207047D0F8800070470A688260D1E9E2
:104AF00001231A43D1E903310B43C1681A436FF311
:104B00000B011143C160002070470968C0F8801094
:104B10000020704710B585B004463720CDE900105D
:104B200040200290002003904FF48060049069467A
:104B30002046FFF7DAFF41F288323721204600F0A5
:104B400037F905B010BD000010B504460A4885B01D
:104B500001432920CDE9001040200290002003905D
:104B60004FF48060049069462046FFF7BEFF204660
:104B700000F0D6F905B010BD0000108010B585B06A
:104B800004461020CDE90010402002900020039040
:104B90004FF48060049069462046FFF7A6FF41F27B
:104BA00088321021204600F003F905B010BD10B581
:104BB00085B004460620CDE9001040200290002078
:104BC00003904FF48060049069462046FFF78DFF04
:104BD00041F288320621204600F0EAF805B010BD07
:104BE00030B585B000240546009401944FF48060F0
:104BF0000294CDE9034069462846FFF776FF0B484B
:104C00004FF4FA510068B0FBF1F041F288314843AB
:104C1000401E03D24FF0004005B030BD696B09065D
:104C2000F6D5C520A8632046F6E700000C0000205A
:104C300010B585B004464FF4D5700090082001905F
:104C400040200290002003904FF480600490694659
:104C50002046FFF74AFF204600F0C8F905B010BD16
:104C600010B585B004460720CDE900204020029011
:104C7000002003904FF48060049069462046FFF7BF
:104C800034FF41F288320721204600F091F805B048
:104C900010BD10B585B0044600210220CDE90010FA
:104CA000C020CDE902014FF480600490694620469F
:104CB000FFF71BFF204600F00BF905B010BD10B543
:104CC00085B004460920CDE90010C02002900020E4
:104CD00003904FF48060049069462046FFF705FF7B
:104CE000204600F0F5F805B010BD10B585B00446BB
:104CF00000213320CDE900104020CDE90201000160
:104D0000049069462046FFF7F0FE41F288323321D5
:104D1000204600F04DF805B010BD10B585B0044632
:104D20000D20CDE9001040200290002003904FF4A8
:104D30008060049069462046FFF7D7FE41F2883232
:104D40000D21204600F034F805B010BD30B585B017
:104D50000C46054600210320CDE900104020CDE996
:104D600002010001049069462846FFF7BEFE224674
:104D70000321284600F0F6F805B030BD10B585B027
:104D8000044600210C20CDE900104020CDE90201AD
:104D90000001049069462046FFF7A7FE034A0C2154
:104DA000204600F005F805B010BD000000E1F50553
:104DB000454B10B51B684FF4FA54B3FBF4F353435F
:104DC0005B1E02D24FF0004010BD426B12F0450F47
:104DD000F6D01205F4D4426B520703D50421816347
:104DE000084610BD426BD20702D00121816305E065
:104DF000C52282630269D2B28A4201D0012010BD6D
:104E00000021FFF74FFE3149084201D1002010BDBB
:104E1000002802DA4FF0007010BD410001D540209B
:104E200010BD810001D5802010BDC10002D54FF416
:104E3000807010BD010102D54FF4007010BD41011A
:104E400002D54FF4806010BDC10102D54FF400605F
:104E500010BD010202D54FF4805010BD410202D5B1
:104E60004FF4005010BD810202D54FF4804010BDB8
:104E7000C10202D54FF4004010BD410302D54FF4EA
:104E8000003010BD810302D54FF4802010BDC10356
:104E900002D54FF4002010BD010402D54FF480105C
:104EA00010BD410402D54FF4001010BD810402D59D
:104EB0004FF4800010BD000702D54FF4000010BD74
:104EC0004FF4803010BD00000C00002008E0FFFD12
:104ED00012494FF4FA520968B1FBF2F141F28832FB
:104EE0005143491E02D24FF000407047426B12F00E
:104EF000450FF6D01205F4D4416B490703D50421C0
:104F0000816308467047416BC90703D00121816363
:104F100008467047C5218163002070470C000020BF
:104F20000F494FF4FA520968B1FBF2F141F28832AD
:104F30005143491E02D24FF000407047426B12F0BD
:104F4000450FF6D01205F4D4416B490703D504216F
:104F5000816308467047C5218163002070470000C7
:104F60000C00002030B5204B4FF4FA541B68B3FB03
:104F7000F4F341F2883463435B1E02D24FF00040E9
:104F800030BD446B14F0450FF6D02405F4D4436BC8
:104F90005B0703D504218163084630BD436BDB0703
:104FA00002D00121816303E00369DBB28B4201D0AF
:104FB000012030BDC52181630021FFF773FD10F48E
:104FC000604F04D0410406D54FF4005030BD000CB2
:104FD0001080002030BD000402D54FF4805030BD59
:104FE0004FF4803030BD00000C00002014494FF415
:104FF000FA520968B1FBF2F141F288325143491E7D
:1050000002D24FF000407047426B12F0450FF6D0CD
:105010001205F4D4416B490703D504218163084686
:105020007047416BC90703D001218163084670476F
:10503000416B490601D54021816300207047000083
:105040000C00002010B5846B40F23A502168886350
:105050002046FDF7A5FF012184F8341000212163CB
:10506000062801D0052805D12068FFF787FEA16B2F
:105070000843A063A06B0028204602D0FDF7C2FEC3
:1050800010BDFDF731FE10BD10B5846B40F23A50F3
:10509000216888632046FDF783FF012184F83410DE
:1050A00000212163062801D0052805D12068FFF7DB
:1050B00065FEA16B0843A063A06B0028204602D0C8
:1050C000FDF7A0FE10BDFDF70FFE10BD2DE9F04766
:1050D00088B00D460446FCF757FA00268246009633
:1050E0000196374608212068FFF748FD00282CD19B
:1050F000B4F8500001042068FFF70CFD002824D10B
:10510000401E4FF00808CDE9020830204FF0020998
:10511000CDE904090120CDE9067002A92068FFF756
:10512000ABFC2068FFF7E1FD00280ED16F46206838
:10513000416B11F02A0F0BD0416B090702D4416B70
:1051400089051AD5C0F83880082008B0BDE8F08776
:10515000416B890205D5FFF7C5FC47F82600761C90
:1051600002E0416B8904E7D5FCF70EFAA0EB0A00D8
:10517000401CDCD14FF00040E7E7416B890703D5C5
:10518000C0F838900220E0E7416B890603D5202162
:1051900081630846D9E740F23A518163019800BA29
:1051A0002860009800BA68600020CEE710B590B083
:1051B00004460120ADF838002068FFF76FFC002896
:1051C00054D0606C032842D02068FFF762FD0028AD
:1051D0004AD100212068FFF765FC60670421206840
:1051E000FFF760FCA06708212068FFF75BFCE06721
:1051F0000C212068FFF756FCC4F88000606C03287F
:1052000025D00EA92068FFF7A1FD00282CD1606CE5
:1052100003281CD0BDF83800206501042068FFF782
:105220004EFD002820D100212068FFF73BFC60667E
:1052300004212068FFF736FCA06608212068FFF7EC
:1052400031FCE0660C212068FFF72CFC206704216C
:105250002068FFF727FC000DE06403A92046FDF756
:10526000D3FD30B14FF0805010B010BD4FF08060D2
:10527000FAE7B4F85000002302042068FFF7F0FCBE
:105280000028F1D104F1100007C88DE8070094E868
:105290000F00FFF711FC0020E6E700002DE9F84FB2
:1052A0000026044600963546B0460068FFF798FC95
:1052B000002827D12068FFF7BBFC4FF0805B4FF040
:1052C00001094FF6FF7748B1A6642068FFF788FC14
:1052D000002817D1A06C012802D020E0C4F8489023
:1052E00000212068FFF716FC58B918E0002120685B
:1052F000FFF710FC002805D151462068FFF724FC79
:1053000010B15846BDE8F88F00212068FFF7CAFBAE
:1053100005464FEAD0780098401C009002E0DFF884
:105320002CA00098B84202D2B8F1000FDED000984D
:10533000B84202D34FF08070E4E7680002D5C4F8A9
:10534000449000E066640020DCE70000000010C12B
:1053500010B5806B01684A6822F003024A60416D13
:1053600041F010014165012180F85110FEF730F83D
:1053700010BD10B5806BFEF76AF910BD10B5806BDB
:10538000FEF755FA10BD10B5806BFEF752FA10BD4E
:1053900070B50546846BFCF7F7F80246286800688C
:1053A000C00526D42068416821F020014160A06832
:1053B00018B96068B0F5827F16D02068416821F086
:1053C000010141606421204600F076F808B12020F8
:1053D00060650020E087012084F85100606D40B1D5
:1053E0002046FDF7F5FF70BD2068416821F00301FC
:1053F000E7E72046FEF72AF970BD38B50546846B0D
:10540000FCF7C2F8024628680068C00523D420686B
:10541000416821F0200141602068416821F00201CB
:1054200041606421204600F075F818B1606D40F0CD
:1054300020006065A068002118B92068C2688068F3
:105440000090E186012084F85100606D18B120467B
:10545000FDF7BEFF38BD2046FEF7E8F938BD70B550
:105460000546846BFCF790F8024628680068C00582
:105470001ED42068416821F020014160642120464B
:1054800000F048F818B1606D40F0200060652068B9
:10549000416821F0030141600020E086E08701209F
:1054A00084F85100606D18B12046FDF791FF70BD82
:1054B0002046FEF7BDF970BDF8B5044640684FF4CC
:1054C0008273984221D1A0684FF48065B0F5004FF7
:1054D00001D0A8420AD12068066826F0400606607E
:1054E0006068984211D1A068A8420ED000920B4685
:1054F00000228021204600F043F8002804D0606D8F
:1055000040F0200060650320F8BD00920B460022A9
:105510000121EFE7F8B515460E460B46009204460A
:105520000122022100F02CF8A0B9134813490068A9
:10553000B0FBF1F04FF47A71484300906068B0F529
:10554000827F0DD13346002280212046009500F055
:1055500017F870B1606D40F0200060650320F8BD61
:10556000009830B1401E009020688068C04300065B
:10557000F6D50020F8BD00000C00002000366E01BA
:105580002DE9F8431E46914688460446089DFBF7E0
:10559000FBFF401B351AFBF7F7FF0746254800685D
:1055A000C0F3CB30684338E0701C37D0FBF7ECFF1A
:1055B000C01BA84203D215B1009860B32CE020684C
:1055C000416821F0E00141606068B0F5827F0BD155
:1055D000A068B0F5004F02D0B0F5806F04D120680C
:1055E000016821F040010160A06AB0F5005F09D1B7
:1055F0002068016821F4005101602068016841F4CD
:1056000000510160012084F85100002084F850000E
:105610000320BDE8F8830025401E009020688168C3
:1056200038EA010004D000214945BDD10020F0E74F
:105630000121F9E70C00002070470178407841EA29
:10564000002070477047FCF71FBA000030B593B0D8
:1056500030216846FAF706FE14210CA8FAF702FE7C
:105660001C480024016841F080510160006800F08E
:10567000805011901848016821F4404141F40041E4
:1056800001600068022500F4404011900120009064
:10569000000401908001CDE9065004204821CDE9A5
:1056A00008010A9003200B906846FDF767F908B1DE
:1056B00072B6FEE70F200C90CDE90D540F94012136
:1056C0000CA81094FDF76AF8002801D072B6FEE726
:1056D00013B030BD403802400070004002480168FD
:1056E00041F470010160704788ED00E00148FEF769
:1056F000F8B90000A00600200148FEF7F2B900004A
:10570000E8060020F0B50268204B214C9F03214D94
:10571000214E984207D0B84205D0A04203D0A842FB
:1057200001D0B04204D122F0700C4A6842EA0C0267
:10573000984210D0B8420ED0A0420CD0A8420AD055
:10574000B04208D0154CA04205D0154CA04202D062
:10575000144CA04203D122F44074CA6822434C691D
:1057600022F08002224302608A68C2620A68826272
:10577000984201D109690163012141610169C907A9
:1057800003D0016921F001010161F0BD0000014079
:105790000004004000080040000C004000400140B0
:1057A000004401400048014010B5846842EA0322E9
:1057B00024F47F440A432243826010BD826822F0B1
:1057C00070020A4342F007018160704710B5036A16
:1057D000046A24F001040462846924F0F00444EAB9
:1057E000021423F00A020A438461026210BD10B55C
:1057F000036A046A24F010040462846923F0A0039D
:1058000024F4704444EA023243EA011182610162E5
:1058100010BD000070B5044600680169E26821F41B
:105820004051114301612169A068E269084361693F
:10583000114308432168CA6849F20C639A43024342
:10584000CA6020684169A26921F440711143416135
:1058500031492068884202D03049884202D1FDF7A0
:105860004DF801E0FDF73AF8E269002319216425BB
:105870003226B2F5004F626828D0A0FB0101930FD9
:105880009200FAF7A5FC0146B0FBF5F06FF01802A4
:10589000504301EB800006EB0010B0FBF5F000F088
:1058A000F002B1FBF5F002EB0012B1FBF5F06FF086
:1058B0001803584301EB800006EB0010B0FBF5F035
:1058C00000F00F0021681044886070BDA0FB01014A
:1058D00092185B41FAF77CFC0146B0FBF5F002013F
:1058E000B1FBF5F06FF01803584301EB800006EBB5
:1058F000C000B0FBF5F000F0F80002EB4002B1FB95
:10590000F5F0584301EB800006EBC000B0FBF5F06A
:1059100000F00700D6E7000000100140001401402D
:105920002DE9F0410C46D0F8D412D0F8C82200EB93
:105930008101D1F8C01229B304F00F0606EB8603EB
:1059400000EB83050027AB694BB106EBC60602EB03
:105950008602D269B3FBF2F602FB1632A2B1C1F89D
:105960001472D0F8D42200EB8200D0F8C40203698C
:105970002BB1D1F80802224601F5047198470020A6
:10598000BDE8F0810320FBE700231A462146AF6102
:1059900000F0DEFDF3E770B50546D0F8D40205EB64
:1059A0008000D0F8C04294B1284600F0B1FCC4F8A1
:1059B0000C02D5F8D412D4F8040205EB8101D1F819
:1059C000C412CA6804F503719047002070BD03201B
:1059D00070BD000070B5224D0446297800F0DCFB54
:1059E0002878002600F00F0000EB800004EB800018
:1059F00086846978204600F0CFFB687800F00F00BD
:105A000000EB800004EB8000A0F86461A9782046D8
:105A100000F0C2FBA87800F00F0000EB800004EB60
:105A200080008684C684D4F8D40204EB8000D0F8C9
:105A3000C01299B1D0F8C40240688047D4F8D402AB
:105A400004EB8000D0F8C00200F0A5FFD4F8D40227
:105A500004EB8000C0F8C062C4F8BC62002070BDD6
:105A60007800002010B5D0F8D41200EB8100D0F8F7
:105A7000C04284B1D0F8C41259B194F80002FF2892
:105A800007D08B6894F8012221469847FF2084F8BC
:105A90000002002010BD032010BD00000A2101807B
:105AA000004870477C00002070B5064682210C48F3
:105AB00000F0F5FA05460121094800F0F0FA044625
:105AC0008121074800F0EBFA0DB11021A9714021A6
:105AD00004B1A18000B1818043203080004870BDB6
