:020000040800F2
:10000000284A002035020008B3350008852F000873
:10001000B1350008550500088D5D0008000000009E
:10002000000000000000000000000000094000087F
:1000300071060008000000002F3700081540000876
:100040004F0200084F0200084F0200084F0200084C
:100050004F0200084F0200084F0200084F0200083C
:100060004F0200084F0200084F0200084F0200082C
:100070004F0200084F0200084F020008A1050008C7
:100080004F0200084F0200084F0200080000000065
:100090000000000000000000000000004F02000807
:1000A0004F0200084F0200084F0200084F020008EC
:1000B0004F0200084F0200084F0200084F020008DC
:1000C0004F0200084F0200084F0200084F020008CC
:1000D0004F0200084F0200084F0200080000000015
:1000E0004F0200084F0200084F0200080000000005
:1000F0000000000000000000000000004F020008A7
:1001000000000000653700084F0200084F02000899
:1001100000000000000000000000000000000000DF
:10012000AD0500084F020008B9050008C505000824
:100130004F02000800000000000000000000000066
:10014000000000000000000000000000B5350008BD
:10015000D1050008DD050008E90500084F02000888
:100160004F0200084F0200080000000000000000DD
:10017000000000000000000000000000000000007F
:10018000000000004F020008000000000000000016
:100190004F02000800F002F800F03CF80AA090E8D6
:1001A000000C82448344AAF10107DA4501D100F032
:1001B00031F8AFF2090EBAE80F0013F0010F18BFC3
:1001C000FB1A43F001031847445C0000645C000024
:1001D000103A24BF78C878C1FAD8520724BF30C873
:1001E00030C144BF04680C60704700000023002445
:1001F00000250026103A28BF78C1FBD8520728BF37
:1002000030C148BF0B6070471FB505F0E9FD1FBD49
:1002100010B510BD00F0CFF81146FFF7F5FF05F05F
:10022000C6FD00F0EDF803B4FFF7F2FF03BC00F0E9
:10023000F5F800000948804709480047FEE7FEE757
:10024000FEE7FEE7FEE7FEE7FEE7FEE7FEE7FEE786
:1002500004480549054A064B70470000A9400008BC
:1002600095010008281A0020284A0020282A00208A
:10027000282A002053EA020C00F069802DE9F04B97
:100280004FF00006002B1FBFB3FA83F503FA05F405
:1002900024FA05F65E4012BF1643B2FA82F502FA5E
:1002A00005F4C5F120051EBF22FA05FC44EA0C0442
:1002B000203556EA044C4FEA144418BF641C4FF032
:1002C00000084FF00009904271EB030C39D300296C
:1002D00019BFB1FA81F701FA07F6B0FA80F700FA10
:1002E00007F6C7F120071EBF20FA07FC46EA0C06F6
:1002F0002037B6FBF4FCA7EB0507103F07F01F0BF8
:10030000CBF120060CFA0BFB2CFA06F644BFB346E1
:100310000026202FA4BF5E464FF0000B5BEA060CC0
:1003200008BF4FF0010B19EB0B09ABFB027C48EB4C
:100330000608C01B06FB02CC0BFB03CC71EB0C01C7
:10034000C1E70B46024641464846BDE8F08B13B56F
:100350004FF000004FF00001AFF30080BDE81C40FB
:1003600070474FF0000200B5134694469646203978
:1003700022BFA0E80C50A0E80C50B1F12001BFF45E
:10038000F7AF090728BFA0E80C5048BF0CC05DF8C4
:1003900004EB890028BF40F8042B08BF704748BF12
:1003A00020F8022B11F0804F18BF00F8012B704786
:1003B000704770477047754600F02CF8AE46050050
:1003C0006946534620F00700854618B020B5FFF770
:1003D0003FFFBDE820404FF000064FF000074FF010
:1003E00000084FF0000B21F00701AC46ACE8C00953
:1003F000ACE8C009ACE8C009ACE8C0098D4670475C
:1004000010B50446AFF300802046BDE81040FFF76A
:100410000ABF000000487047C81900200149182091
:10042000ABBEFEE72600020070470000464910B54B
:100430004A6822F440324A604A6843681A434A6074
:1004400001684A6822F480724A6001684A68036958
:1004500042EA03224A6001684A6822F040724A6018
:1004600001684A6883681A434A6001688A6822F40E
:1004700000628A6001688A68C3681A438A60816A78
:100480006FF07062D14201688A6822F070628A60FF
:1004900001688A680CD0836A1A438A6001688A6896
:1004A00022F040528A6001688A68C36A1A4301E0F8
:1004B00022F040528A6001688A6822F002028A6053
:1004C00001688A68037E42EA43028A6090F820103D
:1004D000002901684A680FD042F400624A6001684E
:1004E0004A6822F460424A6001684A68174C436ACD
:1004F00004EB43331A4301E022F400624A600168CE
:10050000CA6A22F47002CA620168CA6A838B104CFC
:1005100004EB03531A43CA6201688A6822F400722A
:100520008A6001688A6890F8303042EA43228A6023
:1005300001688A6822F480628A6001688A6840697A
:1005400042EA8020886010BD0023014000E0FFFFE8
:100550000000F0FFFEE70020704700207047000019
:1005600010B500220449054804F094F804490348F2
:1005700004F083F8002010BDC40E0020E805002020
:10058000C40A002010B50146034804F076F802487A
:1005900004F04CF8002010BDE80500200020704752
:1005A000014800F07BB9000094010020014800F0F0
:1005B00075B9000090030020014800F06FB90000F9
:1005C00028050020014800F069B9000078020020E9
:1005D000014800F063B90000F0030020014800F07A
:1005E0005DB90000D8020020014800F057B90000B2
:1005F0008805002001681823CAB2103AB2FBF3F252
:10060000054B6FF30901032A9B5CC36500D9091DE3
:100610008165084670470000EA5D000810B5014694
:1006200000208B698A6A4FF0C07453B1B3F5005F44
:1006300015D072B1012A0CD0022A0AD0032A09D19E
:1006400004E01AB1012A06D0022A03D1C96AC901FD
:1006500000D5012010BDC96AA142FAD010BD002A00
:10066000F7D0012AF2D0022AF3D0032AF3D010BD2A
:10067000704772B6FEE7000078B50024009490F849
:100680003C20012A19D0012280F83C200A68072367
:100690000568092A13D9EE680A3A02EB4202934030
:1006A0009E43EE600B788A680A3B03EB43039A4053
:1006B0000368DD682A43DA6010E0022078BD2E6905
:1006C00002EB420293409E432E610B788A6803EB53
:1006D00043039A4003681D692A431A614A681F232D
:1006E000072A13D205686E6B521E02EB82029340FA
:1006F0009E436E630B790A885B1E92B203EB830301
:100700009A4003685D6B2A435A6327E005680D2A07
:1007100012D22E6BD21F02EB820293409E432E63B5
:100720000B790A88DB1F92B203EB83039A400368BC
:100730001D6B2A431A6311E0EE6A0D3A02EB820246
:1007400093409E43EE620B790A880D3B92B203EB15
:1007500083039A400368DD6A2A43DA62164B056810
:10076000144A9D4206D10D68122D03D1556845F4F7
:100770008005556005689D4218D10B68102B01D08B
:10078000112B13D1536843F40003536009681029F7
:100790000CD10A490A4A0968B1FBF2F101EB810167
:1007A000490000E0491E00910029FBD180F83C403F
:1007B000002078BD00230140002001400C000020F3
:1007C00040420F0070B504004FF0000503D0206CCC
:1007D000002610B107E0012070BD204600F01CF893
:1007E000666484F83C60206CC00610D4206C20F451
:1007F000885040F0020020642046FFF717FE666430
:10080000206C20F0020040F00100206400E001258F
:1008100084F83C60284670BD10B586B004461421AB
:100820006846FFF79EFD1149206888421CD1104898
:100830000021026842F480720260006800F4807057
:1008400005900B481438026842F00102026000680B
:1008500000F0010005901E2000900320CDE9010169
:100860006946044800F066F906B010BD002001405A
:10087000443802400000024090F83510022903D0AD
:100880008021416501207047052180F835100068FE
:10089000016821F001010160002070472DE9F84353
:1008A00004464FF00009CDF8009063484FF416510C
:1008B000A56D0068B0FBF1F72E6894F85C10082075
:1008C00000FA01F131420FD021680A6852070BD5B6
:1008D0000A6822F004020A6094F85C108840A8605C
:1008E000606D40F00100606594F85C104FF0010805
:1008F00008FA01F0304208D021684969090604D598
:10090000A860606D40F00200606594F85C100420FF
:100910008840304208D021680968890704D5A8605A
:10092000606D40F00400606594F85C101020884011
:10093000304218D021680968090714D5A8602068DA
:100940000168490304D50068000308D5A16C07E0DD
:100950000168C90503D4016821F008010160216C18
:1009600009B12046884794F85C1020208840304226
:1009700031D021680968C9062DD5A86094F83500E2
:1009800005282068016806D0490347D500680003A0
:100990001DD4616C1CE021F01601016020684169E2
:1009A00021F080014161206C08B9A06C20B1206861
:1009B000016821F00801016094F85C103F20884034
:1009C000A86084F8358084F83490216D1FE0E16BD5
:1009D00009B120468847606D00282BD0606DC007A4
:1009E00014D0052084F835002068016821F0010149
:1009F00001600098401C0090B84203D8206800684D
:100A0000C007F6D184F8358084F83490E16C002971
:100A100010D001B02046BDE8F04308470168C90581
:100A2000D5D4016821F01001016084F8358084F884
:100A30003490CCE7BDE8F8830C0000202DE9F041AC
:100A4000044600F06DF906465CB1022084F83500DA
:100A5000002584F834502068016821F0010101600C
:100A60000DE00120BDE8F08100F05AF9801B052857
:100A700005D920206065032084F83500F2E720685E
:100A80000068C007F0D12268116820480140D4E90D
:100A900001031843D4E90336334318436369184309
:100AA000A3691843E3691843236A18430843616A3A
:100AB000042903D1D4E90B131943084310602068BB
:100AC0004069666A20F0070130460E43012704287A
:100AD0000CD1A06A0643E06A40B12046FFF79EFDB4
:100AE00020B14020606584F83570BAE7206846611F
:100AF0002046FFF77FFD94F85C203F219140816004
:100B0000656584F835700020ACE700003F8010F088
:100B100070B5044600F004F90546601C02D0044894
:100B20000078044400F0FCF8401BA042FAD370BDEA
:100B3000000000202DE9F84FDFF8B8A100220124C1
:100B400003254FF00F090AF1040BAAF1040E00BFB0
:100B50000B6804FA02F63340B34273D10F7907F001
:100B60000307012F01D0022F16D187684FEA4208F0
:100B700005FA08FC27EA0C07D1F80CC00CFA08FCAF
:100B80004CEA070CC0F808C04768B7430E79C6F3B3
:100B9000001696403E4346600E79F643B6070DD0E8
:100BA000C768560005FA06FC27EA0C07D1F808C00A
:100BB0000CFA06FC4CEA070CC0F80CC00E7906F0E3
:100BC0000306022E10D1D60800EB8608D8F8206064
:100BD00057074FEAD76C09FA0CF7BE430F6907FABB
:100BE0000CF73743C8F8207006684FEA420C05FA44
:100BF0000CF7BE430F7907F0030707FA0CF73743EA
:100C000007604E6816F4403F6DD03B4E376847F49E
:100C100080473760366822F0030706F48046009666
:100C2000364E07EB060CDCF8086897073F0F09FA09
:100C300007F826EA0806DFF8C880404503D14FF0E0
:100C400000081EE04FE0DFF8BC80404502D14FF0C5
:100C5000010816E0DFF8B080404502D14FF00208ED
:100C60000FE0DFF8A880404502D14FF0030808E00C
:100C7000DFF89C80404502D14FF0040801E04FF0BE
:100C8000070808FA07F848EA0608CCF80888DAF8EE
:100C900000605746D1F804C09E435FEACC2C00D5D3
:100CA0001E433E60DBF800605F46D1F804C09E43FF
:100CB0005FEA8C2C00D51E433E60DEF8006077466C
:100CC000D1F804C09E435FEA8C3C00D51E433E60D1
:100CD000084F083F3E68D1F804C09E435FEACC3C11
:100CE00000D51E433E60521C102AFFF431AFBDE810
:100CF000F88F0000083C01404438024000300140B9
:100D0000000002400004024000080240000C0240C3
:100D1000001002400AB1816170470904FBE700003E
:100D20000148806870470000000000202DE9FF4165
:100D300004460068816800917749784E4FF040275B
:100D4000884201D1324600E03A46926801924068FA
:100D50008846029001D1304600E038464068039052
:100D600060684FF00105B0F5007F1CD0D8B1900746
:100D700005D50398000602D5204602F035F9009803
:100D8000C0070FD0029840067FD521682046CA6868
:100D9000E16A8B1CE3620A80618E491E6186618E66
:100DA000002967D071E00098800719D502980006E5
:100DB00016D5616A20468A1C626222680988D16061
:100DC000618D491E6185618D51B901684A6822F0C3
:100DD000A0024A60418E19B980F8415000F0A0F895
:100DE0000198C00705D00398400602D5204602F0BE
:100DF000CBF80198400622D5039880061FD52168BC
:100E0000414501D1304600E03846406820F060019D
:100E100001D1304600E0384641602068416821F049
:100E2000A00141602068C1688068019084F8415049
:100E3000606C40F002006064204600F072F8009898
:100E4000000767D50298800664D52068416821F0C4
:100E5000A00141602168414501D1304600E038469B
:100E6000406820F0600000D03E46706020688068D6
:100E7000009043E001684A6822F060024A60418DB8
:100E800019B980F8415000F04BF8009840061ED583
:100E9000029880061BD52068416821F060014160FE
:100EA0002168414501D1304600E03846406820F0D5
:100EB000A00101D1304600E03846416084F841503D
:100EC000606C40F002006064204600F02AF801984F
:100ED00000071FD5039880061CD52168414501D124
:100EE000304600E03846406820F0A00000D03E4682
:100EF00070602068416821F06001416084F84150D1
:100F0000606C40F00400606404B02046BDE8F0412D
:100F100000F007B8BDE8FF81003800400034004011
:100F2000704770472DE9F047040005D094F8410060
:100F30004FF0000818B109E00120BDE8F08784F8FF
:100F4000408051486063204600F0A6F8022684F8ED
:100F500041602068C16940F6BF77B943C16120682C
:100F6000066260694FF4007902282FD0E06870B102
:100F70002025A068202800D86D00012000F09CFEEC
:100F8000216949451FD1E16819B1A90002E0102586
:100F9000EFE7E900B0FBF1F000EB80006169400091
:100FA000B0FBF1F0401D0A21B0FBF1F000F00101AF
:100FB000401A40080902821EFE2A09D3606C40F0E4
:100FC00010006064B8E7B0FBF5F0E5E7022000210F
:100FD00022690843024320680262D4E90101084300
:100FE000A269E168114308432168CA69BA43104302
:100FF00040F40060C861206A01283AD12348606348
:1010000023482168234A4FF04023814201D11146F1
:1010100000E01946C96921EA070101D1154600E03F
:101020001D46E9612168814201D1114600E019465F
:101030000E622568854201D1114600E01946C96952
:101040008EB2616849451BD0D1B100212789B4F81F
:101050000CC047EA0C07B4F818C04CEA010C47EA88
:101060000C07B9B2314341F40061854200D01A4601
:10107000D161C4F84480012084F8410000205CE77D
:101080004FF48071E2E70000493000082D0D0008A0
:10109000003800400034004070B58CB00646142182
:1010A0006846FFF75EF9142105A8FFF75AF92349AE
:1010B0003068884240D10120059032200224CDE9D9
:1010C000060405A800F028FE08B1FFF7D2FA1C4874
:1010D0000025016841F480410160006800F480400F
:1010E0000A9017481038016841F002010160006859
:1010F000694600F002000A904FF430408DE831005C
:101100000520CDE903500F48FFF714FD0F4C0E48A2
:10111000C4E900054020C4E902050001C4E9040552
:10112000A561E561256220466562FFF787FC08B18D
:10113000FFF79FFAB463A6630CB070BD003800409F
:1011400040380240000402407060024094010020D8
:101150007047704702488168027811448160704787
:10116000000000200B4810B5016841F400710160D7
:10117000016841F480610160016841F4807101609F
:10118000032000F06FF80F2000F006F800F024F8BC
:10119000002010BD003C024070B50D4D04464FF4D8
:1011A0007A712878B1FBF0F00A490968B1FBF0F0D8
:1011B00001F03EFD48B9102C07D200222146501EF6
:1011C00000F030F800206C6070BD012070BD0000A0
:1011D000000000200C0000200A4808B5016841F416
:1011E00080410160006800F4804000900548001FC5
:1011F000016841F080510160006800F0805000906B
:1012000008BD000044380240002809DB00F01F023E
:10121000012191404009800000F1E020C0F8001158
:1012200070470000F0B40E4B1B680C46C3F302235A
:10123000C3F10705042D00D90425191D072901D282
:10124000002300E0DB1E012606FA05F1491E2140BD
:1012500099409E40761E16403143F0BC04F097BD85
:101260000CED00E0064900F0070208684FF6FF03A6
:10127000184040EA0220034A10430860704700000B
:101280000CED00E00000FA057047006841620020A4
:101290007047F0B50368586A39B19C6A4FF482769A
:1012A00000EB144400204D1E0AE040EA0240986220
:1012B0000FE006EB8007DF59401C04EB1744C0B277
:1012C000A842F6D344EA02404FF4807202EB810157
:1012D00058500020F0BDD0F8E00403F0B8BC01EB9A
:1012E000C10200EB8202D0F8E004126A03F00DBCE8
:1012F00001EBC10200EB8202D0F8E004D2F86022D8
:1013000003F05EBCD0F8E00403F0A3BC0A0601F0D1
:101310000F0101EBC10100EB810101D5143101E0A6
:1013200001F51571006804F07FBB70B504460B062B
:1013300001F00F0000EBC00104EB81014FF001024E
:101340004FF0000502D54A75143103E081F855527B
:1013500001F51571087094F89404012808D084F8F8
:101360009424206804F07AF884F89454002070BD26
:10137000022070BD70B5044601F00F002279904242
:1013800001D9012070BD0B0601F00F0101EBC10175
:1013900004EB81014FF001024FF0000502D54A75C0
:1013A000143103E081F8555201F515718D70087004
:1013B00094F89404012808D084F89424206804F058
:1013C000BFF984F89454002070BD022070BD01F074
:1013D0000F0101EBC10100EB8100D0F868027047FA
:1013E0002DE9F04104460F0601F00F0000EBC001AB
:1013F00004EB81014FF001064FF0000502D54E7558
:10140000143103E081F8555201F51571C2F30A0257
:1014100008708A600B714A7802B14883022B00D1B0
:101420004D7194F89404012809D084F894642068DC
:1014300003F066FF284684F89454BDE8F08102204A
:10144000FBE710B501F00F0404EBC40100EB8101D0
:10145000C1E998230023C1F8683281F8553281F838
:101460005442837901F51571012B00D1CA6182794B
:10147000006804F0BDF9002010BD70B504460D46AB
:1014800001F00F002179884201D9012070BD2906A1
:101490004FF000064FF0010206D500EBC00104EB4F
:1014A00081014A75143107E005EBC50104EB8101A8
:1014B00081F8556201F515718A70087094F89404EA
:1014C000012807D084F89424206804F065F92807DF
:1014D00002D007E0022070BDA17904F29C4220688E
:1014E00004F002F984F89464002070BD10B501F096
:1014F0000F0404EBC40100EB8101C1E908230023C0
:101500008B6201234B7501F8144F8379012B00D1B5
:10151000CA618279006804F06BF9002010BD0000F8
:101520002DE9FC5F05680446284604F019FB0028F5
:101530007DD1206804F040FB002878D0D5F8080859
:10154000C0F30D20C4F8D404206804F035FB8007F4
:1015500004D52068416901F002014161206804F06E
:101560002BFBC10604F29C40009034D520688169B1
:1015700021F0100181612F6A07F00F0000EBC0001D
:1015800004EB8006C7F3434006F51576022802D027
:10159000062811D01AE047F6F070074216D0C7F3BC
:1015A0000A1217462846F16804F00AFBF06838442E
:1015B000F0607069384408E008222846009904F079
:1015C000FFFA7069C7F30A110844706120688169E5
:1015D00041F010018161206804F0EEFA00034FF041
:1015E000080B4FF0000A4FF001097CD50026206857
:1015F00004F0C1FA074674E0F80770D0F1B2206831
:1016000004F0D2FA8046C00707D005EB4611C1F8B6
:10161000089B3146204601F0D3FF5FEA087024D5CD
:1016200005EB4611C1F808BB2068016C00E023E21D
:1016300000EB46100191D0F8082BFB4B994205D9DD
:10164000110403D54FF40041C0F8081B204600F0F8
:10165000F3FAF5490198884207D9A079012804D105
:1016600020680121009A04F03FF85FEAC86004D5C1
:1016700005EB46111020C1F8080B5FEA88701DD5F4
:101680006869000605D5D5F8040840F48061C5F8FE
:10169000041806EBC60004EB800090F8571200F522
:1016A0001570012905D180F803A0F1B2204600F0A1
:1016B000E9F905EB46110220C1F8080B5FEA8860E2
:1016C00004D505EB46102021C0F8081B5FEA8840CE
:1016D00005D505EB46104FF40051C0F8081B7F08F4
:1016E000761C002F88D1206804F066FA40036ED57E
:1016F000206804F039FA0746002666E0F80762D051
:10170000F1B2206804F03EFA8046C00723D006F00C
:101710000F01D5F8342809FA01F18A43C5F83428B5
:1017200005EB4611C1F80899A07901280FD106EB05
:10173000C60004EB8000D0E907211144016236B9EC
:10174000606A20B920680121009A03F0CDFFF1B250
:101750002046FFF7C4FD5FEA087003D505EB46118C
:10176000C1F808B95FEAC86004D505EB461110203E
:10177000C1F808095FEA486004D505EB461040212E
:10178000C0F808195FEA887016D53146284604F07B
:10179000BCF906EBC60004EB8000C17D14300129C2
:1017A00005D180F803A0F1B2204600F067F905EBFF
:1017B00046110220C1F808095FEA086003D53146E6
:1017C000204601F063FF7F08761C002F96D1206829
:1017D00004F0F2F9002811DAD5F8040820F001012C
:1017E000C5F8041894F8CC0401282BD0204600F04A
:1017F00008FA2068416901F000414161206804F065
:10180000DBF900050BD5D5F80808C00702D0204643
:1018100000F03AFA2068416901F4006141612068F2
:1018200004F0CAF9C00467D5D5F8040820F0010017
:10183000C5F804081021206804F067F900214FF66C
:101840007F3220E084F8CCA400212046FFF71CFD65
:10185000CFE700BF05EB4110C0F80829D0F80039E8
:1018600023F40013C0F80039C0F8082BD0F8003B6F
:1018700023F40013C0F8003BD0F8003B43F00063B2
:10188000C0F8003B491C20798842E3D8D5F81C08F1
:1018900040F00111C5F81C18E07B002828460DD047
:1018A000D0F8840840F00B01C5F88418D5F8440836
:1018B00040F00B012846C5F844180DE0D0F8140894
:1018C00042F22B010843C5F81408D5F8100840F07F
:1018D0000B012846C5F81018D0F8000820F4FE6166
:1018E000C5F80018A1792068009A03F0FDFE206871
:1018F000416901F480514161206804F05DF9800480
:1019000015D5206803F03CFD206804F01CF9E07157
:1019100000F044FB0146E279206804F0AFF920466C
:1019200000F05CF92068416901F4005141612068D0
:1019300004F042F9000707D5204600F066F9206858
:10194000416901F008014161206804F035F90006A1
:1019500016D5A86920F08001A96101260DE000BF1D
:1019600006EBC60004EB800090F85702012803D173
:10197000F1B22046FFF7CAFC761C2079B042EFD8BE
:10198000206804F019F9C0021FD501264F4614E063
:1019900005EB4610D0F8001906EBC60004EB8002F8
:1019A000107E012808D1002906DAF0B240F080014B
:1019B000D7752046FFF7AAFC761C2079B042E7D8FD
:1019C0002068416901F480114161206804F0F4F855
:1019D000800234D501204A4629E000BF05EB4011C2
:1019E000D1F8001B00EBC00304EB830393F85862AB
:1019F000012E1BD1002919DA94F8D46401F4803146
:101A000006F00106B14211D183F85722A96941F0CD
:101A10008003AB616969090608D4D5F8040840F46D
:101A20000070C5F8040805E00A30544F401C2179C5
:101A30008142D3D82068416901F4001141612068D6
:101A400004F0BAF8400007D52046FFF744FC2068B0
:101A5000416901F080414161206804F0ADF8400720
:101A60000AD520684568680702D52046FFF74AFC7A
:101A70002068416829434160BDE8FC9FD0F8E0043C
:101A800003F039B9D0F8E00403F049B9F8B504001F
:101A900005D094F895042668002510B106E00120D1
:101AA000F8BD84F89454204600F056F8032084F8DA
:101AB0009504B6F1A04F00D1A571206803F00EFE89
:101AC000207C8DF8000094E80F0003F067FC0226EC
:101AD000B8BB0021206804F092F890BB00200127D9
:101AE0000DE000BF00EBC00104EB81014F750875EC
:101AF000C8850D76CD610D62401CC0B24D62217962
:101B00008142EFD8002011E000EBC00104EB81011D
:101B100081F8555281F8540281F85852C1F85C524C
:101B2000C1F86052401CC0B2C1F8645221798142B0
:101B3000EAD8207C8DF8000094E80F0003F010FD37
:101B400010B184F89564AAE7657484F895742068E8
:101B500003F0F8FC0020F8BD10B586B0044614214F
:101B60006846FEF7FEFB2068B0F1A04F2FD1194860
:101B70000021026842F001020260006800F00100EA
:101B800005904FF4C05000900220CDE901010320E0
:101B900003900A20049069460F48FEF7CBFF0D48DA
:101BA000001D016841F0800101600A48143001689D
:101BB00041F4804101600068002200F480400590FB
:101BC00011464320FFF72EFB4320FFF71DFB06B015
:101BD00010BD0000303802400000024070B50446DD
:101BE000C0790125022801D0FEF743FD2946D4F82B
:101BF000E00403F002F9D4F8E004BDE8704003F01B
:101C0000B7B8D0F8E00403F0E1B8D0F8E00403F08E
:101C1000E7B810B5044690F8940401280AD00120D2
:101C200084F894046174206804F017F8002084F8A4
:101C3000940410BD022010BDD0F8E02400F29C41B5
:101C4000104603F0E6B810B50446006894F8941402
:101C5000012909D0012184F89414C168490609D5E5
:101C6000617B012902D005E0022010BD816B41F4A7
:101C700080318163206803F026FF206803F054FC64
:101C8000002084F8940410BD10B50446D0F8E00498
:101C900003F001F92068D0F8001E41F00101C0F8FE
:101CA000001EE07A002804D00248016841F00601D5
:101CB000016010BD10ED00E001460020012908D1AF
:101CC0001149096811F4000104D0B1F5000F00D1E9
:101CD0000E4870470C48001F01680068490200F078
:101CE0003F0001D50A4900E00A49074AB1FBF0F07C
:101CF0007C321168C1F3881141431068C0F302704F
:101D0000B1FBF0F070470000083802400080BB00D3
:101D100000127A000024F4002DE9F843044600681C
:101D20004FF00109C1074FF0000601D1400727D548
:101D3000DFF81C81C8F86860FEF7F2FF0746454DE2
:101D400005E000BFFEF7ECFFC01B022857D828684B
:101D50000001F7D460688101207A41EA00703D49B2
:101D600084310860C8F86890FEF7DAFF074604E09F
:101D7000FEF7D6FFC01B022841D828680001F7D51E
:101D80002078800752D533484030016841F08051B7
:101D900001600068304D00F080500090286840F4E9
:101DA00080702860FEF7BCFF074604E0FEF7B8FF2E
:101DB000C01B022823D82868C005F7D5254D7035EB
:101DC000286810F4407020D0A18901F4407181424C
:101DD0001BD0286820F440712048C0F800900660AD
:101DE00029602868C00710D0FEF79AFF064641F226
:101DF000883707E0FEF794FF801BB84202D9032022
:101E0000BDE8F88328688007F4D5E1681148C1F37C
:101E100001220830032A12D0016821F4F811016070
:101E20002868A189C1F30B010843286020780007C6
:101E300003D50B49207CC1F8E0010020E0E70268EF
:101E4000084B22F4F81219400A430260E8E7000048
:101E5000000047420038024000700040400E4742F8
:101E600000104742FFFCFF0F2DE9F0470E4605002A
:101E700065D0DFF81481D8F80000F7B200F0070051
:101E8000B04207D288F80070D8F8000000F00700D0
:101E9000B04254D128683D4C810712D5400703D584
:101EA000206840F4E05020602878000703D52068BF
:101EB00040F4604020602068A96820F0F0000843EA
:101EC00020602878C0072DD030496868083901287B
:101ED00012D0022813D0032811D0096889070029DD
:101EE0002DDA216821F0030101432160FEF718FF7C
:101EF000814641F2883A0EE009688903EFE70968F4
:101F00008901ECE7FEF70CFFA0EB0901514502D96E
:101F10000320BDE8F0872068696800F00C00B0EB92
:101F2000810FEFD1D8F80010404601F00701B1420F
:101F300007D90770006800F00700B04201D0012007
:101F4000E7E72878400705D52068E96820F4E050E5
:101F5000084320602878000706D52068296920F406
:101F6000604040EAC100206000F03EF82168084A65
:101F7000C1F30311515CC840064908600648006877
:101F8000FFF70AF90020C4E7003C0240083802408D
:101F9000F25D00080C0000200400002001480068E9
:101FA000704700000C0000200448054900680968DB
:101FB000044AC1F38221515CC84070470C000020E4
:101FC00008380240025E00080448054900680968B4
:101FD000044AC1F34231515CC84070470C000020F4
:101FE00008380240025E0008154810B5006810F07D
:101FF0000C02144813D04110042A0FD0082A0ED125
:102000000F4C241F2268236802F03F025B0207D5B1
:102010002068C0F38810A0FB010106E0084610BD4F
:102020002168C1F38811A1FB00010023FEF722F90A
:102030002168C1F30141491C4900B0FBF1F010BD1A
:10204000083802400024F4002DE9F84F04006ED057
:102050002078DFF84C93C007A9F104054AD009F1B4
:1020600004000168C1F38101012908D00068C0F3B0
:10207000810002280AD1D9F80000400206D528685C
:10208000800337D560680028E1D033E06068B0F5A0
:10209000803F10D0B0F5A02F286810D020F48030F9
:1020A0002860286820F4802028606068A8B1FEF7C6
:1020B00037FE06460DE0286840F48030F4E740F42F
:1020C00080202860F7E700BFFEF72AFE801B642807
:1020D00073D828688003F7D50CE0FEF721FE06468A
:1020E00005E000BFFEF71CFE801B6428F0D82868BE
:1020F0008003F7D42078DFF8AC8280074FF0000A25
:102100003ED5A748001D016811F00C0F08D00068EB
:10211000C0F3810002280BD1D9F80000400207D497
:102120002868800716D5E068012800D112E033E165
:10213000E068B8B10120C8F80000FEF7F1FD0646DE
:1021400005E000BFFEF7ECFD801B0228C0D8286820
:102150008007F7D52868216920F0F80040EAC1001F
:1021600028600DE0C8F800A0FEF7DAFD064604E09E
:10217000FEF7D6FD801B02281FD828688007F7D4F9
:102180002078000722D5864F87486169703771B182
:1021900001210160FEF7C4FD064604E0FEF7C0FD24
:1021A000801B022809D838688007F7D50EE0C0F8F0
:1021B00000A0FEF7B5FD064605E082E0FEF7B0FDA3
:1021C000801B02287DD838688007F7D42078400724
:1021D00068D5DFF8CCB100270BF13C0BDBF8000031
:1021E000C0000BD4DBF8001041F08051CBF8001098
:1021F000DBF80000012700F0805000906B4E306843
:10220000C00510D4306840F480703060FEF788FD5F
:10221000009005E0FEF784FD0099401A022850D88E
:102220003068C005F6D55E4EA0686C3601280FD028
:102230000528306810D020F001003060306820F0B0
:1022400004003060A068B8B1FEF76AFD00900FE0AE
:10225000306840F00100F4E740F004003060F7E738
:10226000FEF75EFD0099411A41F28830814266D83E
:1022700030688007F4D50EE0FEF752FD009007E0CD
:10228000FEF74EFD0099411A41F28830814256D83E
:1022900030688007F4D42FB1DBF8001021F08051B2
:1022A000CBF80010A069C8B33D49091D0968C1F306
:1022B000810102294AD00228504607D0C8F86000A0
:1022C00000E03CE0FEF72CFD04463BE04746C8F842
:1022D0006000FEF725FD064605E000BFFEF720FD85
:1022E000801B02282BD828688001F7D4D4E9070185
:1022F0000843A16A2E4A490802EB0141626A41EA99
:102300008211084394F82C1040EA0161C9F80010CA
:1023100001203866FEF704FD044606E03EE000BFFB
:10232000FEF7FEFC001B022809D828688001F7D5BB
:1023300034E000BFFEF7F4FC001B022802D90320A2
:10234000BDE8F88F28688001F4D427E00128F7D091
:10235000D9F80000E26900F4800191421CD1226AA0
:1023600000F03F01914217D147F6C071626A014007
:10237000B1EB821F10D1A26A4FF0FF3300F440315D
:1023800003EB5202B1EB024F06D194F82C1000F08F
:102390007060B0EB016F01D00120D1E70020CFE7E2
:1023A0000438024000004742800E4742007000405F
:1023B0000000FFFF704700002DE9FE4304460026A1
:1023C00003200D4684F83400606C03285ED0B5F518
:1023D000805F5BD04FF4006700204FF08068BD4203
:1023E0001FD18146009001900021206801F0B6F9CC
:1023F000800113D46946204601F0C4FC07000DD1CA
:102400000198400334D5B4F850000104206801F06D
:10241000DDF9070002D10221206823E0A06B3843D8
:1024200028E01DB1A06B40F0006023E081460090E1
:1024300001900021206801F091F98001EED46946F5
:10244000204601F09FFC0700E8D10198C0030FD59A
:10245000B4F850000104206801F0B8F90700DDD19C
:102460000021206801F0FFF90700D7D14F46D5E7DA
:102470004746D3E7A063A06B144F4FF0010848B163
:102480002068876384F8348001260EE0A06B40F05A
:102490008050EFE7211DD4E9050C0EC9CDE90050AD
:1024A000CDF808C0206801F063F94FF4007120688E
:1024B00001F0C0F928B121688F63A16B0143A163CA
:1024C000012684F834803046BDE8FE83FF054000D5
:1024D00070470000F0B5426E920F0A70426EC2F370
:1024E00083624A70426EC2F301628A70426E120CBD
:1024F000CA70B0F86420120A0A7190F864204A7118
:10250000826E120DCA80826EC2F303420A72B0F864
:102510006820C2F3C0324A72B0F86820C2F3803239
:102520008A72B0F86820C2F34032CA72B0F86820EC
:10253000C2F300320A7300264E73426C4FF40075EA
:10254000012462B1012A3AD0026847499163816B44
:1025500041F08051816380F834400120F0BDB0F833
:102560006820C36E9205120D42EA93720A61C26E30
:10257000C2F3C2620A75C26EC2F302624A75C26ECB
:10258000C2F342528A75C26EC2F38242CA75C26EEB
:10259000C2F3C2320A760A69521C42650B7E03F00E
:1025A00007039B1C9A4042650B7A03F00F0704FA5D
:1025B00007F383655B0A5A43C0E917250EE090F8DC
:1025C0006820C36E9206920A42EA13420A610A69BF
:1025D000521C92024265C0E91652056630F86C2F13
:1025E000C2F3803201F8192F0288C2F3C6124A7072
:1025F000027802F07F028A704268D20FCA70426885
:10260000C2F341720A714268C2F382624A7142683F
:10261000C2F383528A714268C2F34052CA710E7289
:102620004268C2F300424A728288C2F3C0328A72A0
:102630008288C2F38032CA728288C2F340320A733F
:102640008288C2F300324A738288C2F381228A737D
:102650008288C2F30122CA730079C0F3460008746D
:102660004C740020F0BD0000FF05400070B504462A
:10267000B0F8500000250104206801F0AAF918B153
:10268000A16B0143A16304E00021206801F066F81A
:102690000546C5F3432070BDF8B5056B04460068D8
:1026A000416B09041BD5290719D5D4E90A56002E18
:1026B00014D00027206801F071F805F8010B010A19
:1026C00005F8011B010C05F8021B000E361F7F1CCC
:1026D00005F8010C082FEDD3C4E90A56F8BD416B8B
:1026E0004FF00006C9054FF0010744D53902816358
:1026F0002068C16B4CF23A329143C1632068C16AD1
:1027000021F00101C16228071DD515F0220F09D063
:10271000206801F08FF928B1A16B0143A163204625
:10272000FFF7D6FE216840F23A50886384F834708F
:102730002663A80703D0204600F0AEF9F8BD204676
:1027400000F0ABF9F8BD2806FCD5A80609D520682D
:1027500001F070F928B1A16B0143A1632046FFF796
:10276000B7FEA807EED12068C16A21F00801C16256
:1027700084F83470E3E7416B490424D5290722D556
:10278000D4E90856002EDDD05FF0000715F8010BE4
:10279000009015F8011B361F40EA0120009015F843
:1027A000021B40EA0140009015F8011C40EA01605C
:1027B00000906946206801F004F87F1C082FE5D3DB
:1027C000C4E90856F8BD416B40F23A221142F9D0F3
:1027D000416B890703D5A16B41F00201A163416BF5
:1027E000090703D5A16B41F00801A163416B89067C
:1027F00003D5A16B41F02001A163416BC90603D54C
:10280000A16B41F01001A163416B890503D5A16B58
:1028100041F00801A16340F23A7181632068C16B05
:1028200040F23A329143C163206801F003F9A16B91
:102830000843A063280706D584F834702663204631
:10284000FFF746FEF8BD2806FCD515F0300F0CD07A
:10285000E16B11480865E06BFEF70EF80028F1D037
:10286000E06BBDE8F84001F06BBAA8070CD0216C12
:102870000A480865206CFDF7FFFF0028E2D0206CB5
:10288000BDE8F84001F03ABAA66384F834702663D4
:102890002046FFF78FFDF8BD413D0008FD3C0008D4
:1028A00070B504000ED094F83400002518B92577CF
:1028B000204600F04FF8032084F83400204600F052
:1028C0000BF808B1012070BDA5632563012084F8D1
:1028D0003400002070BD0000FEB5002504467620BF
:1028E0000095CDE9015029460B460A46206800F0C4
:1028F0003FFF48BB154E46F8A05F206800F04AFF36
:10290000012535600220FEF703F9204601F022FB85
:1029100030B100BF84F83450A16B0143A16313E0D0
:10292000204601F09FFA0028F4D14FF4007120688E
:1029300000F080FF002808D0226805499163A16B50
:102940000143A16384F834500120FEBD008025427C
:10295000FF0540002DE9F04F87B005461421684679
:10296000FDF7FFFC4649286888427DD1454800684C
:10297000444940F400600860086800F40060059075
:102980004048143800683F4940F00400143908609A
:10299000086800F004000590086840F0080008602E
:1029A0000868022400F0080005904FF4F850CDE9C3
:1029B000000402AA002003264FF00C0882E841011F
:1029C00069463148FEF7B6F802AA002082E84101C4
:1029D0000427CDE9007469462C48FEF7ABF82D4C6E
:1029E0002B484FF00068C4E9000800204FF48069CC
:1029F000A060C4E90309B8024FF4804BC4E9050B99
:102A0000C4E909764FF0200A0020C4E907A07E053A
:102A1000B7102046C4E90B67FEF710F808B1FDF7C0
:102A200028FE2C64A5631B4C194860344830C4E967
:102A300000084020A0600020C4E90309C4E907A001
:102A40000420606204F12802032082E8C1004FF4F0
:102A50008051C4E9051B2046FDF7F0FF08B1FDF7E2
:102A600008FEEC63002200E007E011463120A56378
:102A7000FEF7D8FB3120FEF7C7FB07B0BDE8F08FAB
:102A8000002C01404438024000080240000C024083
:102A900058640240780200207047704770B5040007
:102AA00009D0606A002540B125616561A56294F88E
:102AB000510040B10CE0012070BD6068B0F5827F2C
:102AC000F4D0E561F2E784F85050204600F044F875
:102AD000022084F851002068016821F04001016063
:102AE000A088218900F4827001F404410843A1897F
:102AF00001F400610843217C01F002010843217DBB
:102B000001F001010843218B01F400710843217F8A
:102B100001F03801084394F8201001F080010843C7
:102B2000218D01F40051084321680860A069042147
:102B300001EA104094F8241001F0100108432168C4
:102B400048602068C16921F40061C16165650120A8
:102B500084F85100002070BD2DE9F04186B0064692
:102B600014216846FDF7FDFB2C493068884251D19D
:102B70002B480024016841F480510160006800F492
:102B80008050059026481438016841F00101016029
:102B90000068694600F001000590E02000900220E6
:102BA00001900120029003200390052004901D480D
:102BB000FDF7C0FF1D4D1C484FF0C0672860C5E9F8
:102BC00001744FF48068C5E903486C61AC61EC6145
:102BD0002C6228466C62FDF731FF08B1FDF749FD14
:102BE000F564AE63114D104860357830E5E80207B2
:102BF0004020A5E811010D4845F814496030AC614A
:102C0000EC612C626C62FDF719FF08B1FDF731FD34
:102C1000B564AE6306B0BDE8F0810000003001404D
:102C2000443802400000024010640240900300203B
:102C300010B5401EB0F1807F01D3012010BD4FF0D0
:102C4000E02460610F21601703F0A1F80020A0616B
:102C500007202061002010BD70B590F83C20012AAB
:102C60002CD0012480F83C40022280F83D200368EB
:102C70005A689D6822F070060A6832435A60104B09
:102C800002689A420ED0B2F1804F0BD00D4B9A429F
:102C900008D00D4B9A4205D00C4B9A4202D00C4BF7
:102CA0009A4204D1496825F080031943916080F865
:102CB0003D40002180F83C10084670BD022070BDE8
:102CC000000001400004004000080040000C0040EB
:102CD0000040014010B5040003D094F83D0010B14D
:102CE00007E0012010BD002084F83C00204600F0E1
:102CF0001FF8022084F83D00211D206801F0DCF956
:102D0000012084F8460084F83E0084F83F0084F8EF
:102D1000400084F8410084F8420084F8430084F8BD
:102D2000440084F8450084F83D00002010BD0000F8
:102D300008B500680949884201D1094804E0B0F1AA
:102D4000804F09D10648001F016841F00101016070
:102D5000006800F00100009008BD00000000014084
:102D60004438024070B5044690F83C000025012824
:102D700017D0012684F83C60022084F83D002068CA
:102D8000826822F0770222F47F428260086850282D
:102D900038D00DDC20284FD005DC90B3102811D19D
:102DA0004AE0022070BD302846D040280AD13BE0DE
:102DB00060282FD070280DD0B0F5805F03D0B0F51B
:102DC000005F12D0012584F83D60002084F83C00AB
:102DD000284670BDCB68D1E90121206801F0BEF919
:102DE0002068816841F0770109E0CB68D1E90121D1
:102DF000206801F0B3F92068816841F48041816066
:102E0000E1E719E0CA684968206801F0B9F9502182
:102E1000206806E0CA684968206801F0C2F96021AC
:102E2000206801F0A5F9CEE7CA684968206801F07A
:102E3000A7F940212068F4E7226801461046F0E730
:102E400070B5040004D094F84100002510B106E0EC
:102E5000012070BD84F84050204600F023F8242063
:102E600084F841002068C16821F40051C160204607
:102E700001F0AAF92068016921F4904101612068FC
:102E8000416921F02A0141612068C16841F4005183
:102E9000C1606564202084F8410084F842006563C5
:102EA000002070BD2DE9F04387B006461421684626
:102EB000FDF757FA2E493068884256D12D48002434
:102EC000016841F010010160006800F010000590F9
:102ED00028481438016841F001010160006801A927
:102EE00000F0010005904FF4C060009002204FF008
:102EF000030981E811020720049069461E48FDF786
:102F000019FE1F4D1D484FF000672860C5E9017488
:102F10004FF48068C5E903486C61AC61EC612C62D8
:102F200028466C62FDF78AFD08B1FDF7A2FBF56348
:102F3000AE63134D114860357830E5E80207402054
:102F4000A5E81101042045F81449AC61EC61C5E91C
:102F50000840C5E90A940A482C636030FDF76EFD0D
:102F600008B1FDF786FBB563AE6307B0BDE8F0833B
:102F7000001001404438024000000240406402401A
:102F800028050020FEE7000070B515490268154BC2
:102F90004FF040248A4201D11A4600E02246D5680B
:102FA000C26A961CC6621580428E521E4286428EAE
:102FB000002A14D102688A4201D1194600E0214654
:102FC000496821F0600100D023465960418D0029F5
:102FD00005D14FF0010180F84110FDF7A1FF70BD50
:102FE000003800400034004070B5416A144B8A1C20
:102FF000426205680988134A4FF040249D4201D17E
:10300000154600E02546E960418D491E4185418D08
:10301000002914D10168994201D1114600E02146EE
:10302000496821F0A00100D022465160418E00295C
:1030300005D14FF0010180F84110FDF771FF70BD1F
:1030400000380040003400407CB5016804468868C0
:10305000009094F841000125042834D10098C0075D
:1030600018D04868C043400614D4C9682046E26AB4
:103070001180E16A891CE162618E491E6186618E60
:1030800041B901684A6822F060024A6080F8415004
:10309000FEF75EF80098400615D520684168C943E0
:1030A000890610D4416821F0600141602068C16840
:1030B0008068019084F84150606C40F002006064C8
:1030C0002046FDF72EFF94F84100032834D10098E4
:1030D000800719D521684868C043000614D4626A85
:1030E00020461288CA60616A891C6162618D491E2E
:1030F0006185618D41B901684A6822F0A0024A6089
:1031000080F84150FEF725F80098000714D5206894
:103110004168C94389060FD4416821F0A00141608C
:1031200020688068009084F84150606C40F0040092
:1031300060642046FDF7F5FE7CBD0000F0B500237D
:103140000A24302537261F4611E000BFB4EB107F5C
:1031500002D905EB107C01E006EB107C01F813C0EE
:1031600001EB430C00015B1C8CF80170DBB2934255
:10317000ECD3F0BD7FB5002123480091019102916D
:10318000204A0391C0E90021012404618160017695
:1031900080F820101D4AC0E90A210425C561C160DC
:1031A00080F830104461FDF70DFB08B1FDF761FABE
:1031B00005200094CDE9014069461348FDF75CFA0B
:1031C00008B1FDF756FA02200090019069460E48BA
:1031D000FDF752FA08B1FDF74CFA03200090019078
:1031E00069460948FDF748FA08B1FDF742FA00952B
:1031F000694605480195FDF73FFA002801D0FDF723
:1032000038FA7FBD00200140040100200100000FBA
:10321000254808B5016841F480010160016801F4A6
:1032200080010091016841F40011016000680022F2
:1032300000F40010009011460F20FDF7F3FF0F205F
:10324000FDF7E2FF002211463820FDF7EBFF3820A2
:10325000FDF7DAFF002211463A20FDF7E3FF3A209E
:10326000FDF7D2FF002202213B20FDF7DBFF3B20D0
:10327000FDF7CAFF002211464420FDF7D3FF44208A
:10328000FDF7C2FF002211464520FDF7CBFF452088
:10329000FDF7BAFF002211464620FDF7C3FFBDE847
:1032A00008404620FDF7B0BF303802402DE9F0431A
:1032B00087B014216846FDF754F8334800240168AC
:1032C00041F004010160016801F004010591016809
:1032D00041F080010160016801F080010591016801
:1032E00041F001010160016801F0010105910168EF
:1032F00041F002010160016801F0020105910168DD
:1033000041F0080101600068DFF8808000F00800EB
:103310000590012242F20E014046FDF7FBFC00221F
:1033200011214046FDF7F6FC0122DFF864901702F8
:1033300039464846FDF7EEFC42F2020000900125B6
:10334000CDE90154694640460394FDF7F3FB1D2087
:103350000326CDE90005CDE9024669464046FDF762
:10336000E9FBA803CDE9000469460A480294FDF789
:10337000E1FB00970396CDE9015469464846FDF705
:10338000D9FB07B0BDE8F0833038024000080240A6
:1033900000000240000402400D4810B50B490160D6
:1033A00049154160002181604BF68032C160C0E95F
:1033B00004120822C0E906210162FDF7B3FD0028CE
:1033C00003D0BDE81040FDF754B910BD00380040EF
:1033D0004C0100200E4810B50C49016000214160ED
:1033E0008160C160016141618161FFF759FA08B1F3
:1033F000FDF73FF94FF400610548FEF7DDFF0028B7
:1034000003D0BDE81040FDF734B910BD002C0140D9
:10341000F40100200F4810B50D4901604FF482718E
:10342000416000218160C1604FF400720161C0E918
:103430000512C1610162416281620A21C162FFF726
:103440002DFB002803D0BDE81040FDF712B910BDD8
:10345000003001403803002010B586B00024174822
:103460000094019402940394049413490594016018
:103470000F21C0E901144FF47A71C0E903144461CB
:103480008461FFF727FC08B1FDF7F3F84FF4805093
:10349000009069460948FFF765FC08B1FDF7E9F8B7
:1034A000049404A905480594FFF7D6FB002801D031
:1034B000FDF7DFF806B010BD000001405004002009
:1034C00010B586B000241648009401940294039429
:1034D00004944FF08041059401600F21C0E901146C
:1034E0004FF47A71C0E903148461FFF7F3FB08B16C
:1034F000FDF7BFF84FF48050009069460848FFF789
:1035000031FC08B1FDF7B5F8049404A9044805940A
:10351000FFF7A2FB002801D0FDF7ABF806B010BD05
:10352000980400200C4810B50A4901604FF4E131BD
:103530004160002181600C22C160C0E904128161F8
:10354000C161FFF77DFC002803D0BDE81040FDF706
:1035500090B810BD00100140E004002010B500221A
:103560000F49104801F0ACFA08B1FDF782F80E4996
:103570000C4801F0BCFC08B1FDF77BF80B49094889
:1035800001F070F808B1FDF774F8064801F032FD5B
:10359000002803D0BDE81040FDF76BB810BD000057
:1035A00010000020E8050020CC0000206000002072
:1035B000FEE7FEE70148FDF7B3BF0000E41400207A
:1035C0002DE9F04103680D4604461E6C03EB4511DE
:1035D000D1F8080B94F806E04FF400474FF0200CA8
:1035E00004F29C42BEF1010F09D0DFF898E0764565
:1035F00039D1020432D500BFC1F8087B3FE0224B2D
:103600005FEA007E04D59E4239D90004F4D436E046
:103610005FEA806E02D5C1F808CB30E010F0280FC9
:103620002DD19E4201D90004E6D405EBC50004EB80
:103630008000D1F8101BD0F87432C1F31201591A6E
:10364000C0F8681200F51570ADB903691BB1C26806
:103650001144C1600FE0012120680AE080060AD50C
:10366000C1F808CB07E035B9D4F8640218B90021D5
:10367000184602F039F8E9B22046FDF739FE00207D
:10368000BDE8F0810A31544F0A30544F2DE9F84F0C
:103690000E4601EBC60100EB810481460568D4E9C2
:1036A00009101434884202D90120BDE8F88F081AA5
:1036B000A168814200D20846C01C870805EB461865
:1036C0001BE000BFA0EB010AA068504500D2824673
:1036D0000AF10300870899F8060000901FFA8AF3A0
:1036E000F2B22846E16802F03DFBE16801EB0A0016
:1036F000E060616901EB0A006061D8F8180980B2E6
:10370000B84205D3D4E90401814201D20028D9D1BD
:10371000D4E90401884208D806F00F01012088404E
:10372000D5F834188143C5F834180020BDE7704738
:103730000A6842624A688262D1E902231A43D1E9E7
:1037400004310B43C16A1A4321F0F7011143C162EE
:1037500000207047006800F003007047084440698B
:10376000704700000148FEF797BF0000F4010020F9
:1037700070B50DF1100C11439CE870002343194300
:1037800029434268314347F6FF639A430A43426044
:10379000002070BD0321016000207047D0F8800038
:1037A00070470A688260D1E901231A43D1E90331E5
:1037B0000B43C1681A436FF30B011143C160002032
:1037C00070470968C0F880100020704710B585B0B8
:1037D00004463720CDE900104020029000200390DD
:1037E0004FF48060049069462046FFF7DAFF41F20B
:1037F00088323721204600F037F905B010BD0000AF
:1038000010B504460A4885B001432920CDE90010CF
:1038100040200290002003904FF48060049069469D
:103820002046FFF7BEFF204600F0D6F905B010BDD8
:103830000000108010B585B004461020CDE90010BE
:1038400040200290002003904FF48060049069466D
:103850002046FFF7A6FF41F288321021204600F0F3
:1038600003F905B010BD10B585B004460620CDE9BA
:10387000001040200290002003904FF480600490DC
:1038800069462046FFF78DFF41F288320621204627
:1038900000F0EAF805B010BD30B585B0002405464B
:1038A000009401944FF480600294CDE9034069468E
:1038B0002846FFF776FF0B484FF4FA510068B0FB3B
:1038C000F1F041F288314843401E03D24FF00040EE
:1038D00005B030BD696B0906F6D5C520A863204642
:1038E000F6E700000C00002010B585B004464FF448
:1038F000D570009008200190402002900020039095
:103900004FF48060049069462046FFF74AFF204646
:1039100000F0C8F905B010BD10B585B00446072009
:10392000CDE9002040200290002003904FF48060F9
:10393000049069462046FFF734FF41F288320721A0
:10394000204600F091F805B010BD10B585B00446D2
:1039500000210220CDE90010C020CDE902014FF482
:103960008060049069462046FFF71BFF204600F068
:103970000BF905B010BD10B585B004460920CDE99E
:103980000010C0200290002003904FF4806004904B
:1039900069462046FFF705FF204600F0F5F805B020
:1039A00010BD10B585B0044600213320CDE90010CC
:1039B0004020CDE902010001049069462046FFF74E
:1039C000F0FE41F288323321204600F04DF805B078
:1039D00010BD10B585B004460D20CDE90010402083
:1039E0000290002003904FF48060049069462046C6
:1039F000FFF7D7FE41F288320D21204600F034F85F
:103A000005B010BD30B585B00C4605460021032039
:103A1000CDE900104020CDE9020100010490694683
:103A20002846FFF7BEFE22460321284600F0F6F89E
:103A300005B030BD10B585B0044600210C20CDE99D
:103A400000104020CDE902010001049069462046A3
:103A5000FFF7A7FE034A0C21204600F005F805B049
:103A600010BD000000E1F505454B10B51B684FF493
:103A7000FA54B3FBF4F353435B1E02D24FF0004001
:103A800010BD426B12F0450FF6D01205F4D4426B14
:103A9000520703D504218163084610BD426BD2074B
:103AA00002D00121816305E0C52282630269D2B29E
:103AB0008A4201D0012010BD0021FFF74FFE31499D
:103AC000084201D1002010BD002802DA4FF000703A
:103AD00010BD410001D5402010BD810001D58020DE
:103AE00010BDC10002D54FF4807010BD010102D598
:103AF0004FF4007010BD410102D54FF4806010BD3D
:103B0000C10102D54FF4006010BD010202D54FF48F
:103B1000805010BD410202D54FF4005010BD81020B
:103B200002D54FF4804010BDC10202D54FF40040D1
:103B300010BD410302D54FF4003010BD810302D502
:103B40004FF4802010BDC10302D54FF4002010BDFA
:103B5000010402D54FF4801010BD410402D54FF48A
:103B6000001010BD810402D54FF4800010BD000785
:103B700002D54FF4000010BD4FF4803010BD00009E
:103B80000C00002008E0FFFD12494FF4FA520968CA
:103B9000B1FBF2F141F288325143491E02D24FF09B
:103BA00000407047426B12F0450FF6D01205F4D476
:103BB000416B490703D50421816308467047416B77
:103BC000C90703D00121816308467047C52181637D
:103BD000002070470C0000200F494FF4FA5209688A
:103BE000B1FBF2F141F288325143491E02D24FF04B
:103BF00000407047426B12F0450FF6D01205F4D426
:103C0000416B490703D50421816308467047C521EC
:103C100081630020704700000C00002030B5204B6D
:103C20004FF4FA541B68B3FBF4F341F28834634356
:103C30005B1E02D24FF0004030BD446B14F0450FC4
:103C4000F6D02405F4D4436B5B0703D504218163CC
:103C5000084630BD436BDB0702D00121816303E0DE
:103C60000369DBB28B4201D0012030BDC5218163E5
:103C70000021FFF773FD10F4604F04D0410406D516
:103C80004FF4005030BD000C1080002030BD000407
:103C900002D54FF4805030BD4FF4803030BD00006D
:103CA0000C00002014494FF4FA520968B1FBF2F1FC
:103CB00041F288325143491E02D24FF00040704712
:103CC000426B12F0450FF6D01205F4D4416B490750
:103CD00003D50421816308467047416BC90703D0AF
:103CE0000121816308467047416B490601D5402197
:103CF00081630020704700000C00002010B5846B29
:103D000040F23A50216888632046FEF7AFFC01215B
:103D100084F8341000212163062801D0052805D13C
:103D20002068FFF787FEA16B0843A063A06B002803
:103D3000204602D0FEF7CCFB10BDFEF73BFB10BDCA
:103D400010B5846B40F23A50216888632046FEF734
:103D50008DFC012184F8341000212163062801D054
:103D6000052805D12068FFF765FEA16B0843A06315
:103D7000A06B0028204602D0FEF7AAFB10BDFEF77C
:103D800019FB10BD2DE9F04788B00D460446FCF73D
:103D9000C7FF002682460096019637460821206814
:103DA000FFF748FD00282CD1B4F85000010420682A
:103DB000FFF70CFD002824D1401E4FF00808CDE984
:103DC000020830204FF00209CDE904090120CDE9B5
:103DD000067002A92068FFF7ABFC2068FFF7E1FD41
:103DE00000280ED16F462068416B11F02A0F0BD0CE
:103DF000416B090702D4416B89051AD5C0F8388098
:103E0000082008B0BDE8F087416B890205D5FFF7AF
:103E1000C5FC47F82600761C02E0416B8904E7D513
:103E2000FCF77EFFA0EB0A00401CDCD14FF0004005
:103E3000E7E7416B890703D5C0F838900220E0E737
:103E4000416B890603D5202181630846D9E740F2FA
:103E50003A518163019800BA2860009800BA6860FE
:103E60000020CEE710B590B004460120ADF8380030
:103E70002068FFF76FFC002854D0606C032842D004
:103E80002068FFF762FD00284AD100212068FFF773
:103E900065FC606704212068FFF760FCA0670821CB
:103EA0002068FFF75BFCE0670C212068FFF756FCF9
:103EB000C4F88000606C032825D00EA92068FFF7A5
:103EC000A1FD00282CD1606C03281CD0BDF838005F
:103ED000206501042068FFF74EFD002820D1002155
:103EE0002068FFF73BFC606604212068FFF736FC82
:103EF000A06608212068FFF731FCE0660C212068ED
:103F0000FFF72CFC206704212068FFF727FC000D39
:103F1000E06403A92046FEF7DDFA30B14FF080508F
:103F200010B010BD4FF08060FAE7B4F850000023E5
:103F300002042068FFF7F0FC0028F1D104F1100022
:103F400007C88DE8070094E80F00FFF711FC002078
:103F5000E6E700002DE9F84F0026044600963546B6
:103F6000B0460068FFF798FC002827D12068FFF7CB
:103F7000BBFC4FF0805B4FF001094FF6FF7748B173
:103F8000A6642068FFF788FC002817D1A06C0128E0
:103F900002D020E0C4F8489000212068FFF716FC0A
:103FA00058B918E000212068FFF710FC002805D15F
:103FB00051462068FFF724FC10B15846BDE8F88F41
:103FC00000212068FFF7CAFB05464FEAD078009829
:103FD000401C009002E0DFF82CA00098B84202D20A
:103FE000B8F1000FDED00098B84202D34FF08070D5
:103FF000E4E7680002D5C4F8449000E0666400205D
:10400000DCE70000000010C170470178407841EA09
:1040100000207047FDF79EB830B593B03021684658
:10402000FCF79FF914210CA8FCF79BF91C4800240D
:10403000016841F080510160006800F080501190EB
:104040001848016821F4404141F4004101600068D2
:10405000022500F4404011900120009000040190DE
:104060008001CDE9065004204821CDE908010A90DD
:1040700003200B906846FDF7E7FF08B172B6FEE734
:104080000F200C90CDE90D540F9401210CA8109431
:10409000FDF7EAFE002801D072B6FEE713B030BD8E
:1040A00040380240007000400248016841F470014D
:1040B0000160704788ED00E0F0B50268204B214CAC
:1040C0009F03214D214E984207D0B84205D0A0420F
:1040D00003D0A84201D0B04204D122F0700C4A684B
:1040E00042EA0C02984210D0B8420ED0A0420CD046
:1040F000A8420AD0B04208D0154CA04205D0154CB9
:10410000A04202D0144CA04203D122F44074CA68E9
:1041100022434C6922F08002224302608A68C26214
:104120000A688262984201D10969016301214161F3
:104130000169C90703D0016921F001010161F0BDE6
:10414000000001400004004000080040000C004056
:1041500000400140004401400048014010B584681F
:1041600042EA032224F47F440A432243826010BDC2
:10417000826822F070020A4342F0070181607047B2
:1041800010B5036A046A24F001040462846924F00F
:10419000F00444EA021423F00A020A438461026232
:1041A00010BD10B5036A046A24F010040462846927
:1041B00023F0A00324F4704444EA023243EA0111DC
:1041C0008261016210BD000070B50446006801699B
:1041D000E26821F44051114301612169A068E2695C
:1041E00008436169114308432168CA6849F20C63B6
:1041F0009A430243CA6020684169A26921F4407170
:104200001143416131492068884202D030498842D7
:1042100002D1FDF7D9FE01E0FDF7C6FEE2690023F9
:10422000192164253226B2F5004F626828D0A0FB20
:104230000101930F9200FCF71DF80146B0FBF5F069
:104240006FF01802504301EB800006EB0010B0FB4A
:10425000F5F000F0F002B1FBF5F002EB0012B1FB5B
:10426000F5F06FF01803584301EB800006EB0010E7
:10427000B0FBF5F000F00F0021681044886070BDBD
:10428000A0FB010192185B41FBF7F4FF0146B0FB74
:10429000F5F00201B1FBF5F06FF01803584301EBA4
:1042A000800006EBC000B0FBF5F000F0F80002EB78
:1042B0004002B1FBF5F0584301EB800006EBC00073
:1042C000B0FBF5F000F00700D6E700000010014059
:1042D000001401402DE9F0410C46D0F8D412D0F87A
:1042E000C82200EB8101D1F8C01229B304F00F06F7
:1042F00006EB860300EB83050027AB694BB106EBA9
:10430000C60602EB8602D269B3FBF2F602FB163256
:10431000A2B1C1F81472D0F8D42200EB8200D0F818
:10432000C40203692BB1D1F80802224601F50471D9
:1043300098470020BDE8F0810320FBE700231A46E0
:104340002146AF6100F0B4FDF3E770B50546D0F843
:10435000D40205EB8000D0F8C04294B1284600F0AA
:1043600087FCC4F80C02D5F8D412D4F8040205EB8B
:104370008101D1F8C412CA6804F503719047002086
:1043800070BD032070BD000070B5224D0446297831
:1043900000F0B2FB2878002600F00F0000EB800050
:1043A00004EB800086846978204600F0A5FB6878DD
:1043B00000F00F0000EB800004EB8000A0F86461C7
:1043C000A978204600F098FBA87800F00F0000EBD9
:1043D000800004EB80008684C684D4F8D40204EB09
:1043E0008000D0F8C01299B1D0F8C402406880476C
:1043F000D4F8D40204EB8000D0F8C00200F07BFFB8
:10440000D4F8D40204EB8000C0F8C062C4F8BC62E7
:10441000002070BD7800002010B5D0F8D41200EB59
:104420008100D0F8C04284B1D0F8C41259B194F8D8
:104430000002FF2807D08B6894F801222146984794
:10444000FF2084F80002002010BD032010BD0000F2
:104450000A210180004870477C00002070B50646A4
:1044600082210C4800F0CBFA05460121094800F0F2
:10447000C6FA04468121074800F0C1FA0DB11021A7
:10448000A971402104B1A18000B181804320308016
:10449000004870BD8800002070B5064682210D4896
:1044A00000F0ADFA054601210A4800F0A8FA0446DA
:1044B0008121084800F0A3FA0DB11021A9714FF431
:1044C000007104B1A18000B1818043203080014897
:1044D00070BD00008800002070B5064682210C489F
:1044E00000F08DFA05460121094800F088FA0446DB
:1044F0008121074800F083FA0DB11021A9714021F4
:1045000004B1A18000B1818043203080004870BD9B
:10451000880000202DE9F04704464FF4077528462F
:1045200000F0EAFE06004FF0000863D02946FBF7D2
:1045300018FFD4F8D4023C4D04EB80004FF0100972
:10454000C0F8C062C4F8BC62207C4FF4007A012736
:10455000F0B3402302222978204600F0F4FB2878AB
:10456000402300F00F0000EB800004EB8000878404
:1045700002226978204600F0E6FB6878082300F004
:104580000F0000EB800004EB80000322A0F86471B0
:10459000A978204601F00F0101EB810104EB8101B4
:1045A000A1F82690A97800F0CEFBA87800F00F00C3
:1045B00000EB800004EB80008784C6F80482D4F806
:1045C000D402474604EB8000D0F8C402006800E043
:1045D00018E006F5017680473761776132687AB175
:1045E000207CF8B140236978204600F0B8FB002019
:1045F000BDE8F087D4F8D41204EB8101C1F8C08281
:104600000220F5E7534602222978204600F09BFB62
:104610002878534600F00F0000EB800004EB800088
:104620008784A5E75346DEE77800002010B5D0F870
:10463000D41200EB8101D1F8C01259B1027C084CB0
:10464000002AD1F8042207D04023617800F087FBCC
:10465000002010BD032010BD4FF40073F5E70000EB
:104660007800002039B1D0F8D42200EB8200C0F8E5
:10467000C4120020704703207047D0F8D42200EB0A
:104680008200D0F8C00218B1C0F8041200207047B0
:1046900003207047D0F8D43200EB8300D0F8C0027A
:1046A00028B1C0F81022C0F808120020704703207B
:1046B00070472DE9FC410646D0F8D4020C4606EBC3
:1046C00080000021D0F8C0728DF80010ADF8041001
:1046D0000D4637B1217811F060022FD0202A4BD13E
:1046E00002E00320BDE8FC81E288F2B109060DD5A5
:1046F000D0F8C40263783946D0F808C01846E047BD
:10470000E288072A00D9072239462DE0607887F829
:104710000002E088402800D34020C2B287F801227E
:104720003946304600F058F82BE0D0F8C4026378E0
:104730000022866821461846B04722E0607830B1F2
:1047400001281ED00A2809D00B2815D110E096F8B0
:104750009C02032810D1022201A905E096F89C02D0
:10476000032809D101226946304600F04FF808E0DD
:1047700096F89C02032804D02146304600F021F828
:1047800003252846AEE710B5D0F8B82200245268B9
:10479000904700B10324204610BD00207047002040
:1047A0007047134610B50A46002100F0D8FA0020E1
:1047B00010BD134610B50A46002100F079FB002019
:1047C00010BD10B50446802100F053FB2046BDE823
:1047D0001040002100F04DBB10B50323C0F8943207
:1047E000C0F858211346C0F85C210A46002100F0A9
:1047F000B6FA002010BD10B50521C0F894120023B0
:104800001A46194600F0ABFA002010BD10B502237D
:10481000C0F8943282611346C2610A46002100F05A
:1048200047FB002010BD10B50421C0F894120023EE
:104830001A46194600F03CFB002010BD10B50A4690
:10484000024903A000F009F9004810BDC408002087
:1048500043444320436F6E6669670000122008805E
:10486000004870473000002010B50A46024903A0F6
:1048700000F0F3F8004810BDC40800204344432072
:10488000496E7465726661636500000004200880EB
:10489000004870472C00002010B50A46024903A0CA
:1048A00000F0DBF8004810BDC408002042616E47EC
:1048B0004F00000010B50A46024903A000F0CDF8F1
:1048C000004810BDC408002053544D3332205669AF
:1048D000727475616C20436F6D506F7274000000CC
:1048E00010B51A2008800A480168001D0468001DE0
:1048F0000068081809D008220649FEF71FFC054980
:10490000042210312046FEF719FC0248801E10BD1B
:10491000107AFF1F46000020F8B504460020ADF8CD
:10492000000048880D46010A08295FD2DFE801F03F
:104930005E0409175E5E3C45D4F8B412207C0A6818
:1049400019E0207C02260028D4F8B80205D0C16AFC
:10495000684688470146467039E0816AF8E7C0B288
:10496000062843D2DFE800F0030A1014181CD4F81C
:10497000B402426805E0694690471CE0D4F8B402EE
:10498000826892B3207CF6E7D4F8B402C268F8E7F4
:10499000D4F8B4020269F4E7D4F8B4024269F0E74B
:1049A000D4F8B4028269ECE7207CF0B9D4F8B802FC
:1049B000416B68468847014609E0207CA8B9D4F8D5
:1049C000B802016B68468847014607204870EA88AC
:1049D0008AB1BDF8000040B1824200D90246ADF86C
:1049E00000202046FFF712FFF8BDFFE729462046CA
:1049F000FFF7E7FEF8E72046FFF715FFF4E778B585
:104A00000E4642880178002504468A4212D9ADF844
:104A100000100AE0694600F019F84178052904D130
:104A200081780546B14205D000256188BDF8002097
:104A30009142EFD8284678BD0146002002E0401C94
:104A4000C0B2491C0A78002AF9D170470A88037855
:104A50001A440A8001780844704770B516460D461E
:104A6000002820D00446FFF7E7FF022101EB4001B8
:104A70004FF40070814204D82046FFF7DDFF40006C
:104A8000801C30803078287003206870022000225B
:104A900006E02954401CC0B22A54401CC0B2641C19
:104AA00021780029F5D170BD01004FF0000004D03D
:104AB000012901D0022901D003207047012070474D
:104AC00078B10023C0F8B832C0F8C432C0F8D03290
:104AD00009B1C0F8B412012180F89C12027000F0F4
:104AE000CBB80320704710B5D0F8C802FCF742FCE1
:104AF000BDE81040FFF7D8BF10B5D0F8C802FCF7EA
:104B000014FCBDE81040FFF7CFBF2DE9F041174678
:104B10000446002521B194F89C02032842D04CE0C1
:104B2000D4F8941204F11400022935D1D0E90263BB
:104B30009E4206D9F21A826039462046FFF739FEB6
:104B40000FE0B34214D14068984211D3D4F89812C0
:104B500088420DD2002211462046FFF72AFEC4F8F3
:104B6000985200231A461946204600F0F8F813E040
:104B700094F89C02032808D1D4F8B802C16821B186
:104B8000C4F8D452C168204688478021204600F0EE
:104B900070F92046FFF72FFE94F8A00268B184F860
:104BA000A0520AE0D4F8B802426932B1C4F8D45233
:104BB000426920469047002800D10020BDE8F081DE
:104BC00070B513460446002221B194F89C020328D4
:104BD00030D03AE0D4F8941204F5AA70032934D105
:104BE000D0E902518D420AD96A1A8260084682428F
:104BF00000D3024619462046FFF7D3FD25E094F87E
:104C0000AA0210F01F0003D0012802D0022800D011
:104C1000002294F89C02032808D1D4F8B802016954
:104C200021B1C4F8D4220169204688472046FFF705
:104C3000FAFD0AE0D4F8B802836933B1C4F8D4228B
:104C4000826920469047002800D1002070BD0020D6
:104C5000704710B50024012180F89C12D0F8B822CA
:104C600022B152680179904700B10324204610BD5B
:104C7000D0F8C802FCF7ABBB10B5017839BB1549B9
:104C80000222C1F8E004C0F8C8124FF0A04008604A
:104C900004200871CA71002088714A728872C87233
:104CA00008738873C8730846FCF7F0FE08B1FBF779
:104CB000E0FC80210748FCF7E8FA40220021054883
:104CC000FCF7E7FA802201210248FCF7E2FA002013
:104CD00010BD0000E41400200A0601F07F01D0F8A6
:104CE000C80201EBC10100EB810001D5807D704756
:104CF00090F85602704710B5D0F8D42200EB82022B
:104D0000D2F8B82222B190F89C32032B02D004E0F2
:104D1000032010BD126A02B19047002010BD10B5EB
:104D2000D0F8D42200EB8202D2F8B82222B190F857
:104D30009C32032B02D004E0032010BD526A02B162
:104D40009047002010BD10B51C461346D0F8C8028D
:104D50002246FCF745FBBDE81040FFF7A5BE10B5A5
:104D6000D0F8C802FCF76DFBBDE81040FFF79CBE11
:104D70002DE9F04100260125044680F89C52C4F834
:104D800094626660C4F8A46280F8A062D0F8B802A9
:104D900030B1426822B100212046904700B103267D
:104DA0000022402311462046FFF7CDFF4027A4F8FC
:104DB00064513B46002280212046C4F86071FFF711
:104DC000C2FFA58430462762BDE8F08190F89C12AE
:104DD000042903D190F89D1280F89C12002070479E
:104DE00010B590F89C12032905D1D0F8B81211B172
:104DF000C96901B18847002010BD017400207047C7
:104E000010B5D0F8C802FCF704FFBDE81040FFF76A
:104E10004BBE70B5044600F2AA20054600F051F8DA
:104E20000120C4F89402B4F8B002C4F8980294F8CF
:104E3000AA0210F01F010AD001290ED0022912D0B7
:104E400000F080012046BDE8704000F012B829460D
:104E50002046BDE8704000F0CFB829462046BDE8A6
:104E6000704000F00FBA29462046BDE8704000F0BF
:104E700059B910B5D0F8C802FCF7FFFABDE81040E8
:104E8000FFF712BE10B5D0F8C802FCF7DCFEBDE893
:104E90001040FFF709BE90F89C12042903D090F847
:104EA0009C1280F89D12042180F89C12002070470B
:104EB00010B5D0F8C802FCF719FBBDE81040FFF7A9
:104EC000F3BD70B5054611F8010B287008786870BD
:104ED0004C1C2046FFF799F86880A41C2046FFF779
:104EE00094F8A880A01CFFF790F8E88070BD38B552
:104EF00004460020ADF80000A1B1C4F8B812D4F8FF
:104F0000D40204EB8000D0F8B802C16A19B1684637
:104F10008847C4F8D002D4F8D802401CC4F8D8029C
:104F2000002038BD032038BD02460020D2F8B83238
:104F3000002B02D01B681046184770472DE9F0413E
:104F400088462B4E8978002504463170012906D900
:104F500041462046FFF735FC0320BDE8F08194F878
:104F60009C02022702280CD003281DD0414620466F
:104F7000FFF727FC31782046FFF705FC032528467C
:104F8000EBE789B320466160FFF7CEFF050004D050
:104F900041462046FFF715FC1DE02046FFF743FC85
:104FA000032084F89C02EAE7C1B1606888421BD004
:104FB000C1B22046FFF7E7FB317820466160FFF77A
:104FC000B3FF050010D041462046FFF7FAFB2179D8
:104FD0002046FFF7D8FB84F89C72D0E784F89C72D7
:104FE00020466160FFF7CFFB2046FFF71CFCC6E7B9
:104FF00074000020FFF746BF2DE9F0410A78002534
:1050000012F060020CD0202A01D0402A7DD1D0F8C5
:10501000D42200EB8202D2F8B8229268904731E0A5
:105020004B78002201260A2B6FD2DFE803F041669D
:105030006E586E08056E2D29FFF76EFC67E004467A
:105040008888D8B9C888C8B94888802816D200F09E
:105050007F0794F89C02032810D084F89E7239468A
:105060002046FFF7CDFE2046FFF7DDFB1FB10220F3
:1050700084F89C024BE084F89C6248E0204644E0BF
:10508000FFF75CFF054642E0CB88012B3DD190F84D
:105090009C32012B04D0022B02D0032B35D104E02B
:1050A0008260012200F1080116E00122011D13E0D7
:1050B00090F89C22012A03D0022A01D0032A24D18D
:1050C000CA88022A21D1C660D0F8A41209B10321EE
:1050D000C160022200F10C01FFF798FB17E04A883B
:1050E000012A02D0022A03D00FE0C0F8A46216E021
:1050F0008988090A80F8A01211E090F89C32012BEF
:1051000008D0022B06D0032B04D0FFF75AFB284609
:10511000BDE8F08149880129F9D1C0F8A422FFF740
:1051200082FBF4E72DE9F041054608780C790E463C
:105130004FF0000810F060000BD0202801D040286C
:105140006AD121462846FFF728FBFF2800D0D8B3B4
:1051500095E07078C8B3012824D003285CD195F875
:105160009C02022802D0032856D10CE0002C53D018
:10517000802C51D021462846FFF77BFE802128460F
:10518000FFF777FE7BE0708840B93CB1802C05D0FA
:10519000C88818B921462846FFF76BFE2846FFF756
:1051A00042FB6CE095F89C020228DFD0032863D113
:1051B000708880BB600603D021462846FFF793FC29
:1051C0002846FFF730FBBCE700E00AE0C5F8D40250
:1051D000D5F8B8028268F2B1314628469047804639
:1051E0004DE095F89C020027022802D0032843D105
:1051F00013E00CB1802C3FD1200604F07F0000EBBF
:10520000800005EB800101D5143101E001F5AA71A0
:1052100002220F602CE032E02EE0200604F00F00A6
:1052200000EB800005EB800009D5808C20B304F0F2
:105230007F0000EB800005EB800614360AE0B0F832
:105240006401C8B104F07F0000EB800005EB80062C
:1052500006F5AA764CB1802C07D021462846FFF7E8
:105260003BFD10B10120306000E037600222314682
:105270002846FFF7CBFA02E02846FFF7A2FA40469D
:10528000BDE8F08170B50546087800240E4610F0A0
:10529000600003D0202801D0402827D195F89C0237
:1052A000012803D0022801D003281FD1B088C1B241
:1052B00001291AD8C1B22846FFF771FAFF280CD08D
:1052C00058B9D5F8B8128A683AB1C5F8D4028A68D4
:1052D000314628469047044600E00324F0882043E6
:1052E00007D12846FFF79FFA03E031462846FFF72B
:1052F00068FA204670BD704700487047C41200200D
:1053000070B50A78012302F00F054E78AB401B4CB4
:10531000D0F81C58012E17D045EA0343C0F81C38BA
:1053200000EB4210D0F8002B12040BD4D0F8002B65
:105330000B890979C3F30A031A4344EA81410A43FA
:10534000C0F8002B002070BD9BB21D43C0F81C5854
:1053500000EB4210D0F800391B04F3D4D0F8003928
:105360000D890979C5F30A0589042B4341EA825165
:105370000B432343C0F80039E4E70000008000102D
:10538000D0F800196FF30A01C0F80019D0F804181A
:1053900041F48071C0F804180020704770B50D46C4
:1053A0000446C2F3072104981E4601291BD0E06879
:1053B00040F04000E060204600F032F8C6F30721DC
:1053C0000029A16B26D021F48031A163C5F30741E8
:1053D000012907D1A16841F00601A160A16841F04F
:1053E0002001A16070BDA16B21F48031A163E1684F
:1053F0000A4A1140E160E16821F44011E160C0B265
:10540000012803D1E06840F48010E060204600F0FD
:1054100007F8DBE741F48031D7E70000BFFFBDFFAD
:1054200008B500214FF070620091009B5B1C009357
:1054300093420CD80369002BF7DA0091016941F01F
:10544000010101610099491C0091914201D9032099
:1054500008BD0169C907F5D1002008BD30B54C78F9
:105460000A78012300EB4212012C2CD0D2F8004B19
:10547000002C0BDAD2F8004B44F00064C2F8004B69
:10548000D2F8004B44F08044C2F8004BD0F83C58AE
:105490000C7804F00F0403FA04F425EA0444C0F87D
:1054A0003C48D0F81C48097801F00F018B4024EAF1
:1054B0000341C0F81C18D2F8000B19490840C2F883
:1054C000000B002030BDD2F80049002C0BDAD2F8D6
:1054D000004944F00064C2F80049D2F8004944F0A1
:1054E0008044C2F80049D0F83C480D7805F00F051B
:1054F00003FA05F5ADB2AC43C0F83C48D0F81C48FF
:10550000097801F00F018B4099B28C43C0F81C4818
:10551000D2F8000903490840C2F80009D1E70000A9
:105520000078F3EF007833ECD0F8001E21F003018F
:10553000C0F8001ED0F8041821F00201C0F80418C9
:1055400000207047D0F8001E21F00301C0F8001EB3
:10555000D0F8041841F00201C0F804180020704788
:105560002DE9F04F00250E460446174628462946E9
:1055700004EB8002C2F80411401C0F28F8D3C3F3D7
:1055800007405FEA0009204616D0806B20F4001225
:10559000A263A06B40F40022A2630846884621461D
:1055A000C4F8000EC7F30720012817D00846D1F829
:1055B000001841F0030118E0D0F8040840F002029E
:1055C000C4F80428A06B40F40012A263A06B20F47E
:1055D0000022A263A06B20F48022DDE7300E084693
:1055E000D1F8001801D041F00101C0F800181021D5
:1055F00000F08BFA00B10125204600F06AFA00B1F4
:1056000001254046C4F81088C4F81488C4F81C88E2
:1056100000214FF0006B4FF0904E4FF67F3AF2B200
:1056200015E000BF04EB4113D3F800C9BCF1000F33
:1056300006DA11B1C3F800E904E0C4F800B901E0EA
:10564000C3F80009C3F81009C3F808A9491C8A4225
:10565000E8D8002115E000BF04EB4113D3F800CBDC
:10566000BCF1000F06DA11B1C3F800EB04E0C4F896
:1056700000BB01E0C3F8000BC3F8100BC3F808AB84
:10568000491C8A42E8D8D4F8101821F48072C4F872
:105690001028A0616FF080406061C6F3074018B920
:1056A000A06940F01000A061A0690A490843A06108
:1056B000C7F3074018B1A06940F00800A061B9F134
:1056C000010F03D1A06904490843A0612846BDE841
:1056D000F08F000000383C8004000040816821F019
:1056E000010181600020704710B5036C134CA34288
:1056F00003D9D0F8003B002B1EDB0023C0F8103B81
:10570000D0F8103B43F40023C0F8103BD0F8103B16
:1057100043F01803C0F8103BD0F8103B43F0C043EF
:10572000C0F8103B012907D1C0F8142BD0F8001B9A
:1057300041F08021C0F8001B002010BD0A30544FFA
:105740004A780B78012A00EB43100BD0D0F8002BDD
:1057500022F40012C0F8002B0979032914D0022981
:1057600012D017E0D0F8002922F40012C0F8002966
:105770000979032901D002290CD1D0F8001941F090
:105780008051C0F8001905E0D0F8001B41F08051AD
:10579000C0F8001B002070470A784B78D1B200EBAC
:1057A0004110012B12D0D0F8001B002906DB2AB1D2
:1057B000D0F8001B21F08041C0F8001BD0F8001B7E
:1057C00041F40011C0F8001B00207047D0F8001908
:1057D000002906DB2AB1D0F8001921F08041C0F879
:1057E0000019D0F8001941F40011C0F80019EBE7D6
:1057F000F8B50C784F788B4DE3B26FF0604600EB54
:105800004313012F29D0D3F8107B6FF31207C3F88D
:10581000107BD3F8107B2F40C3F8107B002C7DD079
:105820000D69002D7BD08C6825446D1EB5FBF4F509
:10583000ADB26C430C62D3F8104B06EAC5452C435D
:10584000C3F8104BD3F8104B0D6AC5F312052C4367
:10585000C3F8104B012A70D0CBE00F69EFB1D3F839
:1058600010796FF31207C3F81079D3F810792F402D
:10587000C3F810790CB30F698D682F447F1EB7FBF6
:10588000F5F5D3F81079ADB206EAC5463743C3F84B
:1058900010790E79012E1CD02AE0D3F810692E4021
:1058A000C3F81069D3F8105945F40025C3F810590E
:1058B000D3F810596FF3120520E00E698D68AE42DF
:1058C00000D90D61D0F8105945F40026C0F81069D0
:1058D0000EE0D3F8106926F0C046C3F81069D3F87B
:1058E00010694FF0C04707EA45752E43C3F81069A9
:1058F000D3F810590E69C6F312063543C3F8105990
:10590000012A1BD000EB4413D3F8004944F00444AF
:10591000C3F800490C79012C31D001E044E057E094
:105920000A695AB3D0F83428097801F00F0301212D
:1059300099400A43C0F8342871E056E0CA691AB1A8
:1059400000EB4413C3F81429097901290ED1D0F8CA
:105950000818C90500EB4411D1F8002902D442F01F
:10596000005201E042F08052C1F8002900EB4410DF
:10597000D0F8001941F00441C0F800194FE0D0F808
:105980000848E405D3F8004902D444F0005401E08B
:1059900044F08054C3F8004900920A8A93B20A780E
:1059A000C96800F0DFF93AE00C690CB18C680C6151
:1059B0008C680C62D0F8105BC4F312042543C0F865
:1059C000105BD0F8104B44F40024C0F8104B41E7B2
:1059D000D3F8104B8D68C5F312052C43C3F8104B58
:1059E000D3F8104B44F4002432E7CA680AB1C3F874
:1059F000142B097901290CD1D0F80808C005D3F877
:105A0000000B02D440F0005001E040F08050C3F899
:105A1000000BD3F8000B40F00440C3F8000B00204B
:105A2000F8BD0000FFFF07E038B5002200921346E2
:105A30004D780A7842F2107400EB4212012D19D011
:105A4000D2F8005B002D3CDAD2F8005B45F000652F
:105A5000C2F8005B0A7800EB4212D2F8005B45F016
:105A60008045C2F8005B009A521C0092A24221D9E4
:105A7000012326E0D2F80059002D22DAD2F800598D
:105A800045F00065C2F800590A7800EB4212D2F8DE
:105A9000005945F08045C2F80059009A521C009206
:105AA000A242E5D80A7800EB4212D2F80029002A77
:105AB000F3DB06E00A7800EB4212D2F8002B002A52
:105AC000D1DB184638BD816841F0010181600020BA
:105AD000704708B500214FF070620091009B5B1C7D
