:020000040800F2
:10000000804E002021030008E7570008295000080F
:10001000E5570008BD1E0008098400080000000024
:100020000000000000000000000000002D66000835
:100030002D20000800000000635900083B660008FE
:100040003B0300083B0300083B0300083B03000898
:100050003B0300083B0300083B0300083B03000888
:100060003B0300083B0300083B0300083B03000878
:100070003B0300083B0300083B030008351F000852
:100080003B0300083B0300083B030008000000009E
:100090000000000000000000000000003B0300081A
:1000A0003B0300083B0300083B0300083B03000838
:1000B0003B0300083B0300083B0300083B03000828
:1000C0003B0300083B0300083B0300083B03000818
:1000D0003B0300083B0300083B030008000000004E
:1000E0003B0300083B0300083B030008000000003E
:1000F0000000000000000000000000003B030008BA
:1001000000000000995900083B0300083B03000869
:1001100000000000000000000000000000000000DF
:10012000411F00083B0300084D1F0008591F00082D
:100130003B03000800000000000000000000000079
:10014000000000000000000000000000E957000867
:10015000651F0008711F00087D1F00083B03000891
:100160003B0300083B030008000000000000000003
:10017000000000000000000000000000000000007F
:10018000000000003B030008000000000000000029
:100190003B03000800F002F800F0B2F80AA090E873
:1001A000000C82448344AAF10107DA4501D100F032
:1001B000A7F8AFF2090EBAE80F0013F0010F18BF4D
:1001C000FB1A43F00103184794900000B49000001C
:1001D0000A444FF0000C10F8013B13F0070408BF6D
:1001E00010F8014B1D1108BF10F8015B641E05D00B
:1001F00010F8016B641E01F8016BF9D113F0080FC0
:100200001EBF10F8014BAD1C0C1B09D16D1E58BF51
:1002100001F801CBFAD505E014F8016B01F8016B88
:100220006D1EF9D59142D6D37047000000230024FB
:1002300000250026103A28BF78C1FBD8520728BFF6
:1002400030C148BF0B6070476E2900F0EB81702908
:1002500000F03583662908F04687652908F0438752
:10026000672908F04087612908F03F8703681B0A67
:1002700028BF41F08001692900F09881642900F0CD
:100280009581752900F092816F2900F0C28278294A
:1002900000F00183E92900F05D82E42900F05A8230
:1002A000F52900F05782EF2900F0BF82F82900F00D
:1002B00000830368DB0928BF41F08001632901F056
:1002C0002580732901F02A80E32901F03580F32984
:1002D00001F03A80002070471FB508F0FFFE01F0E2
:1002E00085F804000020002108F0E2FE401C606058
:1002F0000020002108F0C6FEE0601FBD10B510BD53
:1003000001F046F81146FFF7E7FF08F0DDFC01F0C9
:1003100023F903B4FFF7F2FF03BC01F06BF900000F
:100320000948804709480047FEE7FEE7FEE7FEE789
:10033000FEE7FEE7FEE7FEE7FEE7FEE704480549C5
:10034000054A064B70470000D16600089501000879
:10035000801E0020804E0020802E0020802E002055
:1003600053EA020C00F069802DE9F04B4FF00006D3
:10037000002B1FBFB3FA83F503FA05F424FA05F640
:100380005E4012BF1643B2FA82F502FA05F4C5F1D7
:1003900020051EBF22FA05FC44EA0C04203556EA6B
:1003A000044C4FEA144418BF641C4FF000084FF08F
:1003B0000009904271EB030C39D3002919BFB1FA3F
:1003C00081F701FA07F6B0FA80F700FA07F6C7F1ED
:1003D00020071EBF20FA07FC46EA0C062037B6FBB2
:1003E000F4FCA7EB0507103F07F01F0BCBF120062D
:1003F0000CFA0BFB2CFA06F644BFB3460026202F5E
:10040000A4BF5E464FF0000B5BEA060C08BF4FF03E
:10041000010B19EB0B09ABFB027C48EB0608C01B78
:1004200006FB02CC0BFB03CC71EB0C01C1E70B46C6
:10043000024641464846BDE8F08B13B54FF0000038
:100440004FF00001AFF30080BDE81C407047000092
:100450007CB51D4616460C00009001D02044401E7D
:10046000074B7B442A4669460190304600F0F3F87A
:1004700005461CB10020694600F000F928467CBD05
:100480002102000002F0FF0343EA032242EA024293
:1004900000F0E6BA4FF0000200B5134694469646C7
:1004A000203922BFA0E80C50A0E80C50B1F1200187
:1004B000BFF4F7AF090728BFA0E80C5048BF0CC035
:1004C0005DF804EB890028BF40F8042B08BF704793
:1004D00048BF20F8022B11F0804F18BF00F8012B05
:1004E000704770477047704770B50446856900686B
:1004F000C10601D5302600E02026C00707D070BD18
:10050000D4E9012130469047206A401C20626D1ECC
:10051000F6D570BD70B5044685690078C00707D16F
:1005200070BDD4E9012120209047206A401C206240
:100530006D1EF6D570BD09684A0501D540B27047F9
:10054000C905FCD500B2704709684A0501D5C0B29B
:100550007047C905FCD580B2704770B50C4605469A
:10056000012A05D02878800600D5EA69002302E038
:10057000012305E05B1C934202D2E05C0028F9D124
:10058000A869E618C01AA861286A18442862284693
:10059000FFF7AAFF04E0D5E9012114F8010B904709
:1005A000B442F8D32846FFF7B5FF70BD2DE9F041FE
:1005B0000646002410687529314616A510D0FFF7AD
:1005C000BAFF002802DA404213A507E031688A0723
:1005D00001D512A502E0490704D511A5012401E0C7
:1005E000FFF7B2FF00210A2206F1240709E0B0FB61
:1005F000F2FCB0FBF2F302FB1C00303078541846DA
:10060000491C0028F3D123462A463046BDE8F04174
:1006100000F08BBA000000002D0000002B0000004D
:100620002000000011680268006A530501D50870B7
:100630000AE0D30501D5088006E0130603D5C217EA
:10064000C1E9000200E008600120704701694A1C0E
:1006500002610878704700B58FB0CDE90131002103
:10066000059105497944CDE903101146684600F02B
:1006700031F90FB000BD0000E5FFFFFF0A6802F886
:10068000010B0A607047D1E900239A4202D2531C41
:100690000B601070704700002DE9FF5F15468A4619
:1006A0000446DFF8AC80F8440027D8E900103E4645
:1006B000CDE9001010E03AF816106A4602A800F0E2
:1006C00047FE411C07D02178890603D5E269391815
:1006D00091420DD80744761C2078800602D5E06947
:1006E000B84205DDAE42E6DB3AF816000028E2D15A
:1006F000A069C01BA0612046FFF7F6FED8E90010F4
:10070000CDE90010002017E03AF818106A4602A858
:1007100000F01EFEB0F1FF3F81460BD000250DF129
:10072000080B05E0D4E901211BF8050090476D1C7A
:100730004D45F7D308F10100B0428046E4DB206A62
:10074000384420622046FFF7E5FEBDE8FF9F000029
:10075000668A00002DE9F0418046D21D22F0070292
:100760000025D2E90002F52915A614D0011E72F168
:10077000000106DA0023D0EB030063EB020211A6AE
:1007800008E0D8F800108B0701D50FA602E0490752
:1007900001D50EA601251146002408F1240704E026
:1007A00000F07EF930323A55641C50EA0102F7D16C
:1007B0002B46324621464046BDE8F04100F0B5B92F
:1007C000000000002D0000002B00000020000000B1
:1007D00030B4002100F1240408E002F00705D2083B
:1007E000303542EA4372DB086554491C52EA03057E
:1007F000F3D10468002310A2250707D5A40600D46E
:1008000021B1C46901230DA2641EC46130BC00F093
:100810008CB910B5044621461068FFF795FE0246D4
:100820002046BDE810400023D2E7D21D22F0070188
:10083000D1E90023CCE700000000000030000000F8
:10084000F0B40D460188090502D5214C7C4402E034
:100850001F4C7C440E34002100F1240608E002F015
:100860000F071209E75D42EA03721B097754491C1E
:1008700052EA0307F3D102780023120704D5702D42
:1008800006D009B1022311342246F0BC00F04DB964
:1008900001231034F8E770B504460D462146106870
:1008A000FFF752FE024629462046BDE8704000236D
:1008B000C6E7D21D22F00703D3E90023C0E703688F
:1008C000126843F0200303600823C3610023B7E7E5
:1008D000C88800002DE9F05F894604464FF0000A01
:1008E000DFF874B1FB44C0F820A02046E1688847D7
:1008F000002874D0252806D0D4E901219047206A29
:10090000401C2062F1E700265F462046E1688847E8
:100910002028054607DB312D05D2781910F8200C68
:1009200008B10643F1E7B00701D526F00406C4F884
:100930001CA00027C4F818A02A2D09D0284607F0CB
:10094000A8FD38B304EB8708303DC8F8185019E00B
:1009500059F8041B204604EB87029161E16888473F
:10096000012F054618D1E069002820DA26F020067C
:100970001DE0D8F8180000EB800005EB400030388F
:10098000C8F818002046E1688847054607F081FD51
:100990000028EED1012F0AD02E2D08D12046E16883
:1009A00088477F1C0546022F46F02006C4DBA0695D
:1009B000002803DA404246F00106A061F00701D0AA
:1009C00026F010066C2D0BD0682D09D04C2D39D097
:1009D0006A2D35D0742D35D07A2D33D016E038E01D
:1009E000E1682F4620468847B842054609D16C2F5A
:1009F00026D04FF48060E1680643204688470546CC
:100A000004E06C2F1AD04FF4807006430DB3A5F1AB
:100A10004100192802D8203546F400664A46294686
:100A2000204626604E46FFF70FFC80B101280BD010
:100A3000F61D26F0070000F1080956E74020E4E71C
:100A40008020D8E70020D6E706F104094DE72846C4
:100A500052E7206ABDE8F09F588800004FF000027E
:100A60000429C0F0128010F0030C3FF415ADCCF156
:100A7000040CBCF1020F18BF00F8012BA8BF20F82E
:100A8000022BA1EB0C01FFF707BD5FEAC17C24BF7D
:100A900000F8012B00F8012B48BF00F8012B70472C
:100AA00030B5B0F10A024FEA900E71F100034EEA40
:100AB000817EB0EB0E0061EB91014FEA101E4EEA11
:100AC000017E10EB0E0041EB11114FEA102E4EEAA1
:100AD000016E10EB0E0041EB11214FEA104E4EEA71
:100AE000014E10EB0E0041EB1141401841F10001A5
:100AF0004FEAD00040EA41704FEAD10110EB800587
:100B00004FEA810444EA907444EB01046D1944EB0C
:100B10000404521BA3414FF0000348BF0A3200D522
:100B200030BD401C41F1000130BD2DE9F0470D46BC
:100B300099469246044600F124080168880604D5C7
:100B4000E06921F01001216000E00120A84201DDF0
:100B5000471B00E00027A1697A1902EB0900081A77
:100B6000A0612078C00602D42046FFF7BDFC002615
:100B700008E0D4E901211AF806009047206A401CD9
:100B8000761C20624E45F4DB2078C0060AD520464C
:100B9000FFF7AAFC06E0D4E9012130209047206A43
:100BA000401C2062381EA7F10107F4DC07E0D4E9FD
:100BB000012118F805009047206A401C2062281E79
:100BC000A5F10105F3DC2046FFF7A4FC2078000620
:100BD00002D50220BDE8F0870120FBE770472DE930
:100BE000FF4F0C461E464FF0FF378BB0D2E9000195
:100BF000DDF860800A908A46C1F30A5505B93D4682
:100C0000002108464FF00000BAF1000F00F4400048
:100C100005DA00EB80004FF4400101EA50004FEA92
:100C20009059B9F1010F00DDB9460A9850EA4A001F
:100C30000ED044F61050A5F2FF3545432F14B8F1FD
:100C4000000F1ED07542291E1EDDC9F100021CE0F6
:100C5000B8F1010F4FF0000001D0302103E0F24362
:100C600005E02154401CB042FBDB3046002200214D
:100C700021540B99C1F80880C1E900200FB0BDE8EC
:100C8000F08FBD1B6D1CDEE74A4600DA694206A8FC
:100C900000F0F0FB06AB93E8070003AB83E8070026
:100CA00050460A9900F0ADFC8DE80700A0F5005011
:100CB0001F3800900398002D0ADD42F21F014A46BA
:100CC0000844002303A90390684600F016FF09E0DA
:100CD000A0F500504A461F38002303A90390684638
:100CE00000F020FF8DE807000004000C03D04FF057
:100CF000FF30410800E01046B8F1000F03D0002299
:100D0000009215461EE0751E05D4FFF7C9FE30326D
:100D100062556D1EF9D5B3460122084302D0002268
:100D20007F1C04E02078302801D100227F1E002A99
:100D3000099784D01DE0112D07DAFFF7B1FE30329C
:100D400062556D1C50EA0102F5D1084302D00098AB
:100D5000C8B10EE00021681E05E0235C625C6354AC
:100D60002254401E491C8142F7DBAB46A81B401EA3
:100D70000990002004F80B000B98099AC0F808802D
:100D8000C0E9002B7AE711264FF0000857E72DE95C
:100D9000F04F88460446D21D22F0070191B0D1E9F8
:100DA0000001CDE90A0107F04CFB02460B98C00F89
:100DB00001D02D2007E02068810701D52B2002E01B
:100DC000202101EAC000032A099001D0072A05DB8F
:100DD00003464146204600F00DFB0BE120788006DB
:100DE00001D5E06900E00620B8F1650F814606D024
:100DF000B8F1660F18D0B8F1670F70D131E000205C
:100E0000B9F1110F009001DB112301E009F1010399
:100E10000AAA01A90CA8FFF7E2FEDDE90C70002682
:100E200009F10105834647E001204B4600904FF051
:100E300000470AAA01A90CA8FFF7D1FEDDE90DB011
:100E40000C995D46002610B909F101000D18B9EBA7
:100E5000050003D4C0F1FF3609F10105A5EB090037
:100E60002BE0B9F1010F01DA4FF001090020B9F1CF
:100E7000110F0090484601DD112300E003460AAA45
:100E800001A90CA8FFF7ABFEDDE90C704D4600266A
:100E90008346207800070AD4AB4500DA5D4601A8F6
:100EA000012D04DD411911F8011C302907D04F45EF
:100EB00002DA17F1040F04DA012082460FE06D1EFA
:100EC000EEE7002F02DCED1B3E4403E0781CA84255
:100ED00000DD7D1CB81B00F1010A4FF000472078AF
:100EE000000703D4AA4501DB4FF0FF3A0021B7F118
:100EF000004F0DF143088DF8431024D002202B231E
:100F0000002F01DA7F422D230A21021EA0F10100E9
:100F100000DC5FB197FBF1FC97FBF1F201FB1C7C5D
:100F200017460CF1300C08F801CDEEE7A8F10100EE
:100F300003702188090501D5452100E06521A0F154
:100F4000010800F8011C09980FA9A1EB0807FF1D73
:100F500000B10120411901EBEA70A1693844081A77
:100F6000401EA0612078C00602D42046FFF7BCFADC
:100F7000099828B1D4E901219047206A401C2062D9
:100F80002078C00622D52046FFF7AEFA1EE0002EDC
:100F900004DBB34502DD01A8805D00E03020D4E928
:100FA00001219047206A401C2062761CAAF10100B2
:100FB0005FEA000A0AD100F019FAC0680168405CD3
:100FC000D4E901219047206A401C2062281EA5F127
:100FD0000105DCDC07E0D4E9012118F8010B90479A
:100FE000206A401C2062381EA7F10107F3DC20466E
:100FF000FFF790FA032011B041E600002DE9F04F11
:1010000004460D46D21D22F0070089B0D0E90097B2
:101010004846394607F015FA0246F80F01D02D234D
:1010200007E02068810701D52B2302E0202101EA97
:10103000C0038DF820300BB1012000E00020032A0E
:10104000824601D0072A04DB2946204600F0D2F967
:101050003FE12078800601D40D2500E0E569C7F363
:101060000A560D2D49DA00214FEA175B08464FF06A
:101070000000002F00F4400007DA00EB80004FF47E
:10108000400100EBD07001EA60008115012901DD0B
:101090004FF0FF3100224FEA850CBCF1180F06D348
:1010A0001346ACF118004FF08052C24003E04FF4F9
:1010B000801323FA0CF30CF10C0CBCF1200F04D3B9
:1010C000ACF1200C09FA0CF001E007FA0CF0002951
:1010D0004FF0004801DD18B90FE00ED140450CD3A8
:1010E00019EB02095F4121B9404502D19F4329EA2A
:1010F0000209BBEB175F00D0761C2088000502D5E3
:101100007B48784402E07A487844193808AA3023AA
:1011100002F80A30037C0AF10101002E0AF1020AEA
:1011200053546A4602DC4FF0300101E04FF03101C8
:101130004FF001088DF8001002D0A6F2FF3603E050
:1011400059EA470100D06B4E002D02DC21780907D7
:1011500004D54FF002082E218DF80110C44600215D
:101160000BE0C7F303433F01C35C491C6D1E02F84B
:101170000830052908F1010801DA002DF1DC002111
:101180000CE000EB1973491C1B786D1E082902F84E
:1011900008304FEA091908F1010801DA002DF0DCE6
:1011A00021688B0602D516E0A8F10108E04505DDAF
:1011B00002EB080313F8013C302BF5D0B8F1000F17
:1011C00009DD02EB080313F8013C2E2B03D10907BC
:1011D00001D4A8F10108002D05DD3E2102F8081018
:1011E0006D1E08F10108407C002E02F8080008F18D
:1011F000010804DA2D20764202F8080002E02B20D4
:1012000002F808000A214FF47A70864208F10108BA
:101210000BDB96FBF0F3303302F8083096FBF0F36B
:1012200008F1010800FB136601E0642E0CDB64206A
:1012300096FBF0F3303302F8083096FBF0F308F138
:10124000010800FB136601E00A2E06DB96FBF1F0B5
:10125000303002F8080008F1010896FBF1F001FBBC
:101260001060303002F80800A16908F1010808EBAD
:10127000050202EB0A00081AA0612078C00602D419
:101280002046FFF731F9216A08AE01EB0A0020621F
:1012900004E0D4E9012116F8010B9047BAF1010AE4
:1012A000F7D22078C00602D52046FFF71DF96E461A
:1012B00009E016F8010B3E280FD0D4E90121904730
:1012C000206A401C2062B8F10108F2D22046FFF7E4
:1012D00021F909B00320BDE8F08F206A284420627C
:1012E00003E0D4E90121302090476D1EEBD3F8E7ED
:1012F0005E80000002FCFFFF10B5436913B1AFF33D
:10130000008001E0FFF729F9012010BD127800F1FB
:1013100024010A7000224A700122EDE711684FF0A3
:10132000FF32E9E710B5436913B1AFF3008001E084
:10133000FFF7B2F9012010BD128800F12401828468
:101340000022C2840122EDE711684FF0FF32E9E785
:1013500070B516460C46054600F040F8036893F851
:101360000101012806D0FF2C0FD8185D68B10120BB
:101370002C7070BDD3F807013246214603F20713E3
:1013800003442846BDE8704018474FF0FF3070BD59
:10139000754600F0EBF8AE4605006946534620F06E
:1013A0000700854618B020B5FEF7C8FFBDE820400D
:1013B0004FF000064FF000074FF000084FF0000B11
:1013C00021F00701AC46ACE8C009ACE8C009ACE8C4
:1013D000C009ACE8C0098D467047000010B500F0A8
:1013E00005F8001D10BD00BFC97C00000048704713
:1013F000401E00202DE9F0411F46044603260168E7
:10140000072A01F4006004DB08B116A505E016A563
:1014100003E008B115A500E015A521F0100020603B
:10142000A069C01EA0610FB1401EA0612046FFF759
:101430005BF84FB1D4E9012138469047206A401C3F
:101440002062C01C206206E0206AFAE7D4E901218C
:1014500015F8010B9047761EF8D22046FFF75AF890
:10146000BDE8F0814E414E006E616E00494E46006F
:10147000696E66002DE9F047814616468AB0354808
:1014800078440DC88DE80D0032487844801C03ACC8
:101490000DC884E80D0041F69B300844372190FBCD
:1014A000F1F290FBF1F5A5F1800501FB12041B3C64
:1014B00002D56442012000E00020DFF898A08046B9
:1014C0000027FA44AAF1BE0A0EE0E0070AD032462D
:1014D000684607EB470101230AEB810100F022FB7C
:1014E0008DE8070064107F1C002CEED1194F7F445B
:1014F000AE3F19E0E80715D007EB04100DF1180A0C
:1015000090E80E008AE80E00C068F04201D19819F8
:1015100008903246012306A903A800F003FB03ABA1
:1015200083E807006D10641C002DE3D14FF0010328
:1015300032466946B8F1000F03A802D000F0DDFA88
:1015400001E000F0EFFAC9E90001C9F808200AB08B
:10155000BDE8F087707D000010B50446AFF3008051
:101560002046BDE81040FEF7D4BE0000004870479A
:10157000201E00204FF0013C50F8042B51F8043B92
:101580009A4221D1A2EB0C03934313EACC1317D157
:1015900050F8042B51F8043B9A4215D1A2EB0C03EE
:1015A000934313EACC130BD150F8042B51F8043BAE
:1015B0009A4209D1A2EB0C03934313EACC13DBD07C
:1015C0004FF00000704700BFD01A01BAB1FA81F1A4
:1015D00001F0180122FA01F0CB40C1F12001DBB289
:1015E000C0B2C01A2CFA01F3D11A914311EAC31107
:1015F000E6D1704701491820ABBEFEE72600020085
:1016000070475FEA400C08BF91F0000F4FEA8C234F
:101610004FEAC12243EA51514FEA1C5018BF00F56E
:10162000F0404FEA300018BF41F000415FEA6C5CC7
:1016300000F02980BCF1FF3F08BF40F080407047B8
:10164000130C06BF12044FF0100C4FF0000C130ED9
:1016500004BF12020CF1080C130F04BF12010CF1AD
:10166000040C930F04BF92000CF1020CD30F04BFC3
:1016700052000CF1010C11464FF00002A0F11F00C6
:10168000A0EB0C00704711F0004F08BF704731F01D
:1016900000413FF4D5AF0B0C06BF09044FF0100C0E
:1016A0004FF0000C0B0E04BF09020CF1080C0B0FDD
:1016B00004BF09010CF1040C8B0F04BF89000CF16D
:1016C000020CCB0F04BF49000CF1010CCCF120033C
:1016D000A0EB0C0022FA03F302FA0CF241EA030138
:1016E00000F10100704720F07F4C80EA030023F0F6
:1016F0007F47ACEB070303F57C5300F0004003F198
:10170000FF032DE980494FEA154B09B44FEA144312
:1017100025EA0B4E24EA03480FF2042606EB1327B2
:1017200049083E785FEA320203FB0667C7F5000707
:1017300007FB06F64FEA54374FEAD64606F1020693
:1017400007FB066CCCF1005C4FEA1C472CEA074C07
:1017500007FB06F40CFB06F504EB15464FEA96165C
:1017600034BF00204FF000404FEAD13706FB07FCA2
:101770004FEA1C4C0CFB0BF7D21B03FB0CF761EB85
:1017800007010CFB0EF7B0EB074072EB17420CFBA6
:1017900008F734BFA2EB0742B2EB074261EB1741F7
:1017A0004FEA0C444FEA910706FB07FC4FEA1C4C3A
:1017B0000CFB0BF7B0EBC74072EB573203FB0CF797
:1017C00034BFA2EBC742B2EBC74261EB57310CFB0F
:1017D0000EF7B0EBC70072EB57720CFB08F734BF83
:1017E000A2EBC702B2EBC70261EB5771039F4FEA4E
:1017F000816141EA921104EBCC044FEAD1374FEA00
:10180000826206FB07FC42EA90124FEA80604FEAD0
:101810001C4C0CFB0BF7D21B03FB0CF761EB070115
:101820000CFB0EF7B0EB074072EB17420CFB08F70E
:1018300034BFA2EB0742B2EB074261EB17414FEA1C
:101840008C554FEA910704EB9C2406FB07FC4FEAFA
:101850001C4C0CFB0BF7B0EBC74072EB573203FB91
:101860000CF734BFA2EBC742B2EBC74261EB573172
:101870000CFB0EF7B0EBC70072EB57720CFB08F7CE
:1018800034BFA2EBC702B2EBC70261EB577115EB95
:101890004C254FEA816141EA92114FEA82624FEA98
:1018A000D13742EA901206FB07FC44F100044FEAEC
:1018B00080604FEA1C4C0CFB0BF7D21B03FB0CF7B0
:1018C00061EB07010CFB0EF7B0EB074072EB174220
:1018D0000CFB08F734BFA2EB0742B2EB074261EB07
:1018E000174115EB1C154FEA813141EA92414FEA4D
:1018F000823242EA90424FEA80304FEA0C7644F15D
:10190000000448EA03434EEA0B484FF0000EB2EBE6
:10191000080C71EB030724BF624639464EEB0E0EEE
:101920004FF0000B0018524149414BEB0B0BB2EB4F
:10193000080C71EB03077BF1000B24BF62463946AC
:101940004EEB0E0E4FF0000B0018524149414BEB8D
:101950000B0BB2EB080C71EB03077BF1000B24BF00
:10196000624639464EEB0E0E51EA020718BF46F0AA
:10197000010616EB0E7655F1000254F1000103D575
:10198000BDE88901BDE80088BDE88901BDE80048DF
:10199000B619524141EB0101A3F101037047808068
:1019A0007F7E7D7C7B7A79787776767574737271B9
:1019B00071706F6E6E6D6C6C6B6A6A696868676671
:1019C00066656464636362616160605F5F5E5E5D03
:1019D0005D5C5C5B5B5A5A59595858575756565577
:1019E00055555454535352525251515050504F4FD9
:1019F0004F4E4E4D4D4D4C4C4C4B4B4B4A4A4A4929
:101A0000494948484847474747464646454545446B
:101A10004444444343434342424242414141002BF8
:101A20009C4630D477002BD01CB54FEA370703B45F
:101A30004FF010004FF01001BAF1000F06D0BCF1CA
:101A4000000FDCBF40F0080040F008014FF000003C
:101A50000FBCBDE810400BF1010BBBF1010F08BF3B
:101A60005FEA170722BF12F1010211F101014FF0E5
:101A7000004143F1000300F0004043EA00007047DA
:101A8000F9D35708D0E746EA064613F1400F4FEA6C
:101A900016461FDD13F1200FDFBF16430A46002153
:101AA00020335B42BED0C3F1200746EA064602FA65
:101AB00007F74FEA164646EA0706C3F1200722FA5F
:101AC00003F201FA07F721FA03F14FF0000342EAAB
:101AD0000702A7E746EA020646EA06464FEA164626
:101AE00046EA0106BCBF46EA0646360C4FF0000344
:101AF0004FF000024FF0000194E72DE9804C9A4628
:101B0000934670B491E8380007C831EA400C48BFEA
:101B100034EA430C03D5FFF7E6FDFFF780FFF0BC86
:101B2000BDE8008C2DE9804C9A46934670B491E84C
:101B3000380007C810F0804F08BF13F0804F03D162
:101B400000F005F8FFF76BFFF0BCBDE8008C20F05B
:101B50007F4780EA030023F07F4C07EB0C03A3F5DB
:101B60007C5300F00040A3F1FE0392F0000F00F060
:101B7000B38095F0000F00F077802DE901494FEA1E
:101B800011404FEA144621EA004800FB06FC24EA13
:101B9000064708FB06F607FB08F800FB07F718EBFB
:101BA00006484CEB164C4FEA124B18EB07484FEA2D
:101BB00015464CEB174022EA0B4E0BFB06FC25EAC0
:101BC00006470EFB06F607FB0EFE0BFB07F71EEBA8
:101BD000064E4CEB164C4FF000061EEB074E4CEB3E
:101BE000174B18EB0B0840F1000018EB0E0B58EBED
:101BF000000840F100008F1A4FF000013CBFC943BC
:101C0000661B14BFB5EB040C00213CBFC943F61B97
:101C10004FEA17444EEA8E0E27EA04454FEA1C4766
:101C200004FB07622CEA074C05FB07F70CFB05F6E3
:101C300004FB0CFC16EB074642EB174216EB0C4676
:101C400042EB1C421BEB060658EB0202414146EAFE
:101C50009E0601D5BDE80189B619524141EB01014B
:101C6000A3F10103BDE801894FEA14454FEA11478A
:101C700024EA054621EA074C05FB07F406FB07F7B3
:101C80000CFB06F105FB0CFC11EB074144EB174480
:101C90004FEA124711EB0C4144EB1C4422EA074C7B
:101CA00005FB07F206FB07F70CFB06F605FB0CFC31
:101CB00016EB074642EB174216EB0C4642EB1C456F
:101CC0006A1854F1000148BF7047B619524141EB00
:101CD0000101A3F10103704795F0000F37D04FEADF
:101CE00011424FEA144721EA024624EA074C02FB5C
:101CF00007F106FB07F70CFB06F402FB0CFC14EBE8
:101D0000074441EB17414FEA154714EB0C4441EBF4
:101D10001C4125EA074C02FB07F506FB07F70CFB05
:101D200006F602FB0CFC16EB074645EB174516EBD7
:101D30000C4645EB1C42121951F1000148BF704797
:101D4000B619524141EB0101A3F1010370474FEA7B
:101D500014454FEA114724EA054621EA074C05FBE2
:101D600007F106FB07F70CFB06F24FF0000605FB38
:101D70000CFC12EB074241EB174112EB0C4251EB0A
:101D80001C4148BF7047921841EB0101A3F10103C8
:101D900070470000464910B54A6822F440324A6054
:101DA0004A6843681A434A6001684A6822F48072AC
:101DB0004A6001684A68036942EA03224A6001688E
:101DC0004A6822F040724A6001684A6883681A4390
:101DD0004A6001688A6822F400628A6001688A6841
:101DE000C3681A438A60816A6FF07062D1420168E9
:101DF0008A6822F070628A6001688A680CD0836AFF
:101E00001A438A6001688A6822F040528A60016839
:101E10008A68C36A1A4301E022F040528A6001686E
:101E20008A6822F002028A6001688A68037E42EAB8
:101E300043028A6090F82010002901684A680FD098
:101E400042F400624A6001684A6822F460424A60D3
:101E500001684A68174C436A04EB43331A4301E0B4
:101E600022F400624A600168CA6A22F47002CA62FF
:101E70000168CA6A838B104C04EB03531A43CA628D
:101E800001688A6822F400728A6001688A6890F8A2
:101E9000303042EA43228A6001688A6822F4806214
:101EA0008A6001688A68406942EA8020886010BDC3
:101EB0000023014000E0FFFF0000F0FFFEE70020EC
:101EC000704700207047000010B500220449054803
:101ED00004F0F4FE0449034804F0E3FE002010BDC2
:101EE0001C0F0020400600201C0B002010B50146EE
:101EF000034804F0D6FE024804F0ACFE002010BDFA
:101F00004006002000207047094A10B5D2F8BC22D4
:101F1000D2F814220AB1012010BD0A460146044835
:101F200004F0CCFEBDE81040014804F041BF0000C1
:101F300040060020014800F0A9BA0000EC01002092
:101F4000014800F0A3BA0000E8030020014800F0B7
:101F50009DBA000080050020014800F097BA0000FB
:101F6000D0020020014800F091BA0000480400208F
:101F7000014800F08BBA000030030020014800F057
:101F800085BA0000E005002001681823CAB2103AA3
:101F9000B2FBF3F2054B6FF30901032A9B5CC365A7
:101FA00000D9091D8165084670470000EE900008C1
:101FB00010B5014600208B698A6A4FF0C07453B196
:101FC000B3F5005F15D072B1012A0CD0022A0AD0F5
:101FD000032A09D104E01AB1012A06D0022A03D14A
:101FE000C96AC90100D5012010BDC96AA142FAD051
:101FF00010BD002AF7D0012AF2D0022AF3D0032A1A
:10200000F3D010BD30B50468256825F4802525601F
:10201000046863608368402B036803D0996000689C
:10202000C26030BD9A600068C16030BD70472DE964
:10203000F84F9A4644F20828074693460E460B4648
:10204000CDF8008000F06FF8751C48F210497C1C38
:10205000ABB2A9B2A0B25A46CDF8009000F063F836
:102060003A46534631461046CDF8008000F05BF802
:10207000A2B2A9B2A0B25346CDF8009000F053F836
:102080004FF6FF7453465A4619463846009400F0FE
:102090004AF85A46534631461046009400F043F839
:1020A000BDE8F88F2DE9F8431C464FF6FF78074648
:1020B00015460E460B46CDF8008000F034F83A463F
:1020C000234631461046CDF8008000F02CF8601E03
:1020D00083B281B248F21048781C80B22A46CDF80B
:1020E000008000F020F844F2082923462A461946C9
:1020F0003846CDF8009000F016F8681E82B2711CC8
:1021000089B280B22346CDF8008000F00CF82A4650
:10211000234631461046CDF8009000F004F8BDE8A3
:10212000F88372B6FEE72DE9F84F1C4615460E46B9
:10213000804603F000F9B5EB0805A4EB06044FF068
:10214000FF3002D44FF0010B01E083466D42002CBA
:1021500002DB4FF0010901E08146644268004FEA6A
:10216000440A0090A54219DDAAEB0504002711E0FE
:10217000314640460A9A00F02BF8002C04DB009808
:10218000241A06EB090086B208EB0B0054441FFA30
:1021900080F87F1CAF42EBDDBDE8F88F0098051B8F
:1021A000002712E0314640460A9A00F011F8002D4F
:1021B00005DB08EB0B00A5EB0A051FFA80F8009879
:1021C0007F1C054406EB090086B2A742EADDE3E77F
:1021D00010B514464A1C93B2421C92B203F082F826
:1021E0002046BDE8104003F017B82DE9F84F1C4613
:1021F0004EF67D7B87180D468046BAB20B46CDF869
:1022000000B0FFF790FF2C44601C7E1E42F6651A5A
:1022100083B205F10109B2B21FFA89F1B0B2CDF86B
:1022200000A0FFF780FFA3B2BAB2A1B24046CDF83A
:1022300000A0FFF778FF4246A3B229461046CDF82A
:1022400000B0FFF770FF0A980090641E08F10100CB
:10225000A3B2B2B21FFA89F180B2FFF764FFBDE802
:10226000F88F000078B50024009490F83C20012AF3
:1022700019D0012280F83C200A6807230568092A42
:1022800013D9EE680A3A02EB420293409E43EE6095
:102290000B788A680A3B03EB43039A400368DD68C6
:1022A0002A43DA6010E0022078BD2E6902EB420278
:1022B00093409E432E610B788A6803EB43039A4058
:1022C00003681D692A431A614A681F23072A13D22B
:1022D00005686E6B521E02EB820293409E436E6352
:1022E0000B790A885B1E92B203EB83039A40036862
:1022F0005D6B2A435A6327E005680D2A12D22E6BC4
:10230000D21F02EB820293409E432E630B790A8810
:10231000DB1F92B203EB83039A4003681D6B2A43D1
:102320001A6311E0EE6A0D3A02EB820293409E437B
:10233000EE620B790A880D3B92B203EB83039A405D
:102340000368DD6A2A43DA62164B0568144A9D4227
:1023500006D10D68122D03D1556845F480055560EE
:1023600005689D4218D10B68102B01D0112B13D199
:10237000536843F400035360096810290CD10A49DB
:102380000A4A0968B1FBF2F101EB8101490000E062
:10239000491E00910029FBD180F83C40002078BD07
:1023A00000230140002001400C00002040420F00AB
:1023B00070B504004FF0000503D0206C002610B16A
:1023C00007E0012070BD204600F01CF8666484F828
:1023D0003C60206CC00610D4206C20F4885040F083
:1023E000020020642046FFF7D5FC6664206C20F0D4
:1023F000020040F00100206400E0012584F83C6008
:10240000284670BD10B586B0044614216846FEF714
:1024100041F81149206888421CD110480021026807
:1024200042F480720260006800F4807005900B48EE
:102430001438026842F001020260006800F00100F6
:1024400005901E2000900320CDE901016946044853
:1024500000F0A0F906B010BD002001404438024051
:102460000000024090F83510022903D08021416518
:1024700001207047052180F835100068016821F0BF
:102480000101016000207047406D70472DE9F8435D
:1024900004464FF00009CDF8009063484FF4165100
:1024A000A56D0068B0FBF1F72E6894F85C10082069
:1024B00000FA01F131420FD021680A6852070BD5AA
:1024C0000A6822F004020A6094F85C108840A86050
:1024D000606D40F00100606594F85C104FF00108F9
:1024E00008FA01F0304208D021684969090604D58C
:1024F000A860606D40F00200606594F85C100420F4
:102500008840304208D021680968890704D5A8604E
:10251000606D40F00400606594F85C101020884005
:10252000304218D021680968090714D5A8602068CE
:102530000168490304D50068000308D5A16C07E0D1
:102540000168C90503D4016821F008010160216C0C
:1025500009B12046884794F85C102020884030421A
:1025600031D021680968C9062DD5A86094F83500D6
:1025700005282068016806D0490347D50068000394
:102580001DD4616C1CE021F01601016020684169D6
:1025900021F080014161206C08B9A06C20B1206855
:1025A000016821F00801016094F85C103F20884028
:1025B000A86084F8358084F83490216D1FE0E16BC9
:1025C00009B120468847606D00282BD0606DC00798
:1025D00014D0052084F835002068016821F001013D
:1025E00001600098401C0090B84203D82068006841
:1025F000C007F6D184F8358084F83490E16C002966
:1026000010D001B02046BDE8F04308470168C90575
:10261000D5D4016821F01001016084F8358084F878
:102620003490CCE7BDE8F8830C0000202DE9F041A0
:10263000044600F0A5F906465CB1022084F8350096
:10264000002584F834502068016821F00101016000
:102650000DE00120BDE8F08100F092F9801B052813
:1026600005D920206065032084F83500F2E7206852
:102670000068C007F0D12268116820480140D4E901
:1026800001031843D4E903363343184363691843FD
:10269000A3691843E3691843236A18430843616A2E
:1026A000042903D1D4E90B131943084310602068AF
:1026B0004069666A20F0070130460E43012704286E
:1026C0000CD1A06A0643E06A40B12046FFF770FCD7
:1026D00020B14020606584F83570BAE72068466113
:1026E0002046FFF751FC94F85C203F219140816027
:1026F000656584F835700020ACE700003F8010F07D
:102700002DE9F0410446866D90F83400002501283B
:102710000DD0012084F8340094F835700020012F8A
:1027200007D084F8340002252846BDE8F081022055
:10273000FBE7022784F8357060652046FFF762FCEE
:1027400094F85C103F208840B0602068016841F038
:1027500016010160206C20B12068016841F0080179
:1027600001602068016841F001010160DCE70000C0
:1027700070B5044600F004F90546601C02D0044818
:102780000078044400F0FCF8401BA042FAD370BD6E
:10279000000000202DE9F84FDFF8B8A10022012445
:1027A00003254FF00F090AF1040BAAF1040E00BF34
:1027B0000B6804FA02F63340B34273D10F7907F085
:1027C0000307012F01D0022F16D187684FEA420874
:1027D00005FA08FC27EA0C07D1F80CC00CFA08FC33
:1027E0004CEA070CC0F808C04768B7430E79C6F337
:1027F000001696403E4346600E79F643B6070DD06C
:10280000C768560005FA06FC27EA0C07D1F808C08D
:102810000CFA06FC4CEA070CC0F80CC00E7906F066
:102820000306022E10D1D60800EB8608D8F82060E7
:1028300057074FEAD76C09FA0CF7BE430F6907FA3E
:102840000CF73743C8F8207006684FEA420C05FAC7
:102850000CF7BE430F7907F0030707FA0CF737436D
:1028600007604E6816F4403F6DD03B4E376847F422
:1028700080473760366822F0030706F480460096EA
:10288000364E07EB060CDCF8086897073F0F09FA8D
:1028900007F826EA0806DFF8C880404503D14FF064
:1028A00000081EE04FE0DFF8BC80404502D14FF049
:1028B000010816E0DFF8B080404502D14FF0020871
:1028C0000FE0DFF8A880404502D14FF0030808E090
:1028D000DFF89C80404502D14FF0040801E04FF042
:1028E000070808FA07F848EA0608CCF80888DAF872
:1028F00000605746D1F804C09E435FEACC2C00D557
:102900001E433E60DBF800605F46D1F804C09E4382
:102910005FEA8C2C00D51E433E60DEF800607746EF
:10292000D1F804C09E435FEA8C3C00D51E433E6054
:10293000084F083F3E68D1F804C09E435FEACC3C94
:1029400000D51E433E60521C102AFFF431AFBDE893
:10295000F88F0000083C014044380240003001403C
:10296000000002400004024000080240000C024047
:10297000001002400AB1816170470904FBE70000C2
:102980000148806870470000000000202DE9FF41E9
:1029900004460068816800917749784E4FF04027DF
:1029A000884201D1324600E03A469268019240687E
:1029B0008846029001D1304600E0384640680390D6
:1029C00060684FF00105B0F5007F1CD0D8B19007CA
:1029D00005D50398000602D5204602F057FB009863
:1029E000C0070FD0029840067FD521682046CA68EC
:1029F000E16A8B1CE3620A80618E491E6186618EEA
:102A0000002967D071E00098800719D50298000668
:102A100016D5616A20468A1C626222680988D160E4
:102A2000618D491E6185618D51B901684A6822F046
:102A3000A0024A60418E19B980F8415000F0A0F818
:102A40000198C00705D00398400602D5204602F041
:102A5000EDFA0198400622D5039880061FD521681B
:102A6000414501D1304600E03846406820F0600121
:102A700001D1304600E0384641602068416821F0CD
:102A8000A00141602068C1688068019084F84150CD
:102A9000606C40F002006064204600F072F800981C
:102AA000000767D50298800664D52068416821F048
:102AB000A00141602168414501D1304600E038461F
:102AC000406820F0600000D03E467060206880685A
:102AD000009043E001684A6822F060024A60418D3C
:102AE00019B980F8415000F04BF8009840061ED507
:102AF000029880061BD52068416821F06001416082
:102B00002168414501D1304600E03846406820F058
:102B1000A00101D1304600E03846416084F84150C0
:102B2000606C40F002006064204600F02AF80198D2
:102B300000071FD5039880061CD52168414501D1A7
:102B4000304600E03846406820F0A00000D03E4605
:102B500070602068416821F06001416084F8415054
:102B6000606C40F00400606404B02046BDE8F041B1
:102B700000F007B8BDE8FF81003800400034004095
:102B8000704770472DE9F047040005D094F84100E4
:102B90004FF0000818B109E00120BDE8F08784F883
:102BA000408051486063204600F0A6F8022684F871
:102BB00041602068C16940F6BF77B943C1612068B0
:102BC000066260694FF4007902282FD0E06870B186
:102BD0002025A068202800D86D00012000F09CFE70
:102BE000216949451FD1E16819B1A90002E010250A
:102BF000EFE7E900B0FBF1F000EB80006169400015
:102C0000B0FBF1F0401D0A21B0FBF1F000F0010132
:102C1000401A40080902821EFE2A09D3606C40F067
:102C200010006064B8E7B0FBF5F0E5E70220002192
:102C300022690843024320680262D4E90101084383
:102C4000A269E168114308432168CA69BA43104385
:102C500040F40060C861206A01283AD123486063CB
:102C600023482168234A4FF04023814201D1114675
:102C700000E01946C96921EA070101D1154600E0C3
:102C80001D46E9612168814201D1114600E01946E3
:102C90000E622568854201D1114600E01946C969D6
:102CA0008EB2616849451BD0D1B100212789B4F8A3
:102CB0000CC047EA0C07B4F818C04CEA010C47EA0C
:102CC0000C07B9B2314341F40061854200D01A4685
:102CD000D161C4F84480012084F8410000205CE701
:102CE0004FF48071E2E70000ED5000088D290008E4
:102CF000003800400034004070B58CB00646142106
:102D00006846FDF7C7FB142105A8FDF7C3FB23495F
:102D10003068884240D10120059032200224CDE95C
:102D2000060405A800F028FE08B1FFF7FAF91C48D0
:102D30000025016841F480410160006800F4804092
:102D40000A9017481038016841F0020101600068DC
:102D5000694600F002000A904FF430408DE83100DF
:102D60000520CDE903500F48FFF714FD0F4C0E4826
:102D7000C4E900054020C4E902050001C4E90405D6
:102D8000A561E561256220466562FFF74FFC08B149
:102D9000FFF7C7F9B463A6630CB070BD00380040FC
:102DA000403802400004024070600240EC01002004
:102DB000704770470248816802781144816070470B
:102DC000000000200B4810B5016841F4007101605B
:102DD000016841F480610160016841F48071016023
:102DE000032000F06FF80F2000F006F800F024F840
:102DF000002010BD003C024070B50D4D04464FF45C
:102E00007A712878B1FBF0F00A490968B1FBF0F05B
:102E100001F060FF48B9102C07D200222146501E55
:102E200000F030F800206C6070BD012070BD000023
:102E3000000000200C0000200A4808B5016841F499
:102E400080410160006800F4804000900548001F48
:102E5000016841F080510160006800F080500090EE
:102E600008BD000044380240002809DB00F01F02C2
:102E7000012191404009800000F1E020C0F80011DC
:102E800070470000F0B40E4B1B680C46C3F30223DE
:102E9000C3F10705042D00D90425191D072901D206
:102EA000002300E0DB1E012606FA05F1491E214041
:102EB00099409E40761E16403143F0BC05F0D9BAC9
:102EC0000CED00E0064900F0070208684FF6FF032A
:102ED000184040EA0220034A10430860704700008F
:102EE0000CED00E00000FA05704700684162002028
:102EF0007047F0B50368586A39B19C6A4FF482761E
:102F000000EB144400204D1E0AE040EA02409862A3
:102F10000FE006EB8007DF59401C04EB1744C0B2FA
:102F2000A842F6D344EA02404FF4807202EB8101DA
:102F300058500020F0BDD0F8E00404F0C6B901EB11
:102F4000C10200EB8202D0F8E004126A04F01BB95F
:102F500001EBC10200EB8202D0F8E004D2F860225B
:102F600004F06CB9D0F8E00404F0B1B90A0601F03D
:102F70000F0101EBC10100EB810101D5143101E02A
:102F800001F51571006805F08DB870B504460B06A3
:102F900001F00F0000EBC00104EB81014FF00102D2
:102FA0004FF0000502D54A75143103E081F85552FF
:102FB00001F51571087094F89404012808D084F87C
:102FC0009424206804F088FD84F89454002070BD97
:102FD000022070BD70B5044601F00F0022799042C6
:102FE00001D9012070BD0B0601F00F0101EBC101F9
:102FF00004EB81014FF001024FF0000502D54A7544
:10300000143103E081F8555201F515718D70087087
:1030100094F89404012808D084F89424206804F0DB
:10302000CDFE84F89454002070BD022070BD01F0E4
:103030000F0101EBC10100EB8100D0F8680270477D
:103040002DE9F04104460F0601F00F0000EBC0012E
:1030500004EB81014FF001064FF0000502D54E75DB
:10306000143103E081F8555201F51571C2F30A02DB
:1030700008708A600B714A7802B14883022B00D134
:103080004D7194F89404012809D084F89464206860
:1030900004F074FC284684F89454BDE8F0810220C2
:1030A000FBE710B501F00F0404EBC40100EB810154
:1030B000C1E998230023C1F8683281F8553281F8BC
:1030C0005442837901F51571012B00D1CA618279CF
:1030D000006804F0CBFE002010BD70B504460D461C
:1030E00001F00F002179884201D9012070BD290625
:1030F0004FF000064FF0010206D500EBC00104EBD3
:1031000081014A75143107E005EBC50104EB81012B
:1031100081F8556201F515718A70087094F894046D
:10312000012807D084F89424206804F073FE28074F
:1031300002D007E0022070BDA17904F29C42206811
:1031400004F010FE84F89464002070BD10B501F006
:103150000F0404EBC40100EB8101C1E90823002343
:103160008B6201234B7501F8144F8379012B00D139
:10317000CA618279006804F079FE002010BD000069
:103180002DE9FC5F05680446284605F027F800286D
:103190007DD1206805F04EF8002878D0D5F80808D1
:1031A000C0F30D20C4F8D404206805F043F880076C
:1031B00004D52068416901F002014161206805F0F1
:1031C00039F8C10604F29C40009034D5206881692A
:1031D00021F0100181612F6A07F00F0000EBC000A1
:1031E00004EB8006C7F3434006F51576022802D0AB
:1031F000062811D01AE047F6F070074216D0C7F340
:103200000A1217462846F16805F018F8F0683844A5
:10321000F0607069384408E008222846009905F0FB
:103220000DF87069C7F30A1108447061206881695C
:1032300041F010018161206804F0FCFF00034FF0B1
:10324000080B4FF0000A4FF001097CD500262068DA
:1032500004F0CFFF074674E0F80770D0F1B22068A1
:1032600004F0E0FF8046C00707D005EB4611C1F827
:10327000089B3146204602F0BDFA5FEA087024D56B
:1032800005EB4611C1F808BB2068016C00E023E2A1
:1032900000EB46100191D0F8082BFB4B994205D961
:1032A000110403D54FF40041C0F8081B204600F07C
:1032B000F3FAF5490198884207D9A079012804D189
:1032C00020680121009A04F04DFD5FEAC86004D532
:1032D00005EB46111020C1F8080B5FEA88701DD578
:1032E0006869000605D5D5F8040840F48061C5F882
:1032F000041806EBC60004EB800090F8571200F5A6
:103300001570012905D180F803A0F1B2204600F024
:10331000E9F905EB46110220C1F8080B5FEA886065
:1033200004D505EB46102021C0F8081B5FEA884051
:1033300005D505EB46104FF40051C0F8081B7F0877
:10334000761C002F88D1206804F074FF40036ED5EE
:10335000206804F047FF0746002666E0F80762D0C1
:10336000F1B2206804F04CFF8046C00723D006F07D
:103370000F01D5F8342809FA01F18A43C5F8342839
:1033800005EB4611C1F80899A07901280FD106EB89
:10339000C60004EB8000D0E907211144016236B970
:1033A000606A20B920680121009A04F0DBFCF1B2C8
:1033B0002046FFF7C4FD5FEA087003D505EB461110
:1033C000C1F808B95FEAC86004D505EB46111020C2
:1033D000C1F808095FEA486004D505EB46104021B2
:1033E000C0F808195FEA887016D53146284604F0FF
:1033F000CAFE06EBC60004EB8000C17D1430012933
:1034000005D180F803A0F1B2204600F067F905EB82
:1034100046110220C1F808095FEA086003D5314669
:10342000204602F04DFA7F08761C002F96D12068C6
:1034300004F000FF002811DAD5F8040820F001019B
:10344000C5F8041894F8CC0401282BD0204600F0CD
:1034500008FA2068416901F000414161206804F0E8
:10346000E9FE00050BD5D5F80808C00702D02046B4
:1034700000F03AFA2068416901F400614161206876
:1034800004F0D8FEC00467D5D5F8040820F0010088
:10349000C5F804081021206804F075FE00214FF6DD
:1034A0007F3220E084F8CCA400212046FFF71CFDE9
:1034B000CFE700BF05EB4110C0F80829D0F800396C
:1034C00023F40013C0F80039C0F8082BD0F8003BF3
:1034D00023F40013C0F8003BD0F8003B43F0006336
:1034E000C0F8003B491C20798842E3D8D5F81C0875
:1034F00040F00111C5F81C18E07B002828460DD0CB
:10350000D0F8840840F00B01C5F88418D5F84408B9
:1035100040F00B012846C5F844180DE0D0F8140817
:1035200042F22B010843C5F81408D5F8100840F002
:103530000B012846C5F81018D0F8000820F4FE61E9
:10354000C5F80018A1792068009A04F00BFC2068E7
:10355000416901F480514161206804F06BFE8004F0
:1035600015D5206804F04AFA206804F02AFEE071BC
:1035700000F044FB0146E279206804F0BDFE2046DD
:1035800000F05CF92068416901F400514161206854
:1035900004F050FE000707D5204600F066F92068C9
:1035A000416901F008014161206804F043FE000612
:1035B00016D5A86920F08001A96101260DE000BFA1
:1035C00006EBC60004EB800090F85702012803D1F7
:1035D000F1B22046FFF7CAFC761C2079B042EFD842
:1035E000206804F027FEC0021FD501264F4614E0D4
:1035F00005EB4610D0F8001906EBC60004EB80027C
:10360000107E012808D1002906DAF0B240F08001CE
:10361000D7752046FFF7AAFC761C2079B042E7D880
:103620002068416901F480114161206804F002FEC4
:10363000800234D501204A4629E000BF05EB401145
:10364000D1F8001B00EBC00304EB830393F858622E
:10365000012E1BD1002919DA94F8D46401F48031C9
:1036600006F00106B14211D183F85722A96941F051
:103670008003AB616969090608D4D5F8040840F4F1
:103680000070C5F8040805E00A30544F401C217949
:103690008142D3D82068416901F40011416120685A
:1036A00004F0C8FD400007D52046FFF744FC206821
:1036B000416901F080414161206804F0BBFD400791
:1036C0000AD520684568680702D52046FFF74AFCFE
:1036D0002068416829434160BDE8FC9FD0F8E004C0
:1036E00003F047BED0F8E00403F057BEF8B504007D
:1036F00005D094F895042668002510B106E0012055
:10370000F8BD84F89454204600F056F8032084F85D
:103710009504B6F1A04F00D1A571206804F01CFB00
:10372000207C8DF8000094E80F0004F075F9022663
:10373000B8BB0021206804F0A0FD90BB0020012749
:103740000DE000BF00EBC00104EB81014F7508756F
:10375000C8850D76CD610D62401CC0B24D622179E5
:103760008142EFD8002011E000EBC00104EB8101A1
:1037700081F8555281F8540281F85852C1F85C52D0
:10378000C1F86052401CC0B2C1F864522179814234
:10379000EAD8207C8DF8000094E80F0004F01EFAAF
:1037A00010B184F89564AAE7657484F8957420686C
:1037B00004F006FA0020F8BD10B586B004461421C6
:1037C0006846FCF767FE2068B0F1A04F2FD119487A
:1037D0000021026842F001020260006800F001006E
:1037E00005904FF4C05000900220CDE90101032064
:1037F00003900A20049069460F48FEF7CBFF0D485E
:10380000001D016841F0800101600A481430016820
:1038100041F4804101600068002200F4804005907E
:1038200011464320FFF72EFB4320FFF71DFB06B098
:1038300010BD0000303802400000024070B5044660
:10384000C0790125022801D0FEF76BFC2946D4F887
:10385000E00403F010FED4F8E004BDE8704003F08B
:10386000C5BDD0F8E00403F0EFBDD0F8E00403F0EC
:10387000F5BD10B5044690F8940401280AD0012043
:1038800084F894046174206804F025FD002084F815
:10389000940410BD022010BDD0F8E02400F29C4139
:1038A000104603F0F4BD10B50446006894F8941473
:1038B000012909D0012184F89414C168490609D569
:1038C000617B012902D005E0022010BD816B41F42B
:1038D00080318163206804F034FC206804F062F9D0
:1038E000002084F8940410BD10B50446D0F8E0041C
:1038F00003F00FFE2068D0F8001E41F00101C0F86F
:10390000001EE07A002804D00248016841F0060158
:10391000016010BD10ED00E001460020012908D132
:103920001149096811F4000104D0B1F5000F00D16C
:103930000E4870470C48001F01680068490200F0FB
:103940003F0001D50A4900E00A49074AB1FBF0F0FF
:103950007C321168C1F3881141431068C0F30270D2
:10396000B1FBF0F070470000083802400080BB0057
:1039700000127A000024F4002DE9F84304460068A0
:103980004FF00109C1074FF0000601D1400727D5CC
:10399000DFF81C81C8F86860FEF7F2FF0746454D66
:1039A00005E000BFFEF7ECFFC01B022857D82868CF
:1039B0000001F7D460688101207A41EA00703D4936
:1039C00084310860C8F86890FEF7DAFF074604E023
:1039D000FEF7D6FFC01B022841D828680001F7D5A2
:1039E0002078800752D533484030016841F080513B
:1039F00001600068304D00F080500090286840F46D
:103A000080702860FEF7BCFF074604E0FEF7B8FFB1
:103A1000C01B022823D82868C005F7D5254D70356E
:103A2000286810F4407020D0A18901F440718142CF
:103A30001BD0286820F440712048C0F80090066030
:103A400029602868C00710D0FEF79AFF064641F2A9
:103A5000883707E0FEF794FF801BB84202D90320A5
:103A6000BDE8F88328688007F4D5E1681148C1F300
:103A700001220830032A12D0016821F4F8110160F4
:103A80002868A189C1F30B0108432860207800074A
:103A900003D50B49207CC1F8E0010020E0E7026873
:103AA000084B22F4F81219400A430260E8E70000CC
:103AB000000047420038024000700040400E47427C
:103AC00000104742FFFCFF0F2DE9F0470E460500AE
:103AD00065D0DFF81481D8F80000F7B200F00700D5
:103AE000B04207D288F80070D8F8000000F0070054
:103AF000B04254D128683D4C810712D5400703D508
:103B0000206840F4E05020602878000703D5206842
:103B100040F4604020602068A96820F0F00008436D
:103B200020602878C0072DD03049686808390128FE
:103B300012D0022813D0032811D009688907002960
:103B40002DDA216821F0030101432160FEF718FFFF
:103B5000814641F2883A0EE009688903EFE7096877
:103B60008901ECE7FEF70CFFA0EB0901514502D9F2
:103B70000320BDE8F0872068696800F00C00B0EB16
:103B8000810FEFD1D8F80010404601F00701B14293
:103B900007D90770006800F00700B04201D001208B
:103BA000E7E72878400705D52068E96820F4E05069
:103BB000084320602878000706D52068296920F48A
:103BC000604040EAC100206000F03EF82168084AE9
:103BD000C1F30311515CC8400649086006480068FB
:103BE000FFF70AF90020C4E7003C02400838024011
:103BF000F69000080C000020040000200148006836
:103C0000704700000C00002004480549006809685E
:103C1000044AC1F38221515CC84070470C00002067
:103C20000838024006910008044805490068096800
:103C3000044AC1F34231515CC84070470C00002077
:103C40000838024006910008154810B5006810F0C9
:103C50000C02144813D04110042A0FD0082A0ED1A8
:103C60000F4C241F2268236802F03F025B0207D535
:103C70002068C0F38810A0FB010106E0084610BDD3
:103C80002168C1F38811A1FB00010023FCF768FB48
:103C90002168C1F30141491C4900B0FBF1F010BD9E
:103CA000083802400024F4002DE9F84F04006ED0DB
:103CB0002078DFF84C93C007A9F104054AD009F138
:103CC00004000168C1F38101012908D00068C0F334
:103CD000810002280AD1D9F80000400206D52868E0
:103CE000800337D560680028E1D033E06068B0F524
:103CF000803F10D0B0F5A02F286810D020F480307D
:103D00002860286820F4802028606068A8B1FEF749
:103D100037FE06460DE0286840F48030F4E740F4B2
:103D200080202860F7E700BFFEF72AFE801B64288A
:103D300073D828688003F7D50CE0FEF721FE06460D
:103D400005E000BFFEF71CFE801B6428F0D8286841
:103D50008003F7D42078DFF8AC8280074FF0000AA8
:103D60003ED5A748001D016811F00C0F08D000686F
:103D7000C0F3810002280BD1D9F80000400207D41B
:103D80002868800716D5E068012800D112E033E1E9
:103D9000E068B8B10120C8F80000FEF7F1FD064662
:103DA00005E000BFFEF7ECFD801B0228C0D82868A4
:103DB0008007F7D52868216920F0F80040EAC100A3
:103DC00028600DE0C8F800A0FEF7DAFD064604E022
:103DD000FEF7D6FD801B02281FD828688007F7D47D
:103DE0002078000722D5864F87486169703771B106
:103DF00001210160FEF7C4FD064604E0FEF7C0FDA8
:103E0000801B022809D838688007F7D50EE0C0F873
:103E100000A0FEF7B5FD064605E082E0FEF7B0FD26
:103E2000801B02287DD838688007F7D420784007A7
:103E300068D5DFF8CCB100270BF13C0BDBF80000B4
:103E4000C0000BD4DBF8001041F08051CBF800101B
:103E5000DBF80000012700F0805000906B4E3068C6
:103E6000C00510D4306840F480703060FEF788FDE3
:103E7000009005E0FEF784FD0099401A022850D812
:103E80003068C005F6D55E4EA0686C3601280FD0AC
:103E90000528306810D020F001003060306820F034
:103EA00004003060A068B8B1FEF76AFD00900FE032
:103EB000306840F00100F4E740F004003060F7E7BC
:103EC000FEF75EFD0099411A41F28830814266D8C2
:103ED00030688007F4D50EE0FEF752FD009007E051
:103EE000FEF74EFD0099411A41F28830814256D8C2
:103EF00030688007F4D42FB1DBF8001021F0805136
:103F0000CBF80010A069C8B33D49091D0968C1F389
:103F1000810102294AD00228504607D0C8F8600023
:103F200000E03CE0FEF72CFD04463BE04746C8F8C5
:103F30006000FEF725FD064605E000BFFEF720FD08
:103F4000801B02282BD828688001F7D4D4E9070108
:103F50000843A16A2E4A490802EB0141626A41EA1C
:103F60008211084394F82C1040EA0161C9F800104E
:103F700001203866FEF704FD044606E03EE000BF7F
:103F8000FEF7FEFC001B022809D828688001F7D53F
:103F900034E000BFFEF7F4FC001B022802D9032026
:103FA000BDE8F88F28688001F4D427E00128F7D015
:103FB000D9F80000E26900F4800191421CD1226A24
:103FC00000F03F01914217D147F6C071626A01408B
:103FD000B1EB821F10D1A26A4FF0FF3300F44031E1
:103FE00003EB5202B1EB024F06D194F82C1000F013
:103FF0007060B0EB016F01D00120D1E70020CFE766
:104000000438024000004742800E474200700040E2
:104010000000FFFF704700002DE9FE430446002624
:1040200003200D4684F83400606C03285ED0B5F59B
:10403000805F5BD04FF4006700204FF08068BD4286
:104040001FD18146009001900021206801F0A0FC62
:10405000800113D46946204602F033F807000DD1E1
:104060000198400334D5B4F850000104206801F0F1
:10407000C7FC070002D10221206823E0A06B38436F
:1040800028E01DB1A06B40F0006023E08146009065
:1040900001900021206801F07BFC8001EED469468C
:1040A000204602F00EF80700E8D10198C0030FD5B2
:1040B000B4F850000104206801F0A2FC0700DDD133
:1040C0000021206801F0E9FC0700D7D14F46D5E771
:1040D0004746D3E7A063A06B144F4FF0010848B1E7
:1040E0002068876384F8348001260EE0A06B40F0DE
:1040F0008050EFE7211DD4E9050C0EC9CDE9005031
:10410000CDF808C0206801F04DFC4FF40071206824
:1041100001F0AAFC28B121688F63A16B0143A16360
:10412000012684F834803046BDE8FE83FF05400058
:10413000704750F8742F120E0A700268120A4A80F3
:1041400002784368120642EA13224A6002790A7230
:104150008268120E4A728268C368120242EA1362CF
:10416000CA60C268C2F303520A74C268C2F30B2267
:104170004A82007BC0F34600087501204875002084
:1041800070470000F0B5426E920F0A70426EC2F3A3
:1041900083624A70426EC2F301628A70426E120CF0
:1041A000CA70B0F86420120A0A7190F864204A714B
:1041B000826E120DCA80826EC2F303420A72B0F898
:1041C0006820C2F3C0324A72B0F86820C2F380326D
:1041D0008A72B0F86820C2F34032CA72B0F8682020
:1041E000C2F300320A7300264E73426C4FF400751E
:1041F000012462B1012A3AD0026847499163816B78
:1042000041F08051816380F834400120F0BDB0F866
:104210006820C36E9205120D42EA93720A61C26E63
:10422000C2F3C2620A75C26EC2F302624A75C26EFE
:10423000C2F342528A75C26EC2F38242CA75C26E1E
:10424000C2F3C2320A760A69521C42650B7E03F041
:1042500007039B1C9A4042650B7A03F00F0704FA90
:1042600007F383655B0A5A43C0E917250EE090F80F
:104270006820C36E9206920A42EA13420A610A69F2
:10428000521C92024265C0E91652056630F86C2F46
:10429000C2F3803201F8192F0288C2F3C6124A70A5
:1042A000027802F07F028A704268D20FCA704268B8
:1042B000C2F341720A714268C2F382624A71426873
:1042C000C2F383528A714268C2F34052CA710E72BD
:1042D0004268C2F300424A728288C2F3C0328A72D4
:1042E0008288C2F38032CA728288C2F340320A7373
:1042F0008288C2F300324A738288C2F381228A73B1
:104300008288C2F30122CA730079C0F346000874A0
:104310004C740020F0BD0000FF05400070B504465D
:10432000B0F8500000250104206801F09EFC18B18F
:10433000A16B0143A16304E00021206801F028FB88
:104340000546C5F3432070BDF8B5056B044600680B
:10435000416B09041BD5290719D5D4E90A56002E4B
:1043600014D00027206801F033FB05F8010B010A87
:1043700005F8011B010C05F8021B000E361F7F1CFF
:1043800005F8010C082FEDD3C4E90A56F8BD416BBE
:104390004FF00006C9054FF0010744D5390281638B
:1043A0002068C16B4CF23A329143C1632068C16A04
:1043B00021F00101C16228071DD515F0220F09D097
:1043C000206801F083FC28B1A16B0143A163204662
:1043D000FFF7AEFE216840F23A50886384F83470EB
:1043E0002663A80703D0204600F040FAF8BD204617
:1043F00000F03DFAF8BD2806FCD5A80609D52068CE
:1044000001F064FC28B1A16B0143A1632046FFF7D2
:104410008FFEA807EED12068C16A21F00801C162B1
:1044200084F83470E3E7416B490424D5290722D589
:10443000D4E90856002EDDD05FF0000715F8010B17
:10444000009015F8011B361F40EA0120009015F876
:10445000021B40EA0140009015F8011C40EA01608F
:1044600000906946206801F0C6FA7F1C082FE5D34A
:10447000C4E90856F8BD416B40F23A221142F9D026
:10448000416B890703D5A16B41F00201A163416B28
:10449000090703D5A16B41F00801A163416B8906AF
:1044A00003D5A16B41F02001A163416BC90603D57F
:1044B000A16B41F01001A163416B890503D5A16B8C
:1044C00041F00801A16340F23A7181632068C16B39
:1044D00040F23A329143C163206801F0F7FBA16BCF
:1044E0000843A063280706D584F834702663204665
:1044F000FFF71EFEF8BD2806FCD515F0300F0CD0D6
:10450000E16B11480865E06BFDF7ACFF0028F1D0C6
:10451000E06BBDE8F84001F0B2BDA8070CD0216CFB
:104520000A480865206CFDF79DFF0028E2D0206C4A
:10453000BDE8F84001F081BDA66384F834702663BD
:104540002046FFF767FDF8BD7F6000083B6000086C
:1045500070B504000ED094F83400002518B9257702
:10456000204600F04FF8032084F83400204600F085
:104570000BF808B1012070BDA5632563012084F804
:104580003400002070BD0000FEB5002504467620F2
:104590000095CDE9015029460B460A46206801F0F6
:1045A00001FA48BB154E46F8A05F206801F00CFAEE
:1045B000012535600220FEF7DBF8204601F068FE99
:1045C00030B100BF84F83450A16B0143A16313E004
:1045D000204601F0E6FD0028F4D14FF40071206878
:1045E00001F042FA002808D0226805499163A16BC6
:1045F0000143A16384F834500120FEBD00802542B0
:10460000FF0540002DE9F04F87B0054614216846AC
:10461000FBF740FF4649286888427DD1454800683D
:10462000444940F400600860086800F400600590A8
:104630004048143800683F4940F0040014390860CD
:10464000086800F004000590086840F00800086061
:104650000868022400F0080005904FF4F850CDE9F6
:10466000000402AA002003264FF00C0882E8410152
:1046700069463148FEF78EF802AA002082E841011F
:104680000427CDE9007469462C48FEF783F82D4CC9
:104690002B484FF00068C4E9000800204FF48069FF
:1046A000A060C4E90309B8024FF4804BC4E9050BCC
:1046B000C4E909764FF0200A0020C4E907A07E056E
:1046C000B7102046C4E90B67FDF7B0FF08B1FDF74E
:1046D00028FD2C64A5631B4C194860344830C4E99C
:1046E00000084020A0600020C4E90309C4E907A035
:1046F0000420606204F12802032082E8C1004FF424
:104700008051C4E9051B2046FDF790FF08B1FDF775
:1047100008FDEC63002200E007E011463120A563AC
:10472000FEF7B0FB3120FEF79FFB07B0BDE8F08F2E
:10473000002C01404438024000080240000C0240B6
:1047400058640240D00200202DE9F04786B01F4691
:104750000446154639B194F83400012807D00220E8
:1047600006B0BDE8F087A06B40F0006008E00020D4
:10477000A063E36DEA199A4204D9A06B40F000707F
:10478000A06369E0032284F8342022688146D06265
:104790002268D36B40F22A363343D363236C2F4A0B
:1047A000DA63236C2E4ADA64226C1065226C906006
:1047B000206C0068026822F0C002026020680A468D
:1047C000266C4FEA472800F180014FEA98033046F3
:1047D000FDF796FFDFF88CA0012670B12068C16B51
:1047E00021F49571C1632168C1F838A0A06B40F035
:1047F0008040A06384F834602EE01B480660606C43
:10480000012800D06D024FF0FF30CDE90008902064
:10481000029002200596CDE903096946206801F05F
:10482000A1F8012F06D9822020632946206801F0D3
:104830008DF905E0812020632946206801F09FF969
:1048400000288DD02268C2F838A0A16B0143A16373
:1048500084F83460C4F83090012081E7F95F0008E3
:10486000955F0008FF0540008C8525427047704722
:10487000704770B5040009D0606A002540B1256119
:104880006561A56294F8510040B10CE0012070BD53
:104890006068B0F5827FF4D0E561F2E784F85050AB
:1048A000204600F045F8022084F851002068016895
:1048B00021F040010160A088218900F4827001F498
:1048C00004410843A18901F400610843217C01F0FF
:1048D00002010843217D01F001010843218B01F40D
:1048E00000710843217F01F03801084394F820103B
:1048F00001F080010843218D01F400510843216833
:104900000860A069042101EA104094F8241001F025
:1049100010010843216848602068C16921F40061E2
:10492000C1616565012084F85100002070BD000060
:104930002DE9F04186B0064614216846FBF7AAFD32
:104940002C493068884251D12B480024016841F439
:1049500080510160006800F48050059026481438AA
:10496000016841F0010101600068694600F0010042
:104970000590E02000900220019001200290032089
:104980000390052004901D48FDF704FF1D4D1C48B1
:104990004FF0C0672860C5E901744FF48068C5E92D
:1049A00003486C61AC61EC612C6228466C62FDF7D7
:1049B0003DFE08B1FDF7B5FBF564AE63114D10483F
:1049C00060357830E5E802074020A5E811010D4880
:1049D00045F814496030AC61EC612C626C62FDF703
:1049E00025FE08B1FDF79DFBB564AE6306B0BDE8DA
:1049F000F0810000003001404438024000000240D5
:104A000010640240E803002070B5044690F851009D
:104A1000012829D1A068042318B96568B5F5827FFB
:104A200017D0F9B1F2B194F85050012D1CD00125E6
:104A300084F8505084F8513000256565A163A28741
:104A4000E28725646564A586E586B0F5004F0DD044
:104A500016E084F851302046BDE8704013460A46FF
:104A600000F046B8012070BD022070BD20680168CA
:104A700021F0400101602068016821F4804101605B
:104A8000E16C17480864E16C1648C863E16C16488D
:104A9000C864E06C0565E38F2168A26B0C31E06CA3
:104AA000FDF72EFE30B1606D40F01000606584F8B7
:104AB0005050D7E720680168490603D4016841F0E7
:104AC0004001016084F850502068416841F02001A5
:104AD00041602068416841F001014160002070BDE3
:104AE00067630008856300084563000870477047E6
:104AF00070B5044690F851006568012806D0B5F5F8
:104B0000827F3AD1A568A5BB042836D191B38AB378
:104B100083B394F8500001282FD0012084F850006E
:104B200094F85100042802D0052084F85100002593
:104B300065652163A386E386A263A387E387256473
:104B4000656494F85100042819D0E16C2748086482
:104B50002748E16CC863E16C2648C864E06C0565D1
:104B6000E38F2168A26B0C31E06CFDF7C9FD00BB3F
:104B70000AE002E0FFE7012070BD022070BDE16C99
:104B80001D4808641D48E4E72068416841F00101C0
:104B90004160A06C0564A06CC563A06CC564A06C8A
:104BA0000565E38E2268216B0C32A06CFDF7A8FD31
:104BB00030B1606D40F01000606584F85050DAE765
:104BC00020680168490603D4016841F04001016092
:104BD00084F850502068416841F02001416020680D
:104BE000416841F002014160002070BD7B63000814
:104BF0005364000845630008676300088563000884
:104C000070B5044690F8510001281CD1C9B1C2B159
:104C100094F85000012816D0012084F85000032099
:104C200084F85100002565652163A286E286A563AC
:104C300065642564A587E587A068B0F5004F04D0BA
:104C40000DE0012070BD022070BD2068016821F0D8
:104C5000400101602068016841F480410160A16C5D
:104C600017480864A16C1748C863A16C1648C8644B
:104C7000A06C0565E38E2268216B0C32A06CFDF7F9
:104C80003FFD30B1606D40F01000606584F8505019
:104C9000D7E720680168490603D4016841F0400164
:104CA000016084F850502068416841F02001416063
:104CB0002068416841F002014160002070BD0000A1
:104CC00071630008EF630008456300087047704790
:104CD0007047704710B5401EB0F1807F01D30120AE
:104CE00010BD4FF0E02460610F21601703F0C1FB9D
:104CF0000020A06107202061002010BD70B590F851
:104D00003C20012A2CD0012480F83C40022280F86B
:104D10003D2003685A689D6822F070060A68324395
:104D20005A60104B02689A420ED0B2F1804F0BD0FD
:104D30000D4B9A4208D00D4B9A4205D00C4B9A422B
:104D400002D00C4B9A4204D1496825F080031943E4
:104D5000916080F83D40002180F83C10084670BD0D
:104D6000022070BD00000140000400400008004027
:104D7000000C00400040014010B5040003D094F83E
:104D80003D0010B107E0012010BD002084F83C0078
:104D9000204600F01FF8022084F83D00211D206805
:104DA00001F09EFC012084F8460084F83E0084F85F
:104DB0003F0084F8400084F8410084F8420084F801
:104DC000430084F8440084F8450084F83D00002046
:104DD00010BD000008B500680949884201D10948A2
:104DE00004E0B0F1804F09D10648001F016841F08E
:104DF00001010160006800F00100009008BD0000A2
:104E0000000001404438024070B5044690F83C0070
:104E10000025012817D0012684F83C60022084F880
:104E20003D002068826822F0770222F47F4282608F
:104E30000868502838D00DDC20284FD005DC90B30E
:104E4000102811D14AE0022070BD302846D04028F9
:104E50000AD13BE060282FD070280DD0B0F5805FDC
:104E600003D0B0F5005F12D0012584F83D6000202A
:104E700084F83C00284670BDCB68D1E90121206848
:104E800001F080FC2068816841F0770109E0CB687F
:104E9000D1E90121206801F075FC2068816841F4A6
:104EA00080418160E1E719E0CA684968206801F043
:104EB0007BFC5021206806E0CA684968206801F040
:104EC00084FC6021206801F067FCCEE7CA6849686D
:104ED000206801F069FC40212068F4E7226801465F
:104EE0001046F0E770B5040004D094F841000025A6
:104EF00010B106E0012070BD84F84050204600F05B
:104F000023F8242084F841002068C16821F400516E
:104F1000C160204601F06CFC2068016921F49041D9
:104F200001612068416921F02A0141612068C1685E
:104F300041F40051C1606564202084F8410084F888
:104F400042006563002070BD2DE9F04387B006463E
:104F500014216846FBF79EFA2E493068884256D1E4
:104F60002D480024016841F010010160006800F044
:104F70001000059028481438016841F001010160D3
:104F8000006801A900F0010005904FF4C060009096
:104F900002204FF0030981E81102072004906946BE
:104FA0001E48FDF7F7FB1F4D1D484FF000672860B6
:104FB000C5E901744FF48068C5E903486C61AC61D0
:104FC000EC612C6228466C62FDF730FB08B1FDF7FE
:104FD000A8F8F563AE63134D114860357830E5E805
:104FE00002074020A5E81101042045F81449AC61EE
:104FF000EC61C5E90840C5E90A940A482C636030B1
:10500000FDF714FB08B1FDF78CF8B563AE6307B08C
:10501000BDE8F08300100140443802400000024027
:105020004064024080050020FEE7000070B515498D
:105030000268154B4FF040248A4201D11A4600E025
:105040002246D568C26A961CC6621580428E521EE0
:105050004286428E002A14D102688A4201D1194642
:1050600000E02146496821F0600100D023465960E4
:10507000418D002905D14FF0010180F84110FDF765
:105080007FFD70BD003800400034004070B5416ABB
:10509000144B8A1C426205680988134A4FF0402469
:1050A0009D4201D1154600E02546E960418D491E2B
:1050B0004185418D002914D10168994201D11146E1
:1050C00000E02146496821F0A00100D0224651604D
:1050D000418E002905D14FF0010180F84110FDF704
:1050E0004FFD70BD00380040003400407CB50168C1
:1050F00004468868009094F841000125042834D1C2
:105100000098C00718D04868C043400614D4C96846
:105110002046E26A1180E16A891CE162618E491EC3
:105120006186618E41B901684A6822F060024A6076
:1051300080F84150FDF73CFE0098400615D52068E8
:105140004168C943890610D4416821F0600141607B
:105150002068C1688068019084F84150606C40F01C
:10516000020060642046FDF70CFD94F8410003281E
:1051700034D10098800719D521684868C0430006DB
:1051800014D4626A20461288CA60616A891C61620E
:10519000618D491E6185618D41B901684A6822F0BF
:1051A000A0024A6080F84150FDF703FE0098000716
:1051B00014D520684168C94389060FD4416821F09D
:1051C000A001416020688068009084F84150606CC4
:1051D00040F0040060642046FDF7D3FC7CBD000075
:1051E000F0B500230A24302537261F4611E000BF02
:1051F000B4EB107F02D905EB107C01E006EB107CCC
:1052000001F813C001EB430C00015B1C8CF801702A
:10521000DBB29342ECD3F0BD38B50E4D044600220C
:1052200010212846FDF7A6FB012211462846FDF76E
:10523000A1FB200A8DF800008DF80140022269468A
:105240000548FFF7DDFC012210212846FDF792FBFF
:1052500038BD0000000802409003002070B50446ED
:10526000EF230021F8B01A46084600F03BF82C2046
:1052700000F080F84FF4F075F92229466846FBF7F4
:1052800001F900236846210A5FFA84F200F813103E
:1052900000EB43045B1C6270F02BF7D32E460F4DDE
:1052A0000024002210212846FDF764FB012211464C
:1052B0002846FDF75FFB324669460948FFF7A0FC28
:1052C000782003F0FFF8012210212846FDF752FB59
:1052D000641CF02CE5D378B070BD000000080240DB
:1052E000900300202DE9F04107461C4615460E4666
:1052F0002A2000F03FF8380A00F022F8F8B200F057
:105300001FF8280A00F01CF8E8B200F019F82B206A
:1053100000F030F8300A00F013F8F0B200F010F8A6
:10532000200A00F00DF8E0B200F00AF8BDE8F04104
:105330002C2000F01FB80B460246FFF7D3BF000039
:1053400070B50B4C0546002210212046FDF712FBDC
:10535000012211462046FDF70DFB284603F0A6FC6E
:105360002046BDE8704001221021FDF703BB00007C
:105370000008024070B50B4C054600221021204663
:10538000FDF7F8FA002201212046FDF7F3FA28463E
:1053900003F08CFC2046BDE8704001221021FDF78F
:1053A000E9BA0000000802407FB5002123480091BF
:1053B00001910291204A0391C0E900210124046176
:1053C0008160017680F820101D4AC0E90A21042579
:1053D000C561C16080F830104461FCF7E9FF08B195
:1053E000FCF79FFE05200094CDE901406946134873
:1053F000FCF738FF08B1FCF794FE02200090019002
:1054000069460E48FCF72EFF08B1FCF78AFE032020
:105410000090019069460948FCF724FF08B1FCF7A9
:1054200080FE0095694605480195FCF71BFF0028A2
:1054300001D0FCF776FE7FBD002001405C0100201A
:105440000100000F254808B5016841F480010160A2
:10545000016801F480010091016841F400110160CC
:105460000068002200F40010009011460F20FDF7A4
:1054700009FD0F20FDF7F8FC002211463820FDF74A
:1054800001FD3820FDF7F0FC002211463A20FDF71F
:10549000F9FC3A20FDF7E8FC002202213B20FDF751
:1054A000F1FC3B20FDF7E0FC002211464420FDF713
:1054B000E9FC4420FDF7D8FC002211464520FDF709
:1054C000E1FC4520FDF7D0FC002211464620FDF707
:1054D000D9FCBDE808404620FDF7C6BC3038024084
:1054E0002DE9F04387B014216846FAF7D3FF33481B
:1054F0000024016841F004010160016801F0040129
:105500000591016841F080010160016801F08001AE
:105510000591016841F001010160016801F001019C
:105520000591016841F002010160016801F002018A
:105530000591016841F0080101600068DFF8808092
:1055400000F008000590012242F20E014046FDF7EE
:1055500011FA002211214046FDF70CFA0122DFF872
:105560006490170239464846FDF704FA42F20200F9
:1055700000900125CDE90154694640460394FDF7AA
:1055800009F91D200326CDE90005CDE9024669464B
:105590004046FDF7FFF8A803CDE9000469460A4834
:1055A0000294FDF7F7F800970396CDE90154694698
:1055B0004846FDF7EFF807B0BDE8F0833038024009
:1055C0000008024000000240000402400D4810B5EF
:1055D0000B49016049154160002181604BF6803222
:1055E000C160C0E904120822C0E906210162FDF78A
:1055F000C9FA002803D0BDE81040FCF792BD10BDE9
:1056000000380040A40100200E4810B50C4901608C
:10561000002141608160C160016141618161FEF7EB
:1056200097FF08B1FCF77DFD4FF400610548FEF7D8
:10563000F3FC002803D0BDE81040FCF772BD10BD9C
:10564000002C01404C0200200F4810B50D490160AC
:105650004FF48271416000218160C1604FF400729B
:105660000161C0E90512C1610162416281620A21E2
:10567000C162FFF7FEF8002803D0BDE81040FCF738
:1056800050BD10BD003001409003002010B586B021
:10569000002417480094019402940394049413493D
:1056A000059401600F21C0E901144FF47A71C0E93B
:1056B000031444618461FFF75FFB08B1FCF731FD1F
:1056C0004FF48050009069460948FFF79DFB08B1F0
:1056D000FCF727FD049404A905480594FFF70EFB89
:1056E000002801D0FCF71DFD06B010BD00000140F0
:1056F000A804002010B586B0002416480094019438
:105700000294039404944FF08041059401600F21AA
:10571000C0E901144FF47A71C0E903148461FFF702
:105720002BFB08B1FCF7FDFC4FF48050009069465C
:105730000848FFF769FB08B1FCF7F3FC049404A9DF
:1057400004480594FFF7DAFA002801D0FCF7E9FCD9
:1057500006B010BDF00400200C4810B50A490160E5
:105760004FF4E1314160002181600C22C160C0E949
:1057700004128161C161FFF7B5FB002803D0BDE8C9
:105780001040FCF7CEBC10BD0010014038050020D1
:1057900010B500220F49104801F0D0FC08B1FCF709
:1057A000C0FC0E490C4801F0E0FE08B1FCF7B9FC62
:1057B0000B49094801F06AFA08B1FCF7B2FC064847
:1057C00001F056FF002803D0BDE81040FCF7A9BC4B
:1057D00010BD00001000002040060020CC0000207A
:1057E00060000020FEE7FEE70148FDF7C9BC0000AD
:1057F0003C1500202DE9F04103680D4604461E6C5F
:1058000003EB4511D1F8080B94F806E04FF400477C
:105810004FF0200C04F29C42BEF1010F09D0DFF8DA
:1058200098E0764539D1020432D500BFC1F8087B33
:105830003FE0224B5FEA007E04D59E4239D9000446
:10584000F4D436E05FEA806E02D5C1F808CB30E0D0
:1058500010F0280F2DD19E4201D90004E6D405EBAB
:10586000C50004EB8000D1F8101BD0F87432C1F3EE
:105870001201591AC0F8681200F51570ADB9036924
:105880001BB1C2681144C1600FE0012120680AE029
:1058900080060AD5C1F808CB07E035B9D4F8640210
:1058A00018B90021184602F05DFAE9B22046FDF76A
:1058B0004FFB0020BDE8F0810A31544F0A30544FAD
:1058C0002DE9F84F0E4601EBC60100EB810481463D
:1058D0000568D4E909101434884202D90120BDE8D2
:1058E000F88F081AA168814200D20846C01C8708B8
:1058F00005EB46181BE000BFA0EB010AA06850456D
:1059000000D282460AF10300870899F80600009049
:105910001FFA8AF3F2B22846E16802F061FDE168FD
:1059200001EB0A00E060616901EB0A006061D8F8F0
:10593000180980B2B84205D3D4E90401814201D2EA
:105940000028D9D1D4E90401884208D806F00F0113
:1059500001208840D5F834188143C5F83418002058
:10596000BDE770470A6842624A688262D1E9022351
:105970001A43D1E904310B43C16A1A4321F0F701FC
:105980001143C16200207047006800F003007047B7
:1059900008444069704700000148FEF7D5BC00008C
:1059A0004C02002070B50DF1100C11439CE8700002
:1059B0002343194329434268314347F6FF639A431F
:1059C0000A434260002070BD03210160002070473F
:1059D000D0F8800070470A688260D1E901231A4339
:1059E000D1E903310B43C1681A436FF30B01114333
:1059F000C160002070470968C0F88010002070471F
:105A000010B585B004463720CDE900104020029043
:105A1000002003904FF48060049069462046FFF711
:105A2000DAFF41F288323721204600F069F905B0EB
:105A300010BD000010B504460A4885B00143292076
:105A4000CDE9001040200290002003904FF48060C8
:105A5000049069462046FFF7BEFF204600F008FA92
:105A600005B010BD0000108010B585B004461020B0
:105A7000CDE9001040200290002003904FF4806098
:105A8000049069462046FFF7A6FF41F288321021B4
:105A9000204600F035F905B010BD10B585B00446BC
:105AA0000620CDE9001040200290002003904FF422
:105AB0008060049069462046FFF78DFF41F28832EE
:105AC0000621204600F01CF905B010BD30B585B0A8
:105AD00000240546009401944FF480600294CDE9BF
